{
	"inheritance.sol": {
		"Inheritance": {
			"abi": [
				{
					"inputs": [],
					"stateMutability": "nonpayable",
					"type": "constructor"
				},
				{
					"inputs": [],
					"name": "addFunds",
					"outputs": [],
					"stateMutability": "payable",
					"type": "function"
				},
				{
					"inputs": [
						{
							"internalType": "address payable",
							"name": "inheritorAddress",
							"type": "address"
						},
						{
							"internalType": "string",
							"name": "name",
							"type": "string"
						}
					],
					"name": "addInheritor",
					"outputs": [],
					"stateMutability": "nonpayable",
					"type": "function"
				},
				{
					"inputs": [
						{
							"internalType": "address payable[]",
							"name": "inheritorAddresses",
							"type": "address[]"
						},
						{
							"internalType": "uint256[]",
							"name": "amounts",
							"type": "uint256[]"
						}
					],
					"name": "distributeInheritance",
					"outputs": [],
					"stateMutability": "nonpayable",
					"type": "function"
				},
				{
					"inputs": [
						{
							"internalType": "uint256",
							"name": "",
							"type": "uint256"
						}
					],
					"name": "inheritors",
					"outputs": [
						{
							"internalType": "address payable",
							"name": "inheritorAddress",
							"type": "address"
						},
						{
							"internalType": "string",
							"name": "name",
							"type": "string"
						}
					],
					"stateMutability": "view",
					"type": "function"
				},
				{
					"inputs": [],
					"name": "isAlive",
					"outputs": [
						{
							"internalType": "bool",
							"name": "",
							"type": "bool"
						}
					],
					"stateMutability": "view",
					"type": "function"
				},
				{
					"inputs": [],
					"name": "keepAlive",
					"outputs": [],
					"stateMutability": "nonpayable",
					"type": "function"
				},
				{
					"inputs": [],
					"name": "lastAlive",
					"outputs": [
						{
							"internalType": "uint256",
							"name": "",
							"type": "uint256"
						}
					],
					"stateMutability": "view",
					"type": "function"
				},
				{
					"inputs": [
						{
							"internalType": "address",
							"name": "inheritorAddress",
							"type": "address"
						}
					],
					"name": "removeInheritor",
					"outputs": [],
					"stateMutability": "nonpayable",
					"type": "function"
				},
				{
					"inputs": [],
					"name": "viewInheritors",
					"outputs": [
						{
							"components": [
								{
									"internalType": "address payable",
									"name": "inheritorAddress",
									"type": "address"
								},
								{
									"internalType": "string",
									"name": "name",
									"type": "string"
								}
							],
							"internalType": "struct Inheritance.Inheritor[]",
							"name": "",
							"type": "tuple[]"
						}
					],
					"stateMutability": "view",
					"type": "function"
				},
				{
					"inputs": [],
					"name": "viewPoolBalance",
					"outputs": [
						{
							"internalType": "uint256",
							"name": "",
							"type": "uint256"
						}
					],
					"stateMutability": "view",
					"type": "function"
				}
			],
			"devdoc": {
				"kind": "dev",
				"methods": {},
				"version": 1
			},
			"evm": {
				"assembly": "    /* \"inheritance.sol\":60:2697  contract Inheritance {... */\n  mstore(0x40, 0x80)\n    /* \"inheritance.sol\":404:493  constructor() {... */\n  callvalue\n  dup1\n  iszero\n  tag_1\n  jumpi\n  0x00\n  dup1\n  revert\ntag_1:\n  pop\n    /* \"inheritance.sol\":437:447  msg.sender */\n  caller\n    /* \"inheritance.sol\":429:434  owner */\n  0x00\n  dup1\n    /* \"inheritance.sol\":429:447  owner = msg.sender */\n  0x0100\n  exp\n  dup2\n  sload\n  dup2\n  0xffffffffffffffffffffffffffffffffffffffff\n  mul\n  not\n  and\n  swap1\n  dup4\n  0xffffffffffffffffffffffffffffffffffffffff\n  and\n  mul\n  or\n  swap1\n  sstore\n  pop\n    /* \"inheritance.sol\":470:485  block.timestamp */\n  timestamp\n    /* \"inheritance.sol\":458:467  lastAlive */\n  0x02\n    /* \"inheritance.sol\":458:485  lastAlive = block.timestamp */\n  dup2\n  swap1\n  sstore\n  pop\n    /* \"inheritance.sol\":60:2697  contract Inheritance {... */\n  dataSize(sub_0)\n  dup1\n  dataOffset(sub_0)\n  0x00\n  codecopy\n  0x00\n  return\nstop\n\nsub_0: assembly {\n        /* \"inheritance.sol\":60:2697  contract Inheritance {... */\n      mstore(0x40, 0x80)\n      jumpi(tag_1, lt(calldatasize, 0x04))\n      shr(0xe0, calldataload(0x00))\n      dup1\n      0xca8fb041\n      gt\n      tag_12\n      jumpi\n      dup1\n      0xca8fb041\n      eq\n      tag_7\n      jumpi\n      dup1\n      0xcf701f31\n      eq\n      tag_8\n      jumpi\n      dup1\n      0xd5d319c8\n      eq\n      tag_9\n      jumpi\n      dup1\n      0xdffdac49\n      eq\n      tag_10\n      jumpi\n      dup1\n      0xf2a314fa\n      eq\n      tag_11\n      jumpi\n      jump(tag_1)\n    tag_12:\n      dup1\n      0x4136aa35\n      eq\n      tag_2\n      jumpi\n      dup1\n      0x69c68311\n      eq\n      tag_3\n      jumpi\n      dup1\n      0x87740c0d\n      eq\n      tag_4\n      jumpi\n      dup1\n      0xa26759cb\n      eq\n      tag_5\n      jumpi\n      dup1\n      0xc161c75d\n      eq\n      tag_6\n      jumpi\n    tag_1:\n      0x00\n      dup1\n      revert\n        /* \"inheritance.sol\":2580:2694  function isAlive() external view returns (bool) {... */\n    tag_2:\n      callvalue\n      dup1\n      iszero\n      tag_13\n      jumpi\n      0x00\n      dup1\n      revert\n    tag_13:\n      pop\n      tag_14\n      tag_15\n      jump\t// in\n    tag_14:\n      mload(0x40)\n      tag_16\n      swap2\n      swap1\n      tag_17\n      jump\t// in\n    tag_16:\n      mload(0x40)\n      dup1\n      swap2\n      sub\n      swap1\n      return\n        /* \"inheritance.sol\":848:1014  function addInheritor(address payable inheritorAddress, string calldata name) external onlyOwner {... */\n    tag_3:\n      callvalue\n      dup1\n      iszero\n      tag_18\n      jumpi\n      0x00\n      dup1\n      revert\n    tag_18:\n      pop\n      tag_19\n      0x04\n      dup1\n      calldatasize\n      sub\n      dup2\n      add\n      swap1\n      tag_20\n      swap2\n      swap1\n      tag_21\n      jump\t// in\n    tag_20:\n      tag_22\n      jump\t// in\n    tag_19:\n      stop\n        /* \"inheritance.sol\":2418:2504  function keepAlive() external onlyOwner {... */\n    tag_4:\n      callvalue\n      dup1\n      iszero\n      tag_23\n      jumpi\n      0x00\n      dup1\n      revert\n    tag_23:\n      pop\n      tag_24\n      tag_25\n      jump\t// in\n    tag_24:\n      stop\n        /* \"inheritance.sol\":567:606  function addFunds() external payable {} */\n    tag_5:\n      tag_26\n      tag_27\n      jump\t// in\n    tag_26:\n      stop\n        /* \"inheritance.sol\":1708:2326  function distributeInheritance(address payable[] calldata inheritorAddresses, uint256[] calldata amounts) external onlyOwner {... */\n    tag_6:\n      callvalue\n      dup1\n      iszero\n      tag_28\n      jumpi\n      0x00\n      dup1\n      revert\n    tag_28:\n      pop\n      tag_29\n      0x04\n      dup1\n      calldatasize\n      sub\n      dup2\n      add\n      swap1\n      tag_30\n      swap2\n      swap1\n      tag_31\n      jump\t// in\n    tag_30:\n      tag_32\n      jump\t// in\n    tag_29:\n      stop\n        /* \"inheritance.sol\":1508:1613  function viewInheritors() external view returns (Inheritor[] memory) {... */\n    tag_7:\n      callvalue\n      dup1\n      iszero\n      tag_33\n      jumpi\n      0x00\n      dup1\n      revert\n    tag_33:\n      pop\n      tag_34\n      tag_35\n      jump\t// in\n    tag_34:\n      mload(0x40)\n      tag_36\n      swap2\n      swap1\n      tag_37\n      jump\t// in\n    tag_36:\n      mload(0x40)\n      dup1\n      swap2\n      sub\n      swap1\n      return\n        /* \"inheritance.sol\":1070:1431  function removeInheritor(address inheritorAddress) external onlyOwner {... */\n    tag_8:\n      callvalue\n      dup1\n      iszero\n      tag_38\n      jumpi\n      0x00\n      dup1\n      revert\n    tag_38:\n      pop\n      tag_39\n      0x04\n      dup1\n      calldatasize\n      sub\n      dup2\n      add\n      swap1\n      tag_40\n      swap2\n      swap1\n      tag_41\n      jump\t// in\n    tag_40:\n      tag_42\n      jump\t// in\n    tag_39:\n      stop\n        /* \"inheritance.sol\":677:783  function viewPoolBalance() external view returns (uint256) {... */\n    tag_9:\n      callvalue\n      dup1\n      iszero\n      tag_43\n      jumpi\n      0x00\n      dup1\n      revert\n    tag_43:\n      pop\n      tag_44\n      tag_45\n      jump\t// in\n    tag_44:\n      mload(0x40)\n      tag_46\n      swap2\n      swap1\n      tag_47\n      jump\t// in\n    tag_46:\n      mload(0x40)\n      dup1\n      swap2\n      sub\n      swap1\n      return\n        /* \"inheritance.sol\":144:168  uint256 public lastAlive */\n    tag_10:\n      callvalue\n      dup1\n      iszero\n      tag_48\n      jumpi\n      0x00\n      dup1\n      revert\n    tag_48:\n      pop\n      tag_49\n      tag_50\n      jump\t// in\n    tag_49:\n      mload(0x40)\n      tag_51\n      swap2\n      swap1\n      tag_47\n      jump\t// in\n    tag_51:\n      mload(0x40)\n      dup1\n      swap2\n      sub\n      swap1\n      return\n        /* \"inheritance.sol\":108:137  Inheritor[] public inheritors */\n    tag_11:\n      callvalue\n      dup1\n      iszero\n      tag_52\n      jumpi\n      0x00\n      dup1\n      revert\n    tag_52:\n      pop\n      tag_53\n      0x04\n      dup1\n      calldatasize\n      sub\n      dup2\n      add\n      swap1\n      tag_54\n      swap2\n      swap1\n      tag_55\n      jump\t// in\n    tag_54:\n      tag_56\n      jump\t// in\n    tag_53:\n      mload(0x40)\n      tag_57\n      swap3\n      swap2\n      swap1\n      tag_58\n      jump\t// in\n    tag_57:\n      mload(0x40)\n      dup1\n      swap2\n      sub\n      swap1\n      return\n        /* \"inheritance.sol\":2580:2694  function isAlive() external view returns (bool) {... */\n    tag_15:\n        /* \"inheritance.sol\":2622:2626  bool */\n      0x00\n        /* \"inheritance.sol\":2678:2686  365 days */\n      0x01e13380\n        /* \"inheritance.sol\":2665:2674  lastAlive */\n      sload(0x02)\n        /* \"inheritance.sol\":2647:2662  block.timestamp */\n      timestamp\n        /* \"inheritance.sol\":2647:2674  block.timestamp - lastAlive */\n      tag_60\n      swap2\n      swap1\n      tag_61\n      jump\t// in\n    tag_60:\n        /* \"inheritance.sol\":2646:2686  (block.timestamp - lastAlive) < 365 days */\n      lt\n        /* \"inheritance.sol\":2639:2686  return (block.timestamp - lastAlive) < 365 days */\n      swap1\n      pop\n        /* \"inheritance.sol\":2580:2694  function isAlive() external view returns (bool) {... */\n      swap1\n      jump\t// out\n        /* \"inheritance.sol\":848:1014  function addInheritor(address payable inheritorAddress, string calldata name) external onlyOwner {... */\n    tag_22:\n        /* \"inheritance.sol\":329:334  owner */\n      0x00\n      dup1\n      sload\n      swap1\n      0x0100\n      exp\n      swap1\n      div\n      0xffffffffffffffffffffffffffffffffffffffff\n      and\n        /* \"inheritance.sol\":315:334  msg.sender == owner */\n      0xffffffffffffffffffffffffffffffffffffffff\n      and\n        /* \"inheritance.sol\":315:325  msg.sender */\n      caller\n        /* \"inheritance.sol\":315:334  msg.sender == owner */\n      0xffffffffffffffffffffffffffffffffffffffff\n      and\n      eq\n        /* \"inheritance.sol\":307:376  require(msg.sender == owner, \"Only the owner can call this function\") */\n      tag_63\n      jumpi\n      mload(0x40)\n      0x08c379a000000000000000000000000000000000000000000000000000000000\n      dup2\n      mstore\n      0x04\n      add\n      tag_64\n      swap1\n      tag_65\n      jump\t// in\n    tag_64:\n      mload(0x40)\n      dup1\n      swap2\n      sub\n      swap1\n      revert\n    tag_63:\n        /* \"inheritance.sol\":956:966  inheritors */\n      0x01\n        /* \"inheritance.sol\":972:1005  Inheritor(inheritorAddress, name) */\n      mload(0x40)\n      dup1\n      0x40\n      add\n      0x40\n      mstore\n      dup1\n        /* \"inheritance.sol\":982:998  inheritorAddress */\n      dup6\n        /* \"inheritance.sol\":972:1005  Inheritor(inheritorAddress, name) */\n      0xffffffffffffffffffffffffffffffffffffffff\n      and\n      dup2\n      mstore\n      0x20\n      add\n        /* \"inheritance.sol\":1000:1004  name */\n      dup5\n      dup5\n        /* \"inheritance.sol\":972:1005  Inheritor(inheritorAddress, name) */\n      dup1\n      dup1\n      0x1f\n      add\n      0x20\n      dup1\n      swap2\n      div\n      mul\n      0x20\n      add\n      mload(0x40)\n      swap1\n      dup2\n      add\n      0x40\n      mstore\n      dup1\n      swap4\n      swap3\n      swap2\n      swap1\n      dup2\n      dup2\n      mstore\n      0x20\n      add\n      dup4\n      dup4\n      dup1\n      dup3\n      dup5\n      calldatacopy\n      0x00\n      dup2\n      dup5\n      add\n      mstore\n      not(0x1f)\n      0x1f\n      dup3\n      add\n      and\n      swap1\n      pop\n      dup1\n      dup4\n      add\n      swap3\n      pop\n      pop\n      pop\n      pop\n      pop\n      pop\n      pop\n      dup2\n      mstore\n      pop\n        /* \"inheritance.sol\":956:1006  inheritors.push(Inheritor(inheritorAddress, name)) */\n      swap1\n      dup1\n      0x01\n      dup2\n      sload\n      add\n      dup1\n      dup3\n      sstore\n      dup1\n      swap2\n      pop\n      pop\n      0x01\n      swap1\n      sub\n      swap1\n      0x00\n      mstore\n      keccak256(0x00, 0x20)\n      swap1\n      0x02\n      mul\n      add\n      0x00\n      swap1\n      swap2\n      swap1\n      swap2\n      swap1\n      swap2\n      pop\n      0x00\n      dup3\n      add\n      mload\n      dup2\n      0x00\n      add\n      exp(0x0100, 0x00)\n      dup2\n      sload\n      dup2\n      0xffffffffffffffffffffffffffffffffffffffff\n      mul\n      not\n      and\n      swap1\n      dup4\n      0xffffffffffffffffffffffffffffffffffffffff\n      and\n      mul\n      or\n      swap1\n      sstore\n      pop\n      0x20\n      dup3\n      add\n      mload\n      dup2\n      0x01\n      add\n      swap1\n      dup2\n      tag_68\n      swap2\n      swap1\n      tag_69\n      jump\t// in\n    tag_68:\n      pop\n      pop\n      pop\n        /* \"inheritance.sol\":848:1014  function addInheritor(address payable inheritorAddress, string calldata name) external onlyOwner {... */\n      pop\n      pop\n      pop\n      jump\t// out\n        /* \"inheritance.sol\":2418:2504  function keepAlive() external onlyOwner {... */\n    tag_25:\n        /* \"inheritance.sol\":329:334  owner */\n      0x00\n      dup1\n      sload\n      swap1\n      0x0100\n      exp\n      swap1\n      div\n      0xffffffffffffffffffffffffffffffffffffffff\n      and\n        /* \"inheritance.sol\":315:334  msg.sender == owner */\n      0xffffffffffffffffffffffffffffffffffffffff\n      and\n        /* \"inheritance.sol\":315:325  msg.sender */\n      caller\n        /* \"inheritance.sol\":315:334  msg.sender == owner */\n      0xffffffffffffffffffffffffffffffffffffffff\n      and\n      eq\n        /* \"inheritance.sol\":307:376  require(msg.sender == owner, \"Only the owner can call this function\") */\n      tag_71\n      jumpi\n      mload(0x40)\n      0x08c379a000000000000000000000000000000000000000000000000000000000\n      dup2\n      mstore\n      0x04\n      add\n      tag_72\n      swap1\n      tag_65\n      jump\t// in\n    tag_72:\n      mload(0x40)\n      dup1\n      swap2\n      sub\n      swap1\n      revert\n    tag_71:\n        /* \"inheritance.sol\":2481:2496  block.timestamp */\n      timestamp\n        /* \"inheritance.sol\":2469:2478  lastAlive */\n      0x02\n        /* \"inheritance.sol\":2469:2496  lastAlive = block.timestamp */\n      dup2\n      swap1\n      sstore\n      pop\n        /* \"inheritance.sol\":2418:2504  function keepAlive() external onlyOwner {... */\n      jump\t// out\n        /* \"inheritance.sol\":567:606  function addFunds() external payable {} */\n    tag_27:\n      jump\t// out\n        /* \"inheritance.sol\":1708:2326  function distributeInheritance(address payable[] calldata inheritorAddresses, uint256[] calldata amounts) external onlyOwner {... */\n    tag_32:\n        /* \"inheritance.sol\":329:334  owner */\n      0x00\n      dup1\n      sload\n      swap1\n      0x0100\n      exp\n      swap1\n      div\n      0xffffffffffffffffffffffffffffffffffffffff\n      and\n        /* \"inheritance.sol\":315:334  msg.sender == owner */\n      0xffffffffffffffffffffffffffffffffffffffff\n      and\n        /* \"inheritance.sol\":315:325  msg.sender */\n      caller\n        /* \"inheritance.sol\":315:334  msg.sender == owner */\n      0xffffffffffffffffffffffffffffffffffffffff\n      and\n      eq\n        /* \"inheritance.sol\":307:376  require(msg.sender == owner, \"Only the owner can call this function\") */\n      tag_76\n      jumpi\n      mload(0x40)\n      0x08c379a000000000000000000000000000000000000000000000000000000000\n      dup2\n      mstore\n      0x04\n      add\n      tag_77\n      swap1\n      tag_65\n      jump\t// in\n    tag_77:\n      mload(0x40)\n      dup1\n      swap2\n      sub\n      swap1\n      revert\n    tag_76:\n        /* \"inheritance.sol\":1881:1888  amounts */\n      dup2\n      dup2\n        /* \"inheritance.sol\":1881:1895  amounts.length */\n      swap1\n      pop\n        /* \"inheritance.sol\":1852:1870  inheritorAddresses */\n      dup5\n      dup5\n        /* \"inheritance.sol\":1852:1877  inheritorAddresses.length */\n      swap1\n      pop\n        /* \"inheritance.sol\":1852:1895  inheritorAddresses.length == amounts.length */\n      eq\n        /* \"inheritance.sol\":1844:1932  require(inheritorAddresses.length == amounts.length, \"Mismatched addresses and amounts\") */\n      tag_79\n      jumpi\n      mload(0x40)\n      0x08c379a000000000000000000000000000000000000000000000000000000000\n      dup2\n      mstore\n      0x04\n      add\n      tag_80\n      swap1\n      tag_81\n      jump\t// in\n    tag_80:\n      mload(0x40)\n      dup1\n      swap2\n      sub\n      swap1\n      revert\n    tag_79:\n        /* \"inheritance.sol\":1953:1972  uint256 totalAmount */\n      0x00\n        /* \"inheritance.sol\":1992:2001  uint256 i */\n      dup1\n        /* \"inheritance.sol\":1987:2084  for (uint256 i = 0; i < amounts.length; i++) {... */\n    tag_82:\n        /* \"inheritance.sol\":2011:2018  amounts */\n      dup4\n      dup4\n        /* \"inheritance.sol\":2011:2025  amounts.length */\n      swap1\n      pop\n        /* \"inheritance.sol\":2007:2008  i */\n      dup2\n        /* \"inheritance.sol\":2007:2025  i < amounts.length */\n      lt\n        /* \"inheritance.sol\":1987:2084  for (uint256 i = 0; i < amounts.length; i++) {... */\n      iszero\n      tag_83\n      jumpi\n        /* \"inheritance.sol\":2062:2069  amounts */\n      dup4\n      dup4\n        /* \"inheritance.sol\":2070:2071  i */\n      dup3\n        /* \"inheritance.sol\":2062:2072  amounts[i] */\n      dup2\n      dup2\n      lt\n      tag_85\n      jumpi\n      tag_86\n      tag_87\n      jump\t// in\n    tag_86:\n    tag_85:\n      swap1\n      pop\n      0x20\n      mul\n      add\n      calldataload\n        /* \"inheritance.sol\":2047:2072  totalAmount += amounts[i] */\n      dup3\n      tag_88\n      swap2\n      swap1\n      tag_89\n      jump\t// in\n    tag_88:\n      swap2\n      pop\n        /* \"inheritance.sol\":2027:2030  i++ */\n      dup1\n      dup1\n      0x01\n      add\n      swap2\n      pop\n      pop\n        /* \"inheritance.sol\":1987:2084  for (uint256 i = 0; i < amounts.length; i++) {... */\n      jump(tag_82)\n    tag_83:\n      pop\n        /* \"inheritance.sol\":2119:2140  address(this).balance */\n      selfbalance\n        /* \"inheritance.sol\":2104:2115  totalAmount */\n      dup2\n        /* \"inheritance.sol\":2104:2140  totalAmount <= address(this).balance */\n      gt\n      iszero\n        /* \"inheritance.sol\":2096:2181  require(totalAmount <= address(this).balance, \"Insufficient balance in the contract\") */\n      tag_90\n      jumpi\n      mload(0x40)\n      0x08c379a000000000000000000000000000000000000000000000000000000000\n      dup2\n      mstore\n      0x04\n      add\n      tag_91\n      swap1\n      tag_92\n      jump\t// in\n    tag_91:\n      mload(0x40)\n      dup1\n      swap2\n      sub\n      swap1\n      revert\n    tag_90:\n        /* \"inheritance.sol\":2199:2208  uint256 i */\n      0x00\n        /* \"inheritance.sol\":2194:2319  for (uint256 i = 0; i < inheritorAddresses.length; i++) {... */\n    tag_93:\n        /* \"inheritance.sol\":2218:2236  inheritorAddresses */\n      dup6\n      dup6\n        /* \"inheritance.sol\":2218:2243  inheritorAddresses.length */\n      swap1\n      pop\n        /* \"inheritance.sol\":2214:2215  i */\n      dup2\n        /* \"inheritance.sol\":2214:2243  i < inheritorAddresses.length */\n      lt\n        /* \"inheritance.sol\":2194:2319  for (uint256 i = 0; i < inheritorAddresses.length; i++) {... */\n      iszero\n      tag_94\n      jumpi\n        /* \"inheritance.sol\":2265:2283  inheritorAddresses */\n      dup6\n      dup6\n        /* \"inheritance.sol\":2284:2285  i */\n      dup3\n        /* \"inheritance.sol\":2265:2286  inheritorAddresses[i] */\n      dup2\n      dup2\n      lt\n      tag_96\n      jumpi\n      tag_97\n      tag_87\n      jump\t// in\n    tag_97:\n    tag_96:\n      swap1\n      pop\n      0x20\n      mul\n      add\n      0x20\n      dup2\n      add\n      swap1\n      tag_98\n      swap2\n      swap1\n      tag_99\n      jump\t// in\n    tag_98:\n        /* \"inheritance.sol\":2265:2295  inheritorAddresses[i].transfer */\n      0xffffffffffffffffffffffffffffffffffffffff\n      and\n        /* \"inheritance.sol\":2265:2307  inheritorAddresses[i].transfer(amounts[i]) */\n      0x08fc\n        /* \"inheritance.sol\":2296:2303  amounts */\n      dup6\n      dup6\n        /* \"inheritance.sol\":2304:2305  i */\n      dup5\n        /* \"inheritance.sol\":2296:2306  amounts[i] */\n      dup2\n      dup2\n      lt\n      tag_100\n      jumpi\n      tag_101\n      tag_87\n      jump\t// in\n    tag_101:\n    tag_100:\n      swap1\n      pop\n      0x20\n      mul\n      add\n      calldataload\n        /* \"inheritance.sol\":2265:2307  inheritorAddresses[i].transfer(amounts[i]) */\n      swap1\n      dup2\n      iszero\n      mul\n      swap1\n      mload(0x40)\n      0x00\n      mload(0x40)\n      dup1\n      dup4\n      sub\n      dup2\n      dup6\n      dup9\n      dup9\n      call\n      swap4\n      pop\n      pop\n      pop\n      pop\n      iszero\n      dup1\n      iszero\n      tag_103\n      jumpi\n      returndatasize\n      0x00\n      dup1\n      returndatacopy\n      revert(0x00, returndatasize)\n    tag_103:\n      pop\n        /* \"inheritance.sol\":2245:2248  i++ */\n      dup1\n      dup1\n      0x01\n      add\n      swap2\n      pop\n      pop\n        /* \"inheritance.sol\":2194:2319  for (uint256 i = 0; i < inheritorAddresses.length; i++) {... */\n      jump(tag_93)\n    tag_94:\n      pop\n        /* \"inheritance.sol\":1833:2326  {... */\n      pop\n        /* \"inheritance.sol\":1708:2326  function distributeInheritance(address payable[] calldata inheritorAddresses, uint256[] calldata amounts) external onlyOwner {... */\n      pop\n      pop\n      pop\n      pop\n      jump\t// out\n        /* \"inheritance.sol\":1508:1613  function viewInheritors() external view returns (Inheritor[] memory) {... */\n    tag_35:\n        /* \"inheritance.sol\":1557:1575  Inheritor[] memory */\n      0x60\n        /* \"inheritance.sol\":1595:1605  inheritors */\n      0x01\n        /* \"inheritance.sol\":1588:1605  return inheritors */\n      dup1\n      sload\n      dup1\n      0x20\n      mul\n      0x20\n      add\n      mload(0x40)\n      swap1\n      dup2\n      add\n      0x40\n      mstore\n      dup1\n      swap3\n      swap2\n      swap1\n      dup2\n      dup2\n      mstore\n      0x20\n      add\n      0x00\n      swap1\n    tag_105:\n      dup3\n      dup3\n      lt\n      iszero\n      tag_106\n      jumpi\n      dup4\n      dup3\n      swap1\n      0x00\n      mstore\n      keccak256(0x00, 0x20)\n      swap1\n      0x02\n      mul\n      add\n      mload(0x40)\n      dup1\n      0x40\n      add\n      0x40\n      mstore\n      swap1\n      dup2\n      0x00\n      dup3\n      add\n      0x00\n      swap1\n      sload\n      swap1\n      0x0100\n      exp\n      swap1\n      div\n      0xffffffffffffffffffffffffffffffffffffffff\n      and\n      0xffffffffffffffffffffffffffffffffffffffff\n      and\n      0xffffffffffffffffffffffffffffffffffffffff\n      and\n      dup2\n      mstore\n      0x20\n      add\n      0x01\n      dup3\n      add\n      dup1\n      sload\n      tag_108\n      swap1\n      tag_109\n      jump\t// in\n    tag_108:\n      dup1\n      0x1f\n      add\n      0x20\n      dup1\n      swap2\n      div\n      mul\n      0x20\n      add\n      mload(0x40)\n      swap1\n      dup2\n      add\n      0x40\n      mstore\n      dup1\n      swap3\n      swap2\n      swap1\n      dup2\n      dup2\n      mstore\n      0x20\n      add\n      dup3\n      dup1\n      sload\n      tag_110\n      swap1\n      tag_109\n      jump\t// in\n    tag_110:\n      dup1\n      iszero\n      tag_111\n      jumpi\n      dup1\n      0x1f\n      lt\n      tag_112\n      jumpi\n      0x0100\n      dup1\n      dup4\n      sload\n      div\n      mul\n      dup4\n      mstore\n      swap2\n      0x20\n      add\n      swap2\n      jump(tag_111)\n    tag_112:\n      dup3\n      add\n      swap2\n      swap1\n      0x00\n      mstore\n      keccak256(0x00, 0x20)\n      swap1\n    tag_113:\n      dup2\n      sload\n      dup2\n      mstore\n      swap1\n      0x01\n      add\n      swap1\n      0x20\n      add\n      dup1\n      dup4\n      gt\n      tag_113\n      jumpi\n      dup3\n      swap1\n      sub\n      0x1f\n      and\n      dup3\n      add\n      swap2\n    tag_111:\n      pop\n      pop\n      pop\n      pop\n      pop\n      dup2\n      mstore\n      pop\n      pop\n      dup2\n      mstore\n      0x20\n      add\n      swap1\n      0x01\n      add\n      swap1\n      jump(tag_105)\n    tag_106:\n      pop\n      pop\n      pop\n      pop\n      swap1\n      pop\n        /* \"inheritance.sol\":1508:1613  function viewInheritors() external view returns (Inheritor[] memory) {... */\n      swap1\n      jump\t// out\n        /* \"inheritance.sol\":1070:1431  function removeInheritor(address inheritorAddress) external onlyOwner {... */\n    tag_42:\n        /* \"inheritance.sol\":329:334  owner */\n      0x00\n      dup1\n      sload\n      swap1\n      0x0100\n      exp\n      swap1\n      div\n      0xffffffffffffffffffffffffffffffffffffffff\n      and\n        /* \"inheritance.sol\":315:334  msg.sender == owner */\n      0xffffffffffffffffffffffffffffffffffffffff\n      and\n        /* \"inheritance.sol\":315:325  msg.sender */\n      caller\n        /* \"inheritance.sol\":315:334  msg.sender == owner */\n      0xffffffffffffffffffffffffffffffffffffffff\n      and\n      eq\n        /* \"inheritance.sol\":307:376  require(msg.sender == owner, \"Only the owner can call this function\") */\n      tag_115\n      jumpi\n      mload(0x40)\n      0x08c379a000000000000000000000000000000000000000000000000000000000\n      dup2\n      mstore\n      0x04\n      add\n      tag_116\n      swap1\n      tag_65\n      jump\t// in\n    tag_116:\n      mload(0x40)\n      dup1\n      swap2\n      sub\n      swap1\n      revert\n    tag_115:\n        /* \"inheritance.sol\":1156:1165  uint256 i */\n      0x00\n        /* \"inheritance.sol\":1151:1424  for (uint256 i = 0; i < inheritors.length; i++) {... */\n    tag_118:\n        /* \"inheritance.sol\":1175:1185  inheritors */\n      0x01\n        /* \"inheritance.sol\":1175:1192  inheritors.length */\n      dup1\n      sload\n      swap1\n      pop\n        /* \"inheritance.sol\":1171:1172  i */\n      dup2\n        /* \"inheritance.sol\":1171:1192  i < inheritors.length */\n      lt\n        /* \"inheritance.sol\":1151:1424  for (uint256 i = 0; i < inheritors.length; i++) {... */\n      iszero\n      tag_119\n      jumpi\n        /* \"inheritance.sol\":1252:1268  inheritorAddress */\n      dup2\n        /* \"inheritance.sol\":1218:1268  inheritors[i].inheritorAddress == inheritorAddress */\n      0xffffffffffffffffffffffffffffffffffffffff\n      and\n        /* \"inheritance.sol\":1218:1228  inheritors */\n      0x01\n        /* \"inheritance.sol\":1229:1230  i */\n      dup3\n        /* \"inheritance.sol\":1218:1231  inheritors[i] */\n      dup2\n      sload\n      dup2\n      lt\n      tag_121\n      jumpi\n      tag_122\n      tag_87\n      jump\t// in\n    tag_122:\n    tag_121:\n      swap1\n      0x00\n      mstore\n      keccak256(0x00, 0x20)\n      swap1\n      0x02\n      mul\n      add\n        /* \"inheritance.sol\":1218:1248  inheritors[i].inheritorAddress */\n      0x00\n      add\n      0x00\n      swap1\n      sload\n      swap1\n      0x0100\n      exp\n      swap1\n      div\n      0xffffffffffffffffffffffffffffffffffffffff\n      and\n        /* \"inheritance.sol\":1218:1268  inheritors[i].inheritorAddress == inheritorAddress */\n      0xffffffffffffffffffffffffffffffffffffffff\n      and\n      sub\n        /* \"inheritance.sol\":1214:1413  if (inheritors[i].inheritorAddress == inheritorAddress) {... */\n      tag_124\n      jumpi\n        /* \"inheritance.sol\":1305:1315  inheritors */\n      0x01\n        /* \"inheritance.sol\":1336:1337  1 */\n      dup1\n        /* \"inheritance.sol\":1316:1326  inheritors */\n      dup1\n        /* \"inheritance.sol\":1316:1333  inheritors.length */\n      dup1\n      sload\n      swap1\n      pop\n        /* \"inheritance.sol\":1316:1337  inheritors.length - 1 */\n      tag_125\n      swap2\n      swap1\n      tag_61\n      jump\t// in\n    tag_125:\n        /* \"inheritance.sol\":1305:1338  inheritors[inheritors.length - 1] */\n      dup2\n      sload\n      dup2\n      lt\n      tag_126\n      jumpi\n      tag_127\n      tag_87\n      jump\t// in\n    tag_127:\n    tag_126:\n      swap1\n      0x00\n      mstore\n      keccak256(0x00, 0x20)\n      swap1\n      0x02\n      mul\n      add\n        /* \"inheritance.sol\":1289:1299  inheritors */\n      0x01\n        /* \"inheritance.sol\":1300:1301  i */\n      dup3\n        /* \"inheritance.sol\":1289:1302  inheritors[i] */\n      dup2\n      sload\n      dup2\n      lt\n      tag_129\n      jumpi\n      tag_130\n      tag_87\n      jump\t// in\n    tag_130:\n    tag_129:\n      swap1\n      0x00\n      mstore\n      keccak256(0x00, 0x20)\n      swap1\n      0x02\n      mul\n      add\n        /* \"inheritance.sol\":1289:1338  inheritors[i] = inheritors[inheritors.length - 1] */\n      0x00\n      dup3\n      add\n      0x00\n      swap1\n      sload\n      swap1\n      0x0100\n      exp\n      swap1\n      div\n      0xffffffffffffffffffffffffffffffffffffffff\n      and\n      dup2\n      0x00\n      add\n      exp(0x0100, 0x00)\n      dup2\n      sload\n      dup2\n      0xffffffffffffffffffffffffffffffffffffffff\n      mul\n      not\n      and\n      swap1\n      dup4\n      0xffffffffffffffffffffffffffffffffffffffff\n      and\n      mul\n      or\n      swap1\n      sstore\n      pop\n      0x01\n      dup3\n      add\n      dup2\n      0x01\n      add\n      swap1\n      dup2\n      tag_132\n      swap2\n      swap1\n      tag_133\n      jump\t// in\n    tag_132:\n      pop\n      swap1\n      pop\n      pop\n        /* \"inheritance.sol\":1357:1367  inheritors */\n      0x01\n        /* \"inheritance.sol\":1357:1373  inheritors.pop() */\n      dup1\n      sload\n      dup1\n      tag_134\n      jumpi\n      tag_135\n      tag_136\n      jump\t// in\n    tag_135:\n    tag_134:\n      0x01\n      swap1\n      sub\n      dup2\n      dup2\n      swap1\n      0x00\n      mstore\n      keccak256(0x00, 0x20)\n      swap1\n      0x02\n      mul\n      add\n      0x00\n      dup1\n      dup3\n      add\n      exp(0x0100, 0x00)\n      dup2\n      sload\n      swap1\n      0xffffffffffffffffffffffffffffffffffffffff\n      mul\n      not\n      and\n      swap1\n      sstore\n      0x01\n      dup3\n      add\n      0x00\n      tag_138\n      swap2\n      swap1\n      tag_139\n      jump\t// in\n    tag_138:\n      pop\n      pop\n      swap1\n      sstore\n        /* \"inheritance.sol\":1392:1397  break */\n      jump(tag_119)\n        /* \"inheritance.sol\":1214:1413  if (inheritors[i].inheritorAddress == inheritorAddress) {... */\n    tag_124:\n        /* \"inheritance.sol\":1194:1197  i++ */\n      dup1\n      dup1\n      0x01\n      add\n      swap2\n      pop\n      pop\n        /* \"inheritance.sol\":1151:1424  for (uint256 i = 0; i < inheritors.length; i++) {... */\n      jump(tag_118)\n    tag_119:\n      pop\n        /* \"inheritance.sol\":1070:1431  function removeInheritor(address inheritorAddress) external onlyOwner {... */\n      pop\n      jump\t// out\n        /* \"inheritance.sol\":677:783  function viewPoolBalance() external view returns (uint256) {... */\n    tag_45:\n        /* \"inheritance.sol\":727:734  uint256 */\n      0x00\n        /* \"inheritance.sol\":754:775  address(this).balance */\n      selfbalance\n        /* \"inheritance.sol\":747:775  return address(this).balance */\n      swap1\n      pop\n        /* \"inheritance.sol\":677:783  function viewPoolBalance() external view returns (uint256) {... */\n      swap1\n      jump\t// out\n        /* \"inheritance.sol\":144:168  uint256 public lastAlive */\n    tag_50:\n      sload(0x02)\n      dup2\n      jump\t// out\n        /* \"inheritance.sol\":108:137  Inheritor[] public inheritors */\n    tag_56:\n      0x01\n      dup2\n      dup2\n      sload\n      dup2\n      lt\n      tag_141\n      jumpi\n      0x00\n      dup1\n      revert\n    tag_141:\n      swap1\n      0x00\n      mstore\n      keccak256(0x00, 0x20)\n      swap1\n      0x02\n      mul\n      add\n      0x00\n      swap2\n      pop\n      swap1\n      pop\n      dup1\n      0x00\n      add\n      0x00\n      swap1\n      sload\n      swap1\n      0x0100\n      exp\n      swap1\n      div\n      0xffffffffffffffffffffffffffffffffffffffff\n      and\n      swap1\n      dup1\n      0x01\n      add\n      dup1\n      sload\n      tag_143\n      swap1\n      tag_109\n      jump\t// in\n    tag_143:\n      dup1\n      0x1f\n      add\n      0x20\n      dup1\n      swap2\n      div\n      mul\n      0x20\n      add\n      mload(0x40)\n      swap1\n      dup2\n      add\n      0x40\n      mstore\n      dup1\n      swap3\n      swap2\n      swap1\n      dup2\n      dup2\n      mstore\n      0x20\n      add\n      dup3\n      dup1\n      sload\n      tag_144\n      swap1\n      tag_109\n      jump\t// in\n    tag_144:\n      dup1\n      iszero\n      tag_145\n      jumpi\n      dup1\n      0x1f\n      lt\n      tag_146\n      jumpi\n      0x0100\n      dup1\n      dup4\n      sload\n      div\n      mul\n      dup4\n      mstore\n      swap2\n      0x20\n      add\n      swap2\n      jump(tag_145)\n    tag_146:\n      dup3\n      add\n      swap2\n      swap1\n      0x00\n      mstore\n      keccak256(0x00, 0x20)\n      swap1\n    tag_147:\n      dup2\n      sload\n      dup2\n      mstore\n      swap1\n      0x01\n      add\n      swap1\n      0x20\n      add\n      dup1\n      dup4\n      gt\n      tag_147\n      jumpi\n      dup3\n      swap1\n      sub\n      0x1f\n      and\n      dup3\n      add\n      swap2\n    tag_145:\n      pop\n      pop\n      pop\n      pop\n      pop\n      swap1\n      pop\n      dup3\n      jump\t// out\n    tag_139:\n      pop\n      dup1\n      sload\n      tag_148\n      swap1\n      tag_109\n      jump\t// in\n    tag_148:\n      0x00\n      dup3\n      sstore\n      dup1\n      0x1f\n      lt\n      tag_150\n      jumpi\n      pop\n      jump(tag_149)\n    tag_150:\n      0x1f\n      add\n      0x20\n      swap1\n      div\n      swap1\n      0x00\n      mstore\n      keccak256(0x00, 0x20)\n      swap1\n      dup2\n      add\n      swap1\n      tag_151\n      swap2\n      swap1\n      tag_152\n      jump\t// in\n    tag_151:\n    tag_149:\n      pop\n      jump\t// out\n    tag_152:\n    tag_153:\n      dup1\n      dup3\n      gt\n      iszero\n      tag_154\n      jumpi\n      0x00\n      dup2\n      0x00\n      swap1\n      sstore\n      pop\n      0x01\n      add\n      jump(tag_153)\n    tag_154:\n      pop\n      swap1\n      jump\t// out\n        /* \"#utility.yul\":7:97   */\n    tag_155:\n        /* \"#utility.yul\":41:48   */\n      0x00\n        /* \"#utility.yul\":84:89   */\n      dup2\n        /* \"#utility.yul\":77:90   */\n      iszero\n        /* \"#utility.yul\":70:91   */\n      iszero\n        /* \"#utility.yul\":59:91   */\n      swap1\n      pop\n        /* \"#utility.yul\":7:97   */\n      swap2\n      swap1\n      pop\n      jump\t// out\n        /* \"#utility.yul\":103:212   */\n    tag_156:\n        /* \"#utility.yul\":184:205   */\n      tag_221\n        /* \"#utility.yul\":199:204   */\n      dup2\n        /* \"#utility.yul\":184:205   */\n      tag_155\n      jump\t// in\n    tag_221:\n        /* \"#utility.yul\":179:182   */\n      dup3\n        /* \"#utility.yul\":172:206   */\n      mstore\n        /* \"#utility.yul\":103:212   */\n      pop\n      pop\n      jump\t// out\n        /* \"#utility.yul\":218:428   */\n    tag_17:\n        /* \"#utility.yul\":305:309   */\n      0x00\n        /* \"#utility.yul\":343:345   */\n      0x20\n        /* \"#utility.yul\":332:341   */\n      dup3\n        /* \"#utility.yul\":328:346   */\n      add\n        /* \"#utility.yul\":320:346   */\n      swap1\n      pop\n        /* \"#utility.yul\":356:421   */\n      tag_223\n        /* \"#utility.yul\":418:419   */\n      0x00\n        /* \"#utility.yul\":407:416   */\n      dup4\n        /* \"#utility.yul\":403:420   */\n      add\n        /* \"#utility.yul\":394:400   */\n      dup5\n        /* \"#utility.yul\":356:421   */\n      tag_156\n      jump\t// in\n    tag_223:\n        /* \"#utility.yul\":218:428   */\n      swap3\n      swap2\n      pop\n      pop\n      jump\t// out\n        /* \"#utility.yul\":515:632   */\n    tag_158:\n        /* \"#utility.yul\":624:625   */\n      0x00\n        /* \"#utility.yul\":621:622   */\n      dup1\n        /* \"#utility.yul\":614:626   */\n      revert\n        /* \"#utility.yul\":638:755   */\n    tag_159:\n        /* \"#utility.yul\":747:748   */\n      0x00\n        /* \"#utility.yul\":744:745   */\n      dup1\n        /* \"#utility.yul\":737:749   */\n      revert\n        /* \"#utility.yul\":761:887   */\n    tag_160:\n        /* \"#utility.yul\":798:805   */\n      0x00\n        /* \"#utility.yul\":838:880   */\n      0xffffffffffffffffffffffffffffffffffffffff\n        /* \"#utility.yul\":831:836   */\n      dup3\n        /* \"#utility.yul\":827:881   */\n      and\n        /* \"#utility.yul\":816:881   */\n      swap1\n      pop\n        /* \"#utility.yul\":761:887   */\n      swap2\n      swap1\n      pop\n      jump\t// out\n        /* \"#utility.yul\":893:997   */\n    tag_161:\n        /* \"#utility.yul\":938:945   */\n      0x00\n        /* \"#utility.yul\":967:991   */\n      tag_229\n        /* \"#utility.yul\":985:990   */\n      dup3\n        /* \"#utility.yul\":967:991   */\n      tag_160\n      jump\t// in\n    tag_229:\n        /* \"#utility.yul\":956:991   */\n      swap1\n      pop\n        /* \"#utility.yul\":893:997   */\n      swap2\n      swap1\n      pop\n      jump\t// out\n        /* \"#utility.yul\":1003:1141   */\n    tag_162:\n        /* \"#utility.yul\":1084:1116   */\n      tag_231\n        /* \"#utility.yul\":1110:1115   */\n      dup2\n        /* \"#utility.yul\":1084:1116   */\n      tag_161\n      jump\t// in\n    tag_231:\n        /* \"#utility.yul\":1077:1082   */\n      dup2\n        /* \"#utility.yul\":1074:1117   */\n      eq\n        /* \"#utility.yul\":1064:1135   */\n      tag_232\n      jumpi\n        /* \"#utility.yul\":1131:1132   */\n      0x00\n        /* \"#utility.yul\":1128:1129   */\n      dup1\n        /* \"#utility.yul\":1121:1133   */\n      revert\n        /* \"#utility.yul\":1064:1135   */\n    tag_232:\n        /* \"#utility.yul\":1003:1141   */\n      pop\n      jump\t// out\n        /* \"#utility.yul\":1147:1302   */\n    tag_163:\n        /* \"#utility.yul\":1201:1206   */\n      0x00\n        /* \"#utility.yul\":1239:1245   */\n      dup2\n        /* \"#utility.yul\":1226:1246   */\n      calldataload\n        /* \"#utility.yul\":1217:1246   */\n      swap1\n      pop\n        /* \"#utility.yul\":1255:1296   */\n      tag_234\n        /* \"#utility.yul\":1290:1295   */\n      dup2\n        /* \"#utility.yul\":1255:1296   */\n      tag_162\n      jump\t// in\n    tag_234:\n        /* \"#utility.yul\":1147:1302   */\n      swap3\n      swap2\n      pop\n      pop\n      jump\t// out\n        /* \"#utility.yul\":1308:1425   */\n    tag_164:\n        /* \"#utility.yul\":1417:1418   */\n      0x00\n        /* \"#utility.yul\":1414:1415   */\n      dup1\n        /* \"#utility.yul\":1407:1419   */\n      revert\n        /* \"#utility.yul\":1431:1548   */\n    tag_165:\n        /* \"#utility.yul\":1540:1541   */\n      0x00\n        /* \"#utility.yul\":1537:1538   */\n      dup1\n        /* \"#utility.yul\":1530:1542   */\n      revert\n        /* \"#utility.yul\":1554:1671   */\n    tag_166:\n        /* \"#utility.yul\":1663:1664   */\n      0x00\n        /* \"#utility.yul\":1660:1661   */\n      dup1\n        /* \"#utility.yul\":1653:1665   */\n      revert\n        /* \"#utility.yul\":1691:2244   */\n    tag_167:\n        /* \"#utility.yul\":1749:1757   */\n      0x00\n        /* \"#utility.yul\":1759:1765   */\n      dup1\n        /* \"#utility.yul\":1809:1812   */\n      dup4\n        /* \"#utility.yul\":1802:1806   */\n      0x1f\n        /* \"#utility.yul\":1794:1800   */\n      dup5\n        /* \"#utility.yul\":1790:1807   */\n      add\n        /* \"#utility.yul\":1786:1813   */\n      slt\n        /* \"#utility.yul\":1776:1898   */\n      tag_239\n      jumpi\n        /* \"#utility.yul\":1817:1896   */\n      tag_240\n      tag_164\n      jump\t// in\n    tag_240:\n        /* \"#utility.yul\":1776:1898   */\n    tag_239:\n        /* \"#utility.yul\":1930:1936   */\n      dup3\n        /* \"#utility.yul\":1917:1937   */\n      calldataload\n        /* \"#utility.yul\":1907:1937   */\n      swap1\n      pop\n        /* \"#utility.yul\":1960:1978   */\n      0xffffffffffffffff\n        /* \"#utility.yul\":1952:1958   */\n      dup2\n        /* \"#utility.yul\":1949:1979   */\n      gt\n        /* \"#utility.yul\":1946:2063   */\n      iszero\n      tag_241\n      jumpi\n        /* \"#utility.yul\":1982:2061   */\n      tag_242\n      tag_165\n      jump\t// in\n    tag_242:\n        /* \"#utility.yul\":1946:2063   */\n    tag_241:\n        /* \"#utility.yul\":2096:2100   */\n      0x20\n        /* \"#utility.yul\":2088:2094   */\n      dup4\n        /* \"#utility.yul\":2084:2101   */\n      add\n        /* \"#utility.yul\":2072:2101   */\n      swap2\n      pop\n        /* \"#utility.yul\":2150:2153   */\n      dup4\n        /* \"#utility.yul\":2142:2146   */\n      0x01\n        /* \"#utility.yul\":2134:2140   */\n      dup3\n        /* \"#utility.yul\":2130:2147   */\n      mul\n        /* \"#utility.yul\":2120:2128   */\n      dup4\n        /* \"#utility.yul\":2116:2148   */\n      add\n        /* \"#utility.yul\":2113:2154   */\n      gt\n        /* \"#utility.yul\":2110:2238   */\n      iszero\n      tag_243\n      jumpi\n        /* \"#utility.yul\":2157:2236   */\n      tag_244\n      tag_166\n      jump\t// in\n    tag_244:\n        /* \"#utility.yul\":2110:2238   */\n    tag_243:\n        /* \"#utility.yul\":1691:2244   */\n      swap3\n      pop\n      swap3\n      swap1\n      pop\n      jump\t// out\n        /* \"#utility.yul\":2250:2940   */\n    tag_21:\n        /* \"#utility.yul\":2338:2344   */\n      0x00\n        /* \"#utility.yul\":2346:2352   */\n      dup1\n        /* \"#utility.yul\":2354:2360   */\n      0x00\n        /* \"#utility.yul\":2403:2405   */\n      0x40\n        /* \"#utility.yul\":2391:2400   */\n      dup5\n        /* \"#utility.yul\":2382:2389   */\n      dup7\n        /* \"#utility.yul\":2378:2401   */\n      sub\n        /* \"#utility.yul\":2374:2406   */\n      slt\n        /* \"#utility.yul\":2371:2490   */\n      iszero\n      tag_246\n      jumpi\n        /* \"#utility.yul\":2409:2488   */\n      tag_247\n      tag_158\n      jump\t// in\n    tag_247:\n        /* \"#utility.yul\":2371:2490   */\n    tag_246:\n        /* \"#utility.yul\":2529:2530   */\n      0x00\n        /* \"#utility.yul\":2554:2615   */\n      tag_248\n        /* \"#utility.yul\":2607:2614   */\n      dup7\n        /* \"#utility.yul\":2598:2604   */\n      dup3\n        /* \"#utility.yul\":2587:2596   */\n      dup8\n        /* \"#utility.yul\":2583:2605   */\n      add\n        /* \"#utility.yul\":2554:2615   */\n      tag_163\n      jump\t// in\n    tag_248:\n        /* \"#utility.yul\":2544:2615   */\n      swap4\n      pop\n        /* \"#utility.yul\":2500:2625   */\n      pop\n        /* \"#utility.yul\":2692:2694   */\n      0x20\n        /* \"#utility.yul\":2681:2690   */\n      dup5\n        /* \"#utility.yul\":2677:2695   */\n      add\n        /* \"#utility.yul\":2664:2696   */\n      calldataload\n        /* \"#utility.yul\":2723:2741   */\n      0xffffffffffffffff\n        /* \"#utility.yul\":2715:2721   */\n      dup2\n        /* \"#utility.yul\":2712:2742   */\n      gt\n        /* \"#utility.yul\":2709:2826   */\n      iszero\n      tag_249\n      jumpi\n        /* \"#utility.yul\":2745:2824   */\n      tag_250\n      tag_159\n      jump\t// in\n    tag_250:\n        /* \"#utility.yul\":2709:2826   */\n    tag_249:\n        /* \"#utility.yul\":2858:2923   */\n      tag_251\n        /* \"#utility.yul\":2915:2922   */\n      dup7\n        /* \"#utility.yul\":2906:2912   */\n      dup3\n        /* \"#utility.yul\":2895:2904   */\n      dup8\n        /* \"#utility.yul\":2891:2913   */\n      add\n        /* \"#utility.yul\":2858:2923   */\n      tag_167\n      jump\t// in\n    tag_251:\n        /* \"#utility.yul\":2840:2923   */\n      swap3\n      pop\n      swap3\n      pop\n        /* \"#utility.yul\":2635:2933   */\n      pop\n        /* \"#utility.yul\":2250:2940   */\n      swap3\n      pop\n      swap3\n      pop\n      swap3\n      jump\t// out\n        /* \"#utility.yul\":2971:3547   */\n    tag_168:\n        /* \"#utility.yul\":3052:3060   */\n      0x00\n        /* \"#utility.yul\":3062:3068   */\n      dup1\n        /* \"#utility.yul\":3112:3115   */\n      dup4\n        /* \"#utility.yul\":3105:3109   */\n      0x1f\n        /* \"#utility.yul\":3097:3103   */\n      dup5\n        /* \"#utility.yul\":3093:3110   */\n      add\n        /* \"#utility.yul\":3089:3116   */\n      slt\n        /* \"#utility.yul\":3079:3201   */\n      tag_253\n      jumpi\n        /* \"#utility.yul\":3120:3199   */\n      tag_254\n      tag_164\n      jump\t// in\n    tag_254:\n        /* \"#utility.yul\":3079:3201   */\n    tag_253:\n        /* \"#utility.yul\":3233:3239   */\n      dup3\n        /* \"#utility.yul\":3220:3240   */\n      calldataload\n        /* \"#utility.yul\":3210:3240   */\n      swap1\n      pop\n        /* \"#utility.yul\":3263:3281   */\n      0xffffffffffffffff\n        /* \"#utility.yul\":3255:3261   */\n      dup2\n        /* \"#utility.yul\":3252:3282   */\n      gt\n        /* \"#utility.yul\":3249:3366   */\n      iszero\n      tag_255\n      jumpi\n        /* \"#utility.yul\":3285:3364   */\n      tag_256\n      tag_165\n      jump\t// in\n    tag_256:\n        /* \"#utility.yul\":3249:3366   */\n    tag_255:\n        /* \"#utility.yul\":3399:3403   */\n      0x20\n        /* \"#utility.yul\":3391:3397   */\n      dup4\n        /* \"#utility.yul\":3387:3404   */\n      add\n        /* \"#utility.yul\":3375:3404   */\n      swap2\n      pop\n        /* \"#utility.yul\":3453:3456   */\n      dup4\n        /* \"#utility.yul\":3445:3449   */\n      0x20\n        /* \"#utility.yul\":3437:3443   */\n      dup3\n        /* \"#utility.yul\":3433:3450   */\n      mul\n        /* \"#utility.yul\":3423:3431   */\n      dup4\n        /* \"#utility.yul\":3419:3451   */\n      add\n        /* \"#utility.yul\":3416:3457   */\n      gt\n        /* \"#utility.yul\":3413:3541   */\n      iszero\n      tag_257\n      jumpi\n        /* \"#utility.yul\":3460:3539   */\n      tag_258\n      tag_166\n      jump\t// in\n    tag_258:\n        /* \"#utility.yul\":3413:3541   */\n    tag_257:\n        /* \"#utility.yul\":2971:3547   */\n      swap3\n      pop\n      swap3\n      swap1\n      pop\n      jump\t// out\n        /* \"#utility.yul\":3570:4138   */\n    tag_169:\n        /* \"#utility.yul\":3643:3651   */\n      0x00\n        /* \"#utility.yul\":3653:3659   */\n      dup1\n        /* \"#utility.yul\":3703:3706   */\n      dup4\n        /* \"#utility.yul\":3696:3700   */\n      0x1f\n        /* \"#utility.yul\":3688:3694   */\n      dup5\n        /* \"#utility.yul\":3684:3701   */\n      add\n        /* \"#utility.yul\":3680:3707   */\n      slt\n        /* \"#utility.yul\":3670:3792   */\n      tag_260\n      jumpi\n        /* \"#utility.yul\":3711:3790   */\n      tag_261\n      tag_164\n      jump\t// in\n    tag_261:\n        /* \"#utility.yul\":3670:3792   */\n    tag_260:\n        /* \"#utility.yul\":3824:3830   */\n      dup3\n        /* \"#utility.yul\":3811:3831   */\n      calldataload\n        /* \"#utility.yul\":3801:3831   */\n      swap1\n      pop\n        /* \"#utility.yul\":3854:3872   */\n      0xffffffffffffffff\n        /* \"#utility.yul\":3846:3852   */\n      dup2\n        /* \"#utility.yul\":3843:3873   */\n      gt\n        /* \"#utility.yul\":3840:3957   */\n      iszero\n      tag_262\n      jumpi\n        /* \"#utility.yul\":3876:3955   */\n      tag_263\n      tag_165\n      jump\t// in\n    tag_263:\n        /* \"#utility.yul\":3840:3957   */\n    tag_262:\n        /* \"#utility.yul\":3990:3994   */\n      0x20\n        /* \"#utility.yul\":3982:3988   */\n      dup4\n        /* \"#utility.yul\":3978:3995   */\n      add\n        /* \"#utility.yul\":3966:3995   */\n      swap2\n      pop\n        /* \"#utility.yul\":4044:4047   */\n      dup4\n        /* \"#utility.yul\":4036:4040   */\n      0x20\n        /* \"#utility.yul\":4028:4034   */\n      dup3\n        /* \"#utility.yul\":4024:4041   */\n      mul\n        /* \"#utility.yul\":4014:4022   */\n      dup4\n        /* \"#utility.yul\":4010:4042   */\n      add\n        /* \"#utility.yul\":4007:4048   */\n      gt\n        /* \"#utility.yul\":4004:4132   */\n      iszero\n      tag_264\n      jumpi\n        /* \"#utility.yul\":4051:4130   */\n      tag_265\n      tag_166\n      jump\t// in\n    tag_265:\n        /* \"#utility.yul\":4004:4132   */\n    tag_264:\n        /* \"#utility.yul\":3570:4138   */\n      swap3\n      pop\n      swap3\n      swap1\n      pop\n      jump\t// out\n        /* \"#utility.yul\":4144:5094   */\n    tag_31:\n        /* \"#utility.yul\":4274:4280   */\n      0x00\n        /* \"#utility.yul\":4282:4288   */\n      dup1\n        /* \"#utility.yul\":4290:4296   */\n      0x00\n        /* \"#utility.yul\":4298:4304   */\n      dup1\n        /* \"#utility.yul\":4347:4349   */\n      0x40\n        /* \"#utility.yul\":4335:4344   */\n      dup6\n        /* \"#utility.yul\":4326:4333   */\n      dup8\n        /* \"#utility.yul\":4322:4345   */\n      sub\n        /* \"#utility.yul\":4318:4350   */\n      slt\n        /* \"#utility.yul\":4315:4434   */\n      iszero\n      tag_267\n      jumpi\n        /* \"#utility.yul\":4353:4432   */\n      tag_268\n      tag_158\n      jump\t// in\n    tag_268:\n        /* \"#utility.yul\":4315:4434   */\n    tag_267:\n        /* \"#utility.yul\":4501:4502   */\n      0x00\n        /* \"#utility.yul\":4490:4499   */\n      dup6\n        /* \"#utility.yul\":4486:4503   */\n      add\n        /* \"#utility.yul\":4473:4504   */\n      calldataload\n        /* \"#utility.yul\":4531:4549   */\n      0xffffffffffffffff\n        /* \"#utility.yul\":4523:4529   */\n      dup2\n        /* \"#utility.yul\":4520:4550   */\n      gt\n        /* \"#utility.yul\":4517:4634   */\n      iszero\n      tag_269\n      jumpi\n        /* \"#utility.yul\":4553:4632   */\n      tag_270\n      tag_159\n      jump\t// in\n    tag_270:\n        /* \"#utility.yul\":4517:4634   */\n    tag_269:\n        /* \"#utility.yul\":4666:4754   */\n      tag_271\n        /* \"#utility.yul\":4746:4753   */\n      dup8\n        /* \"#utility.yul\":4737:4743   */\n      dup3\n        /* \"#utility.yul\":4726:4735   */\n      dup9\n        /* \"#utility.yul\":4722:4744   */\n      add\n        /* \"#utility.yul\":4666:4754   */\n      tag_168\n      jump\t// in\n    tag_271:\n        /* \"#utility.yul\":4648:4754   */\n      swap5\n      pop\n      swap5\n      pop\n        /* \"#utility.yul\":4444:4764   */\n      pop\n        /* \"#utility.yul\":4831:4833   */\n      0x20\n        /* \"#utility.yul\":4820:4829   */\n      dup6\n        /* \"#utility.yul\":4816:4834   */\n      add\n        /* \"#utility.yul\":4803:4835   */\n      calldataload\n        /* \"#utility.yul\":4862:4880   */\n      0xffffffffffffffff\n        /* \"#utility.yul\":4854:4860   */\n      dup2\n        /* \"#utility.yul\":4851:4881   */\n      gt\n        /* \"#utility.yul\":4848:4965   */\n      iszero\n      tag_272\n      jumpi\n        /* \"#utility.yul\":4884:4963   */\n      tag_273\n      tag_159\n      jump\t// in\n    tag_273:\n        /* \"#utility.yul\":4848:4965   */\n    tag_272:\n        /* \"#utility.yul\":4997:5077   */\n      tag_274\n        /* \"#utility.yul\":5069:5076   */\n      dup8\n        /* \"#utility.yul\":5060:5066   */\n      dup3\n        /* \"#utility.yul\":5049:5058   */\n      dup9\n        /* \"#utility.yul\":5045:5067   */\n      add\n        /* \"#utility.yul\":4997:5077   */\n      tag_169\n      jump\t// in\n    tag_274:\n        /* \"#utility.yul\":4979:5077   */\n      swap3\n      pop\n      swap3\n      pop\n        /* \"#utility.yul\":4774:5087   */\n      pop\n        /* \"#utility.yul\":4144:5094   */\n      swap3\n      swap6\n      swap2\n      swap5\n      pop\n      swap3\n      pop\n      jump\t// out\n        /* \"#utility.yul\":5100:5239   */\n    tag_170:\n        /* \"#utility.yul\":5192:5198   */\n      0x00\n        /* \"#utility.yul\":5226:5231   */\n      dup2\n        /* \"#utility.yul\":5220:5232   */\n      mload\n        /* \"#utility.yul\":5210:5232   */\n      swap1\n      pop\n        /* \"#utility.yul\":5100:5239   */\n      swap2\n      swap1\n      pop\n      jump\t// out\n        /* \"#utility.yul\":5245:5454   */\n    tag_171:\n        /* \"#utility.yul\":5369:5380   */\n      0x00\n        /* \"#utility.yul\":5403:5409   */\n      dup3\n        /* \"#utility.yul\":5398:5401   */\n      dup3\n        /* \"#utility.yul\":5391:5410   */\n      mstore\n        /* \"#utility.yul\":5443:5447   */\n      0x20\n        /* \"#utility.yul\":5438:5441   */\n      dup3\n        /* \"#utility.yul\":5434:5448   */\n      add\n        /* \"#utility.yul\":5419:5448   */\n      swap1\n      pop\n        /* \"#utility.yul\":5245:5454   */\n      swap3\n      swap2\n      pop\n      pop\n      jump\t// out\n        /* \"#utility.yul\":5460:5617   */\n    tag_172:\n        /* \"#utility.yul\":5552:5556   */\n      0x00\n        /* \"#utility.yul\":5575:5578   */\n      dup2\n        /* \"#utility.yul\":5567:5578   */\n      swap1\n      pop\n        /* \"#utility.yul\":5605:5609   */\n      0x20\n        /* \"#utility.yul\":5600:5603   */\n      dup3\n        /* \"#utility.yul\":5596:5610   */\n      add\n        /* \"#utility.yul\":5588:5610   */\n      swap1\n      pop\n        /* \"#utility.yul\":5460:5617   */\n      swap2\n      swap1\n      pop\n      jump\t// out\n        /* \"#utility.yul\":5623:5755   */\n    tag_173:\n        /* \"#utility.yul\":5716:5748   */\n      tag_279\n        /* \"#utility.yul\":5742:5747   */\n      dup2\n        /* \"#utility.yul\":5716:5748   */\n      tag_161\n      jump\t// in\n    tag_279:\n        /* \"#utility.yul\":5711:5714   */\n      dup3\n        /* \"#utility.yul\":5704:5749   */\n      mstore\n        /* \"#utility.yul\":5623:5755   */\n      pop\n      pop\n      jump\t// out\n        /* \"#utility.yul\":5761:5860   */\n    tag_174:\n        /* \"#utility.yul\":5813:5819   */\n      0x00\n        /* \"#utility.yul\":5847:5852   */\n      dup2\n        /* \"#utility.yul\":5841:5853   */\n      mload\n        /* \"#utility.yul\":5831:5853   */\n      swap1\n      pop\n        /* \"#utility.yul\":5761:5860   */\n      swap2\n      swap1\n      pop\n      jump\t// out\n        /* \"#utility.yul\":5866:6025   */\n    tag_175:\n        /* \"#utility.yul\":5940:5951   */\n      0x00\n        /* \"#utility.yul\":5974:5980   */\n      dup3\n        /* \"#utility.yul\":5969:5972   */\n      dup3\n        /* \"#utility.yul\":5962:5981   */\n      mstore\n        /* \"#utility.yul\":6014:6018   */\n      0x20\n        /* \"#utility.yul\":6009:6012   */\n      dup3\n        /* \"#utility.yul\":6005:6019   */\n      add\n        /* \"#utility.yul\":5990:6019   */\n      swap1\n      pop\n        /* \"#utility.yul\":5866:6025   */\n      swap3\n      swap2\n      pop\n      pop\n      jump\t// out\n        /* \"#utility.yul\":6031:6170   */\n    tag_176:\n        /* \"#utility.yul\":6120:6126   */\n      dup3\n        /* \"#utility.yul\":6115:6118   */\n      dup2\n        /* \"#utility.yul\":6110:6113   */\n      dup4\n        /* \"#utility.yul\":6104:6127   */\n      mcopy\n        /* \"#utility.yul\":6161:6162   */\n      0x00\n        /* \"#utility.yul\":6152:6158   */\n      dup4\n        /* \"#utility.yul\":6147:6150   */\n      dup4\n        /* \"#utility.yul\":6143:6159   */\n      add\n        /* \"#utility.yul\":6136:6163   */\n      mstore\n        /* \"#utility.yul\":6031:6170   */\n      pop\n      pop\n      pop\n      jump\t// out\n        /* \"#utility.yul\":6176:6278   */\n    tag_177:\n        /* \"#utility.yul\":6217:6223   */\n      0x00\n        /* \"#utility.yul\":6268:6270   */\n      0x1f\n        /* \"#utility.yul\":6264:6271   */\n      not\n        /* \"#utility.yul\":6259:6261   */\n      0x1f\n        /* \"#utility.yul\":6252:6257   */\n      dup4\n        /* \"#utility.yul\":6248:6262   */\n      add\n        /* \"#utility.yul\":6244:6272   */\n      and\n        /* \"#utility.yul\":6234:6272   */\n      swap1\n      pop\n        /* \"#utility.yul\":6176:6278   */\n      swap2\n      swap1\n      pop\n      jump\t// out\n        /* \"#utility.yul\":6284:6641   */\n    tag_178:\n        /* \"#utility.yul\":6362:6365   */\n      0x00\n        /* \"#utility.yul\":6390:6429   */\n      tag_285\n        /* \"#utility.yul\":6423:6428   */\n      dup3\n        /* \"#utility.yul\":6390:6429   */\n      tag_174\n      jump\t// in\n    tag_285:\n        /* \"#utility.yul\":6445:6506   */\n      tag_286\n        /* \"#utility.yul\":6499:6505   */\n      dup2\n        /* \"#utility.yul\":6494:6497   */\n      dup6\n        /* \"#utility.yul\":6445:6506   */\n      tag_175\n      jump\t// in\n    tag_286:\n        /* \"#utility.yul\":6438:6506   */\n      swap4\n      pop\n        /* \"#utility.yul\":6515:6580   */\n      tag_287\n        /* \"#utility.yul\":6573:6579   */\n      dup2\n        /* \"#utility.yul\":6568:6571   */\n      dup6\n        /* \"#utility.yul\":6561:6565   */\n      0x20\n        /* \"#utility.yul\":6554:6559   */\n      dup7\n        /* \"#utility.yul\":6550:6566   */\n      add\n        /* \"#utility.yul\":6515:6580   */\n      tag_176\n      jump\t// in\n    tag_287:\n        /* \"#utility.yul\":6605:6634   */\n      tag_288\n        /* \"#utility.yul\":6627:6633   */\n      dup2\n        /* \"#utility.yul\":6605:6634   */\n      tag_177\n      jump\t// in\n    tag_288:\n        /* \"#utility.yul\":6600:6603   */\n      dup5\n        /* \"#utility.yul\":6596:6635   */\n      add\n        /* \"#utility.yul\":6589:6635   */\n      swap2\n      pop\n        /* \"#utility.yul\":6366:6641   */\n      pop\n        /* \"#utility.yul\":6284:6641   */\n      swap3\n      swap2\n      pop\n      pop\n      jump\t// out\n        /* \"#utility.yul\":6715:7339   */\n    tag_179:\n        /* \"#utility.yul\":6824:6827   */\n      0x00\n        /* \"#utility.yul\":6860:6864   */\n      0x40\n        /* \"#utility.yul\":6855:6858   */\n      dup4\n        /* \"#utility.yul\":6851:6865   */\n      add\n        /* \"#utility.yul\":6959:6963   */\n      0x00\n        /* \"#utility.yul\":6952:6957   */\n      dup4\n        /* \"#utility.yul\":6948:6964   */\n      add\n        /* \"#utility.yul\":6942:6965   */\n      mload\n        /* \"#utility.yul\":6978:7057   */\n      tag_290\n        /* \"#utility.yul\":7051:7055   */\n      0x00\n        /* \"#utility.yul\":7046:7049   */\n      dup7\n        /* \"#utility.yul\":7042:7056   */\n      add\n        /* \"#utility.yul\":7028:7040   */\n      dup3\n        /* \"#utility.yul\":6978:7057   */\n      tag_173\n      jump\t// in\n    tag_290:\n        /* \"#utility.yul\":6875:7067   */\n      pop\n        /* \"#utility.yul\":7149:7153   */\n      0x20\n        /* \"#utility.yul\":7142:7147   */\n      dup4\n        /* \"#utility.yul\":7138:7154   */\n      add\n        /* \"#utility.yul\":7132:7155   */\n      mload\n        /* \"#utility.yul\":7202:7205   */\n      dup5\n        /* \"#utility.yul\":7196:7200   */\n      dup3\n        /* \"#utility.yul\":7192:7206   */\n      sub\n        /* \"#utility.yul\":7185:7189   */\n      0x20\n        /* \"#utility.yul\":7180:7183   */\n      dup7\n        /* \"#utility.yul\":7176:7190   */\n      add\n        /* \"#utility.yul\":7169:7207   */\n      mstore\n        /* \"#utility.yul\":7228:7301   */\n      tag_291\n        /* \"#utility.yul\":7296:7300   */\n      dup3\n        /* \"#utility.yul\":7282:7294   */\n      dup3\n        /* \"#utility.yul\":7228:7301   */\n      tag_178\n      jump\t// in\n    tag_291:\n        /* \"#utility.yul\":7220:7301   */\n      swap2\n      pop\n        /* \"#utility.yul\":7077:7312   */\n      pop\n        /* \"#utility.yul\":7329:7333   */\n      dup1\n        /* \"#utility.yul\":7322:7333   */\n      swap2\n      pop\n        /* \"#utility.yul\":6829:7339   */\n      pop\n        /* \"#utility.yul\":6715:7339   */\n      swap3\n      swap2\n      pop\n      pop\n      jump\t// out\n        /* \"#utility.yul\":7345:7601   */\n    tag_180:\n        /* \"#utility.yul\":7464:7474   */\n      0x00\n        /* \"#utility.yul\":7499:7595   */\n      tag_293\n        /* \"#utility.yul\":7591:7594   */\n      dup4\n        /* \"#utility.yul\":7583:7589   */\n      dup4\n        /* \"#utility.yul\":7499:7595   */\n      tag_179\n      jump\t// in\n    tag_293:\n        /* \"#utility.yul\":7485:7595   */\n      swap1\n      pop\n        /* \"#utility.yul\":7345:7601   */\n      swap3\n      swap2\n      pop\n      pop\n      jump\t// out\n        /* \"#utility.yul\":7607:7745   */\n    tag_181:\n        /* \"#utility.yul\":7702:7706   */\n      0x00\n        /* \"#utility.yul\":7734:7738   */\n      0x20\n        /* \"#utility.yul\":7729:7732   */\n      dup3\n        /* \"#utility.yul\":7725:7739   */\n      add\n        /* \"#utility.yul\":7717:7739   */\n      swap1\n      pop\n        /* \"#utility.yul\":7607:7745   */\n      swap2\n      swap1\n      pop\n      jump\t// out\n        /* \"#utility.yul\":7823:8934   */\n    tag_182:\n        /* \"#utility.yul\":7992:7995   */\n      0x00\n        /* \"#utility.yul\":8021:8100   */\n      tag_296\n        /* \"#utility.yul\":8094:8099   */\n      dup3\n        /* \"#utility.yul\":8021:8100   */\n      tag_170\n      jump\t// in\n    tag_296:\n        /* \"#utility.yul\":8116:8227   */\n      tag_297\n        /* \"#utility.yul\":8220:8226   */\n      dup2\n        /* \"#utility.yul\":8215:8218   */\n      dup6\n        /* \"#utility.yul\":8116:8227   */\n      tag_171\n      jump\t// in\n    tag_297:\n        /* \"#utility.yul\":8109:8227   */\n      swap4\n      pop\n        /* \"#utility.yul\":8253:8256   */\n      dup4\n        /* \"#utility.yul\":8298:8302   */\n      0x20\n        /* \"#utility.yul\":8290:8296   */\n      dup3\n        /* \"#utility.yul\":8286:8303   */\n      mul\n        /* \"#utility.yul\":8281:8284   */\n      dup6\n        /* \"#utility.yul\":8277:8304   */\n      add\n        /* \"#utility.yul\":8328:8409   */\n      tag_298\n        /* \"#utility.yul\":8403:8408   */\n      dup6\n        /* \"#utility.yul\":8328:8409   */\n      tag_172\n      jump\t// in\n    tag_298:\n        /* \"#utility.yul\":8432:8439   */\n      dup1\n        /* \"#utility.yul\":8463:8464   */\n      0x00\n        /* \"#utility.yul\":8448:8889   */\n    tag_299:\n        /* \"#utility.yul\":8473:8479   */\n      dup6\n        /* \"#utility.yul\":8470:8471   */\n      dup2\n        /* \"#utility.yul\":8467:8480   */\n      lt\n        /* \"#utility.yul\":8448:8889   */\n      iszero\n      tag_301\n      jumpi\n        /* \"#utility.yul\":8544:8553   */\n      dup5\n        /* \"#utility.yul\":8538:8542   */\n      dup5\n        /* \"#utility.yul\":8534:8554   */\n      sub\n        /* \"#utility.yul\":8529:8532   */\n      dup10\n        /* \"#utility.yul\":8522:8555   */\n      mstore\n        /* \"#utility.yul\":8595:8601   */\n      dup2\n        /* \"#utility.yul\":8589:8602   */\n      mload\n        /* \"#utility.yul\":8623:8737   */\n      tag_302\n        /* \"#utility.yul\":8732:8736   */\n      dup6\n        /* \"#utility.yul\":8717:8730   */\n      dup3\n        /* \"#utility.yul\":8623:8737   */\n      tag_180\n      jump\t// in\n    tag_302:\n        /* \"#utility.yul\":8615:8737   */\n      swap5\n      pop\n        /* \"#utility.yul\":8760:8845   */\n      tag_303\n        /* \"#utility.yul\":8838:8844   */\n      dup4\n        /* \"#utility.yul\":8760:8845   */\n      tag_181\n      jump\t// in\n    tag_303:\n        /* \"#utility.yul\":8750:8845   */\n      swap3\n      pop\n        /* \"#utility.yul\":8874:8878   */\n      0x20\n        /* \"#utility.yul\":8869:8872   */\n      dup11\n        /* \"#utility.yul\":8865:8879   */\n      add\n        /* \"#utility.yul\":8858:8879   */\n      swap10\n      pop\n        /* \"#utility.yul\":8508:8889   */\n      pop\n        /* \"#utility.yul\":8495:8496   */\n      0x01\n        /* \"#utility.yul\":8492:8493   */\n      dup2\n        /* \"#utility.yul\":8488:8497   */\n      add\n        /* \"#utility.yul\":8483:8497   */\n      swap1\n      pop\n        /* \"#utility.yul\":8448:8889   */\n      jump(tag_299)\n    tag_301:\n        /* \"#utility.yul\":8452:8466   */\n      pop\n        /* \"#utility.yul\":8905:8909   */\n      dup3\n        /* \"#utility.yul\":8898:8909   */\n      swap8\n      pop\n        /* \"#utility.yul\":8925:8928   */\n      dup8\n        /* \"#utility.yul\":8918:8928   */\n      swap6\n      pop\n        /* \"#utility.yul\":7997:8934   */\n      pop\n      pop\n      pop\n      pop\n      pop\n        /* \"#utility.yul\":7823:8934   */\n      swap3\n      swap2\n      pop\n      pop\n      jump\t// out\n        /* \"#utility.yul\":8940:9413   */\n    tag_37:\n        /* \"#utility.yul\":9133:9137   */\n      0x00\n        /* \"#utility.yul\":9171:9173   */\n      0x20\n        /* \"#utility.yul\":9160:9169   */\n      dup3\n        /* \"#utility.yul\":9156:9174   */\n      add\n        /* \"#utility.yul\":9148:9174   */\n      swap1\n      pop\n        /* \"#utility.yul\":9220:9229   */\n      dup2\n        /* \"#utility.yul\":9214:9218   */\n      dup2\n        /* \"#utility.yul\":9210:9230   */\n      sub\n        /* \"#utility.yul\":9206:9207   */\n      0x00\n        /* \"#utility.yul\":9195:9204   */\n      dup4\n        /* \"#utility.yul\":9191:9208   */\n      add\n        /* \"#utility.yul\":9184:9231   */\n      mstore\n        /* \"#utility.yul\":9248:9406   */\n      tag_305\n        /* \"#utility.yul\":9401:9405   */\n      dup2\n        /* \"#utility.yul\":9392:9398   */\n      dup5\n        /* \"#utility.yul\":9248:9406   */\n      tag_182\n      jump\t// in\n    tag_305:\n        /* \"#utility.yul\":9240:9406   */\n      swap1\n      pop\n        /* \"#utility.yul\":8940:9413   */\n      swap3\n      swap2\n      pop\n      pop\n      jump\t// out\n        /* \"#utility.yul\":9419:9515   */\n    tag_183:\n        /* \"#utility.yul\":9456:9463   */\n      0x00\n        /* \"#utility.yul\":9485:9509   */\n      tag_307\n        /* \"#utility.yul\":9503:9508   */\n      dup3\n        /* \"#utility.yul\":9485:9509   */\n      tag_160\n      jump\t// in\n    tag_307:\n        /* \"#utility.yul\":9474:9509   */\n      swap1\n      pop\n        /* \"#utility.yul\":9419:9515   */\n      swap2\n      swap1\n      pop\n      jump\t// out\n        /* \"#utility.yul\":9521:9643   */\n    tag_184:\n        /* \"#utility.yul\":9594:9618   */\n      tag_309\n        /* \"#utility.yul\":9612:9617   */\n      dup2\n        /* \"#utility.yul\":9594:9618   */\n      tag_183\n      jump\t// in\n    tag_309:\n        /* \"#utility.yul\":9587:9592   */\n      dup2\n        /* \"#utility.yul\":9584:9619   */\n      eq\n        /* \"#utility.yul\":9574:9637   */\n      tag_310\n      jumpi\n        /* \"#utility.yul\":9633:9634   */\n      0x00\n        /* \"#utility.yul\":9630:9631   */\n      dup1\n        /* \"#utility.yul\":9623:9635   */\n      revert\n        /* \"#utility.yul\":9574:9637   */\n    tag_310:\n        /* \"#utility.yul\":9521:9643   */\n      pop\n      jump\t// out\n        /* \"#utility.yul\":9649:9788   */\n    tag_185:\n        /* \"#utility.yul\":9695:9700   */\n      0x00\n        /* \"#utility.yul\":9733:9739   */\n      dup2\n        /* \"#utility.yul\":9720:9740   */\n      calldataload\n        /* \"#utility.yul\":9711:9740   */\n      swap1\n      pop\n        /* \"#utility.yul\":9749:9782   */\n      tag_312\n        /* \"#utility.yul\":9776:9781   */\n      dup2\n        /* \"#utility.yul\":9749:9782   */\n      tag_184\n      jump\t// in\n    tag_312:\n        /* \"#utility.yul\":9649:9788   */\n      swap3\n      swap2\n      pop\n      pop\n      jump\t// out\n        /* \"#utility.yul\":9794:10123   */\n    tag_41:\n        /* \"#utility.yul\":9853:9859   */\n      0x00\n        /* \"#utility.yul\":9902:9904   */\n      0x20\n        /* \"#utility.yul\":9890:9899   */\n      dup3\n        /* \"#utility.yul\":9881:9888   */\n      dup5\n        /* \"#utility.yul\":9877:9900   */\n      sub\n        /* \"#utility.yul\":9873:9905   */\n      slt\n        /* \"#utility.yul\":9870:9989   */\n      iszero\n      tag_314\n      jumpi\n        /* \"#utility.yul\":9908:9987   */\n      tag_315\n      tag_158\n      jump\t// in\n    tag_315:\n        /* \"#utility.yul\":9870:9989   */\n    tag_314:\n        /* \"#utility.yul\":10028:10029   */\n      0x00\n        /* \"#utility.yul\":10053:10106   */\n      tag_316\n        /* \"#utility.yul\":10098:10105   */\n      dup5\n        /* \"#utility.yul\":10089:10095   */\n      dup3\n        /* \"#utility.yul\":10078:10087   */\n      dup6\n        /* \"#utility.yul\":10074:10096   */\n      add\n        /* \"#utility.yul\":10053:10106   */\n      tag_185\n      jump\t// in\n    tag_316:\n        /* \"#utility.yul\":10043:10106   */\n      swap2\n      pop\n        /* \"#utility.yul\":9999:10116   */\n      pop\n        /* \"#utility.yul\":9794:10123   */\n      swap3\n      swap2\n      pop\n      pop\n      jump\t// out\n        /* \"#utility.yul\":10129:10206   */\n    tag_186:\n        /* \"#utility.yul\":10166:10173   */\n      0x00\n        /* \"#utility.yul\":10195:10200   */\n      dup2\n        /* \"#utility.yul\":10184:10200   */\n      swap1\n      pop\n        /* \"#utility.yul\":10129:10206   */\n      swap2\n      swap1\n      pop\n      jump\t// out\n        /* \"#utility.yul\":10212:10330   */\n    tag_187:\n        /* \"#utility.yul\":10299:10323   */\n      tag_319\n        /* \"#utility.yul\":10317:10322   */\n      dup2\n        /* \"#utility.yul\":10299:10323   */\n      tag_186\n      jump\t// in\n    tag_319:\n        /* \"#utility.yul\":10294:10297   */\n      dup3\n        /* \"#utility.yul\":10287:10324   */\n      mstore\n        /* \"#utility.yul\":10212:10330   */\n      pop\n      pop\n      jump\t// out\n        /* \"#utility.yul\":10336:10558   */\n    tag_47:\n        /* \"#utility.yul\":10429:10433   */\n      0x00\n        /* \"#utility.yul\":10467:10469   */\n      0x20\n        /* \"#utility.yul\":10456:10465   */\n      dup3\n        /* \"#utility.yul\":10452:10470   */\n      add\n        /* \"#utility.yul\":10444:10470   */\n      swap1\n      pop\n        /* \"#utility.yul\":10480:10551   */\n      tag_321\n        /* \"#utility.yul\":10548:10549   */\n      0x00\n        /* \"#utility.yul\":10537:10546   */\n      dup4\n        /* \"#utility.yul\":10533:10550   */\n      add\n        /* \"#utility.yul\":10524:10530   */\n      dup5\n        /* \"#utility.yul\":10480:10551   */\n      tag_187\n      jump\t// in\n    tag_321:\n        /* \"#utility.yul\":10336:10558   */\n      swap3\n      swap2\n      pop\n      pop\n      jump\t// out\n        /* \"#utility.yul\":10564:10686   */\n    tag_188:\n        /* \"#utility.yul\":10637:10661   */\n      tag_323\n        /* \"#utility.yul\":10655:10660   */\n      dup2\n        /* \"#utility.yul\":10637:10661   */\n      tag_186\n      jump\t// in\n    tag_323:\n        /* \"#utility.yul\":10630:10635   */\n      dup2\n        /* \"#utility.yul\":10627:10662   */\n      eq\n        /* \"#utility.yul\":10617:10680   */\n      tag_324\n      jumpi\n        /* \"#utility.yul\":10676:10677   */\n      0x00\n        /* \"#utility.yul\":10673:10674   */\n      dup1\n        /* \"#utility.yul\":10666:10678   */\n      revert\n        /* \"#utility.yul\":10617:10680   */\n    tag_324:\n        /* \"#utility.yul\":10564:10686   */\n      pop\n      jump\t// out\n        /* \"#utility.yul\":10692:10831   */\n    tag_189:\n        /* \"#utility.yul\":10738:10743   */\n      0x00\n        /* \"#utility.yul\":10776:10782   */\n      dup2\n        /* \"#utility.yul\":10763:10783   */\n      calldataload\n        /* \"#utility.yul\":10754:10783   */\n      swap1\n      pop\n        /* \"#utility.yul\":10792:10825   */\n      tag_326\n        /* \"#utility.yul\":10819:10824   */\n      dup2\n        /* \"#utility.yul\":10792:10825   */\n      tag_188\n      jump\t// in\n    tag_326:\n        /* \"#utility.yul\":10692:10831   */\n      swap3\n      swap2\n      pop\n      pop\n      jump\t// out\n        /* \"#utility.yul\":10837:11166   */\n    tag_55:\n        /* \"#utility.yul\":10896:10902   */\n      0x00\n        /* \"#utility.yul\":10945:10947   */\n      0x20\n        /* \"#utility.yul\":10933:10942   */\n      dup3\n        /* \"#utility.yul\":10924:10931   */\n      dup5\n        /* \"#utility.yul\":10920:10943   */\n      sub\n        /* \"#utility.yul\":10916:10948   */\n      slt\n        /* \"#utility.yul\":10913:11032   */\n      iszero\n      tag_328\n      jumpi\n        /* \"#utility.yul\":10951:11030   */\n      tag_329\n      tag_158\n      jump\t// in\n    tag_329:\n        /* \"#utility.yul\":10913:11032   */\n    tag_328:\n        /* \"#utility.yul\":11071:11072   */\n      0x00\n        /* \"#utility.yul\":11096:11149   */\n      tag_330\n        /* \"#utility.yul\":11141:11148   */\n      dup5\n        /* \"#utility.yul\":11132:11138   */\n      dup3\n        /* \"#utility.yul\":11121:11130   */\n      dup6\n        /* \"#utility.yul\":11117:11139   */\n      add\n        /* \"#utility.yul\":11096:11149   */\n      tag_189\n      jump\t// in\n    tag_330:\n        /* \"#utility.yul\":11086:11149   */\n      swap2\n      pop\n        /* \"#utility.yul\":11042:11159   */\n      pop\n        /* \"#utility.yul\":10837:11166   */\n      swap3\n      swap2\n      pop\n      pop\n      jump\t// out\n        /* \"#utility.yul\":11172:11314   */\n    tag_190:\n        /* \"#utility.yul\":11275:11307   */\n      tag_332\n        /* \"#utility.yul\":11301:11306   */\n      dup2\n        /* \"#utility.yul\":11275:11307   */\n      tag_161\n      jump\t// in\n    tag_332:\n        /* \"#utility.yul\":11270:11273   */\n      dup3\n        /* \"#utility.yul\":11263:11308   */\n      mstore\n        /* \"#utility.yul\":11172:11314   */\n      pop\n      pop\n      jump\t// out\n        /* \"#utility.yul\":11320:11489   */\n    tag_191:\n        /* \"#utility.yul\":11404:11415   */\n      0x00\n        /* \"#utility.yul\":11438:11444   */\n      dup3\n        /* \"#utility.yul\":11433:11436   */\n      dup3\n        /* \"#utility.yul\":11426:11445   */\n      mstore\n        /* \"#utility.yul\":11478:11482   */\n      0x20\n        /* \"#utility.yul\":11473:11476   */\n      dup3\n        /* \"#utility.yul\":11469:11483   */\n      add\n        /* \"#utility.yul\":11454:11483   */\n      swap1\n      pop\n        /* \"#utility.yul\":11320:11489   */\n      swap3\n      swap2\n      pop\n      pop\n      jump\t// out\n        /* \"#utility.yul\":11495:11872   */\n    tag_192:\n        /* \"#utility.yul\":11583:11586   */\n      0x00\n        /* \"#utility.yul\":11611:11650   */\n      tag_335\n        /* \"#utility.yul\":11644:11649   */\n      dup3\n        /* \"#utility.yul\":11611:11650   */\n      tag_174\n      jump\t// in\n    tag_335:\n        /* \"#utility.yul\":11666:11737   */\n      tag_336\n        /* \"#utility.yul\":11730:11736   */\n      dup2\n        /* \"#utility.yul\":11725:11728   */\n      dup6\n        /* \"#utility.yul\":11666:11737   */\n      tag_191\n      jump\t// in\n    tag_336:\n        /* \"#utility.yul\":11659:11737   */\n      swap4\n      pop\n        /* \"#utility.yul\":11746:11811   */\n      tag_337\n        /* \"#utility.yul\":11804:11810   */\n      dup2\n        /* \"#utility.yul\":11799:11802   */\n      dup6\n        /* \"#utility.yul\":11792:11796   */\n      0x20\n        /* \"#utility.yul\":11785:11790   */\n      dup7\n        /* \"#utility.yul\":11781:11797   */\n      add\n        /* \"#utility.yul\":11746:11811   */\n      tag_176\n      jump\t// in\n    tag_337:\n        /* \"#utility.yul\":11836:11865   */\n      tag_338\n        /* \"#utility.yul\":11858:11864   */\n      dup2\n        /* \"#utility.yul\":11836:11865   */\n      tag_177\n      jump\t// in\n    tag_338:\n        /* \"#utility.yul\":11831:11834   */\n      dup5\n        /* \"#utility.yul\":11827:11866   */\n      add\n        /* \"#utility.yul\":11820:11866   */\n      swap2\n      pop\n        /* \"#utility.yul\":11587:11872   */\n      pop\n        /* \"#utility.yul\":11495:11872   */\n      swap3\n      swap2\n      pop\n      pop\n      jump\t// out\n        /* \"#utility.yul\":11878:12333   */\n    tag_58:\n        /* \"#utility.yul\":12035:12039   */\n      0x00\n        /* \"#utility.yul\":12073:12075   */\n      0x40\n        /* \"#utility.yul\":12062:12071   */\n      dup3\n        /* \"#utility.yul\":12058:12076   */\n      add\n        /* \"#utility.yul\":12050:12076   */\n      swap1\n      pop\n        /* \"#utility.yul\":12086:12173   */\n      tag_340\n        /* \"#utility.yul\":12170:12171   */\n      0x00\n        /* \"#utility.yul\":12159:12168   */\n      dup4\n        /* \"#utility.yul\":12155:12172   */\n      add\n        /* \"#utility.yul\":12146:12152   */\n      dup6\n        /* \"#utility.yul\":12086:12173   */\n      tag_190\n      jump\t// in\n    tag_340:\n        /* \"#utility.yul\":12220:12229   */\n      dup2\n        /* \"#utility.yul\":12214:12218   */\n      dup2\n        /* \"#utility.yul\":12210:12230   */\n      sub\n        /* \"#utility.yul\":12205:12207   */\n      0x20\n        /* \"#utility.yul\":12194:12203   */\n      dup4\n        /* \"#utility.yul\":12190:12208   */\n      add\n        /* \"#utility.yul\":12183:12231   */\n      mstore\n        /* \"#utility.yul\":12248:12326   */\n      tag_341\n        /* \"#utility.yul\":12321:12325   */\n      dup2\n        /* \"#utility.yul\":12312:12318   */\n      dup5\n        /* \"#utility.yul\":12248:12326   */\n      tag_192\n      jump\t// in\n    tag_341:\n        /* \"#utility.yul\":12240:12326   */\n      swap1\n      pop\n        /* \"#utility.yul\":11878:12333   */\n      swap4\n      swap3\n      pop\n      pop\n      pop\n      jump\t// out\n        /* \"#utility.yul\":12339:12519   */\n    tag_193:\n        /* \"#utility.yul\":12387:12464   */\n      0x4e487b7100000000000000000000000000000000000000000000000000000000\n        /* \"#utility.yul\":12384:12385   */\n      0x00\n        /* \"#utility.yul\":12377:12465   */\n      mstore\n        /* \"#utility.yul\":12484:12488   */\n      0x11\n        /* \"#utility.yul\":12481:12482   */\n      0x04\n        /* \"#utility.yul\":12474:12489   */\n      mstore\n        /* \"#utility.yul\":12508:12512   */\n      0x24\n        /* \"#utility.yul\":12505:12506   */\n      0x00\n        /* \"#utility.yul\":12498:12513   */\n      revert\n        /* \"#utility.yul\":12525:12719   */\n    tag_61:\n        /* \"#utility.yul\":12565:12569   */\n      0x00\n        /* \"#utility.yul\":12585:12605   */\n      tag_344\n        /* \"#utility.yul\":12603:12604   */\n      dup3\n        /* \"#utility.yul\":12585:12605   */\n      tag_186\n      jump\t// in\n    tag_344:\n        /* \"#utility.yul\":12580:12605   */\n      swap2\n      pop\n        /* \"#utility.yul\":12619:12639   */\n      tag_345\n        /* \"#utility.yul\":12637:12638   */\n      dup4\n        /* \"#utility.yul\":12619:12639   */\n      tag_186\n      jump\t// in\n    tag_345:\n        /* \"#utility.yul\":12614:12639   */\n      swap3\n      pop\n        /* \"#utility.yul\":12663:12664   */\n      dup3\n        /* \"#utility.yul\":12660:12661   */\n      dup3\n        /* \"#utility.yul\":12656:12665   */\n      sub\n        /* \"#utility.yul\":12648:12665   */\n      swap1\n      pop\n        /* \"#utility.yul\":12687:12688   */\n      dup2\n        /* \"#utility.yul\":12681:12685   */\n      dup2\n        /* \"#utility.yul\":12678:12689   */\n      gt\n        /* \"#utility.yul\":12675:12712   */\n      iszero\n      tag_346\n      jumpi\n        /* \"#utility.yul\":12692:12710   */\n      tag_347\n      tag_193\n      jump\t// in\n    tag_347:\n        /* \"#utility.yul\":12675:12712   */\n    tag_346:\n        /* \"#utility.yul\":12525:12719   */\n      swap3\n      swap2\n      pop\n      pop\n      jump\t// out\n        /* \"#utility.yul\":12725:12949   */\n    tag_194:\n        /* \"#utility.yul\":12865:12899   */\n      0x4f6e6c7920746865206f776e65722063616e2063616c6c20746869732066756e\n        /* \"#utility.yul\":12861:12862   */\n      0x00\n        /* \"#utility.yul\":12853:12859   */\n      dup3\n        /* \"#utility.yul\":12849:12863   */\n      add\n        /* \"#utility.yul\":12842:12900   */\n      mstore\n        /* \"#utility.yul\":12934:12941   */\n      0x6374696f6e000000000000000000000000000000000000000000000000000000\n        /* \"#utility.yul\":12929:12931   */\n      0x20\n        /* \"#utility.yul\":12921:12927   */\n      dup3\n        /* \"#utility.yul\":12917:12932   */\n      add\n        /* \"#utility.yul\":12910:12942   */\n      mstore\n        /* \"#utility.yul\":12725:12949   */\n      pop\n      jump\t// out\n        /* \"#utility.yul\":12955:13321   */\n    tag_195:\n        /* \"#utility.yul\":13097:13100   */\n      0x00\n        /* \"#utility.yul\":13118:13185   */\n      tag_350\n        /* \"#utility.yul\":13182:13184   */\n      0x25\n        /* \"#utility.yul\":13177:13180   */\n      dup4\n        /* \"#utility.yul\":13118:13185   */\n      tag_191\n      jump\t// in\n    tag_350:\n        /* \"#utility.yul\":13111:13185   */\n      swap2\n      pop\n        /* \"#utility.yul\":13194:13287   */\n      tag_351\n        /* \"#utility.yul\":13283:13286   */\n      dup3\n        /* \"#utility.yul\":13194:13287   */\n      tag_194\n      jump\t// in\n    tag_351:\n        /* \"#utility.yul\":13312:13314   */\n      0x40\n        /* \"#utility.yul\":13307:13310   */\n      dup3\n        /* \"#utility.yul\":13303:13315   */\n      add\n        /* \"#utility.yul\":13296:13315   */\n      swap1\n      pop\n        /* \"#utility.yul\":12955:13321   */\n      swap2\n      swap1\n      pop\n      jump\t// out\n        /* \"#utility.yul\":13327:13746   */\n    tag_65:\n        /* \"#utility.yul\":13493:13497   */\n      0x00\n        /* \"#utility.yul\":13531:13533   */\n      0x20\n        /* \"#utility.yul\":13520:13529   */\n      dup3\n        /* \"#utility.yul\":13516:13534   */\n      add\n        /* \"#utility.yul\":13508:13534   */\n      swap1\n      pop\n        /* \"#utility.yul\":13580:13589   */\n      dup2\n        /* \"#utility.yul\":13574:13578   */\n      dup2\n        /* \"#utility.yul\":13570:13590   */\n      sub\n        /* \"#utility.yul\":13566:13567   */\n      0x00\n        /* \"#utility.yul\":13555:13564   */\n      dup4\n        /* \"#utility.yul\":13551:13568   */\n      add\n        /* \"#utility.yul\":13544:13591   */\n      mstore\n        /* \"#utility.yul\":13608:13739   */\n      tag_353\n        /* \"#utility.yul\":13734:13738   */\n      dup2\n        /* \"#utility.yul\":13608:13739   */\n      tag_195\n      jump\t// in\n    tag_353:\n        /* \"#utility.yul\":13600:13739   */\n      swap1\n      pop\n        /* \"#utility.yul\":13327:13746   */\n      swap2\n      swap1\n      pop\n      jump\t// out\n        /* \"#utility.yul\":13752:13932   */\n    tag_196:\n        /* \"#utility.yul\":13800:13877   */\n      0x4e487b7100000000000000000000000000000000000000000000000000000000\n        /* \"#utility.yul\":13797:13798   */\n      0x00\n        /* \"#utility.yul\":13790:13878   */\n      mstore\n        /* \"#utility.yul\":13897:13901   */\n      0x41\n        /* \"#utility.yul\":13894:13895   */\n      0x04\n        /* \"#utility.yul\":13887:13902   */\n      mstore\n        /* \"#utility.yul\":13921:13925   */\n      0x24\n        /* \"#utility.yul\":13918:13919   */\n      0x00\n        /* \"#utility.yul\":13911:13926   */\n      revert\n        /* \"#utility.yul\":13938:14118   */\n    tag_197:\n        /* \"#utility.yul\":13986:14063   */\n      0x4e487b7100000000000000000000000000000000000000000000000000000000\n        /* \"#utility.yul\":13983:13984   */\n      0x00\n        /* \"#utility.yul\":13976:14064   */\n      mstore\n        /* \"#utility.yul\":14083:14087   */\n      0x22\n        /* \"#utility.yul\":14080:14081   */\n      0x04\n        /* \"#utility.yul\":14073:14088   */\n      mstore\n        /* \"#utility.yul\":14107:14111   */\n      0x24\n        /* \"#utility.yul\":14104:14105   */\n      0x00\n        /* \"#utility.yul\":14097:14112   */\n      revert\n        /* \"#utility.yul\":14124:14444   */\n    tag_109:\n        /* \"#utility.yul\":14168:14174   */\n      0x00\n        /* \"#utility.yul\":14205:14206   */\n      0x02\n        /* \"#utility.yul\":14199:14203   */\n      dup3\n        /* \"#utility.yul\":14195:14207   */\n      div\n        /* \"#utility.yul\":14185:14207   */\n      swap1\n      pop\n        /* \"#utility.yul\":14252:14253   */\n      0x01\n        /* \"#utility.yul\":14246:14250   */\n      dup3\n        /* \"#utility.yul\":14242:14254   */\n      and\n        /* \"#utility.yul\":14273:14291   */\n      dup1\n        /* \"#utility.yul\":14263:14344   */\n      tag_357\n      jumpi\n        /* \"#utility.yul\":14329:14333   */\n      0x7f\n        /* \"#utility.yul\":14321:14327   */\n      dup3\n        /* \"#utility.yul\":14317:14334   */\n      and\n        /* \"#utility.yul\":14307:14334   */\n      swap2\n      pop\n        /* \"#utility.yul\":14263:14344   */\n    tag_357:\n        /* \"#utility.yul\":14391:14393   */\n      0x20\n        /* \"#utility.yul\":14383:14389   */\n      dup3\n        /* \"#utility.yul\":14380:14394   */\n      lt\n        /* \"#utility.yul\":14360:14378   */\n      dup2\n        /* \"#utility.yul\":14357:14395   */\n      sub\n        /* \"#utility.yul\":14354:14438   */\n      tag_358\n      jumpi\n        /* \"#utility.yul\":14410:14428   */\n      tag_359\n      tag_197\n      jump\t// in\n    tag_359:\n        /* \"#utility.yul\":14354:14438   */\n    tag_358:\n        /* \"#utility.yul\":14175:14444   */\n      pop\n        /* \"#utility.yul\":14124:14444   */\n      swap2\n      swap1\n      pop\n      jump\t// out\n        /* \"#utility.yul\":14450:14591   */\n    tag_198:\n        /* \"#utility.yul\":14499:14503   */\n      0x00\n        /* \"#utility.yul\":14522:14525   */\n      dup2\n        /* \"#utility.yul\":14514:14525   */\n      swap1\n      pop\n        /* \"#utility.yul\":14545:14548   */\n      dup2\n        /* \"#utility.yul\":14542:14543   */\n      0x00\n        /* \"#utility.yul\":14535:14549   */\n      mstore\n        /* \"#utility.yul\":14579:14583   */\n      0x20\n        /* \"#utility.yul\":14576:14577   */\n      0x00\n        /* \"#utility.yul\":14566:14584   */\n      keccak256\n        /* \"#utility.yul\":14558:14584   */\n      swap1\n      pop\n        /* \"#utility.yul\":14450:14591   */\n      swap2\n      swap1\n      pop\n      jump\t// out\n        /* \"#utility.yul\":14597:14690   */\n    tag_199:\n        /* \"#utility.yul\":14634:14640   */\n      0x00\n        /* \"#utility.yul\":14681:14683   */\n      0x20\n        /* \"#utility.yul\":14676:14678   */\n      0x1f\n        /* \"#utility.yul\":14669:14674   */\n      dup4\n        /* \"#utility.yul\":14665:14679   */\n      add\n        /* \"#utility.yul\":14661:14684   */\n      div\n        /* \"#utility.yul\":14651:14684   */\n      swap1\n      pop\n        /* \"#utility.yul\":14597:14690   */\n      swap2\n      swap1\n      pop\n      jump\t// out\n        /* \"#utility.yul\":14696:14803   */\n    tag_200:\n        /* \"#utility.yul\":14740:14748   */\n      0x00\n        /* \"#utility.yul\":14790:14795   */\n      dup3\n        /* \"#utility.yul\":14784:14788   */\n      dup3\n        /* \"#utility.yul\":14780:14796   */\n      shl\n        /* \"#utility.yul\":14759:14796   */\n      swap1\n      pop\n        /* \"#utility.yul\":14696:14803   */\n      swap3\n      swap2\n      pop\n      pop\n      jump\t// out\n        /* \"#utility.yul\":14809:15202   */\n    tag_201:\n        /* \"#utility.yul\":14878:14884   */\n      0x00\n        /* \"#utility.yul\":14928:14929   */\n      0x08\n        /* \"#utility.yul\":14916:14926   */\n      dup4\n        /* \"#utility.yul\":14912:14930   */\n      mul\n        /* \"#utility.yul\":14951:15048   */\n      tag_364\n        /* \"#utility.yul\":14981:15047   */\n      0xffffffffffffffffffffffffffffffffffffffffffffffffffffffffffffffff\n        /* \"#utility.yul\":14970:14979   */\n      dup3\n        /* \"#utility.yul\":14951:15048   */\n      tag_200\n      jump\t// in\n    tag_364:\n        /* \"#utility.yul\":15069:15108   */\n      tag_365\n        /* \"#utility.yul\":15099:15107   */\n      dup7\n        /* \"#utility.yul\":15088:15097   */\n      dup4\n        /* \"#utility.yul\":15069:15108   */\n      tag_200\n      jump\t// in\n    tag_365:\n        /* \"#utility.yul\":15057:15108   */\n      swap6\n      pop\n        /* \"#utility.yul\":15141:15145   */\n      dup1\n        /* \"#utility.yul\":15137:15146   */\n      not\n        /* \"#utility.yul\":15130:15135   */\n      dup5\n        /* \"#utility.yul\":15126:15147   */\n      and\n        /* \"#utility.yul\":15117:15147   */\n      swap4\n      pop\n        /* \"#utility.yul\":15190:15194   */\n      dup1\n        /* \"#utility.yul\":15180:15188   */\n      dup7\n        /* \"#utility.yul\":15176:15195   */\n      and\n        /* \"#utility.yul\":15169:15174   */\n      dup5\n        /* \"#utility.yul\":15166:15196   */\n      or\n        /* \"#utility.yul\":15156:15196   */\n      swap3\n      pop\n        /* \"#utility.yul\":14885:15202   */\n      pop\n      pop\n        /* \"#utility.yul\":14809:15202   */\n      swap4\n      swap3\n      pop\n      pop\n      pop\n      jump\t// out\n        /* \"#utility.yul\":15208:15268   */\n    tag_202:\n        /* \"#utility.yul\":15236:15239   */\n      0x00\n        /* \"#utility.yul\":15257:15262   */\n      dup2\n        /* \"#utility.yul\":15250:15262   */\n      swap1\n      pop\n        /* \"#utility.yul\":15208:15268   */\n      swap2\n      swap1\n      pop\n      jump\t// out\n        /* \"#utility.yul\":15274:15416   */\n    tag_203:\n        /* \"#utility.yul\":15324:15333   */\n      0x00\n        /* \"#utility.yul\":15357:15410   */\n      tag_368\n        /* \"#utility.yul\":15375:15409   */\n      tag_369\n        /* \"#utility.yul\":15384:15408   */\n      tag_370\n        /* \"#utility.yul\":15402:15407   */\n      dup5\n        /* \"#utility.yul\":15384:15408   */\n      tag_186\n      jump\t// in\n    tag_370:\n        /* \"#utility.yul\":15375:15409   */\n      tag_202\n      jump\t// in\n    tag_369:\n        /* \"#utility.yul\":15357:15410   */\n      tag_186\n      jump\t// in\n    tag_368:\n        /* \"#utility.yul\":15344:15410   */\n      swap1\n      pop\n        /* \"#utility.yul\":15274:15416   */\n      swap2\n      swap1\n      pop\n      jump\t// out\n        /* \"#utility.yul\":15422:15497   */\n    tag_204:\n        /* \"#utility.yul\":15465:15468   */\n      0x00\n        /* \"#utility.yul\":15486:15491   */\n      dup2\n        /* \"#utility.yul\":15479:15491   */\n      swap1\n      pop\n        /* \"#utility.yul\":15422:15497   */\n      swap2\n      swap1\n      pop\n      jump\t// out\n        /* \"#utility.yul\":15503:15772   */\n    tag_205:\n        /* \"#utility.yul\":15613:15652   */\n      tag_373\n        /* \"#utility.yul\":15644:15651   */\n      dup4\n        /* \"#utility.yul\":15613:15652   */\n      tag_203\n      jump\t// in\n    tag_373:\n        /* \"#utility.yul\":15674:15765   */\n      tag_374\n        /* \"#utility.yul\":15723:15764   */\n      tag_375\n        /* \"#utility.yul\":15747:15763   */\n      dup3\n        /* \"#utility.yul\":15723:15764   */\n      tag_204\n      jump\t// in\n    tag_375:\n        /* \"#utility.yul\":15715:15721   */\n      dup5\n        /* \"#utility.yul\":15708:15712   */\n      dup5\n        /* \"#utility.yul\":15702:15713   */\n      sload\n        /* \"#utility.yul\":15674:15765   */\n      tag_201\n      jump\t// in\n    tag_374:\n        /* \"#utility.yul\":15668:15672   */\n      dup3\n        /* \"#utility.yul\":15661:15766   */\n      sstore\n        /* \"#utility.yul\":15579:15772   */\n      pop\n        /* \"#utility.yul\":15503:15772   */\n      pop\n      pop\n      pop\n      jump\t// out\n        /* \"#utility.yul\":15778:15851   */\n    tag_206:\n        /* \"#utility.yul\":15823:15826   */\n      0x00\n        /* \"#utility.yul\":15778:15851   */\n      swap1\n      jump\t// out\n        /* \"#utility.yul\":15857:16046   */\n    tag_207:\n        /* \"#utility.yul\":15934:15966   */\n      tag_378\n      tag_206\n      jump\t// in\n    tag_378:\n        /* \"#utility.yul\":15975:16040   */\n      tag_379\n        /* \"#utility.yul\":16033:16039   */\n      dup2\n        /* \"#utility.yul\":16025:16031   */\n      dup5\n        /* \"#utility.yul\":16019:16023   */\n      dup5\n        /* \"#utility.yul\":15975:16040   */\n      tag_205\n      jump\t// in\n    tag_379:\n        /* \"#utility.yul\":15910:16046   */\n      pop\n        /* \"#utility.yul\":15857:16046   */\n      pop\n      pop\n      jump\t// out\n        /* \"#utility.yul\":16052:16238   */\n    tag_208:\n        /* \"#utility.yul\":16112:16232   */\n    tag_381:\n        /* \"#utility.yul\":16129:16132   */\n      dup2\n        /* \"#utility.yul\":16122:16127   */\n      dup2\n        /* \"#utility.yul\":16119:16133   */\n      lt\n        /* \"#utility.yul\":16112:16232   */\n      iszero\n      tag_383\n      jumpi\n        /* \"#utility.yul\":16183:16222   */\n      tag_384\n        /* \"#utility.yul\":16220:16221   */\n      0x00\n        /* \"#utility.yul\":16213:16218   */\n      dup3\n        /* \"#utility.yul\":16183:16222   */\n      tag_207\n      jump\t// in\n    tag_384:\n        /* \"#utility.yul\":16156:16157   */\n      0x01\n        /* \"#utility.yul\":16149:16154   */\n      dup2\n        /* \"#utility.yul\":16145:16158   */\n      add\n        /* \"#utility.yul\":16136:16158   */\n      swap1\n      pop\n        /* \"#utility.yul\":16112:16232   */\n      jump(tag_381)\n    tag_383:\n        /* \"#utility.yul\":16052:16238   */\n      pop\n      pop\n      jump\t// out\n        /* \"#utility.yul\":16244:16787   */\n    tag_209:\n        /* \"#utility.yul\":16345:16347   */\n      0x1f\n        /* \"#utility.yul\":16340:16343   */\n      dup3\n        /* \"#utility.yul\":16337:16348   */\n      gt\n        /* \"#utility.yul\":16334:16780   */\n      iszero\n      tag_386\n      jumpi\n        /* \"#utility.yul\":16379:16417   */\n      tag_387\n        /* \"#utility.yul\":16411:16416   */\n      dup2\n        /* \"#utility.yul\":16379:16417   */\n      tag_198\n      jump\t// in\n    tag_387:\n        /* \"#utility.yul\":16463:16492   */\n      tag_388\n        /* \"#utility.yul\":16481:16491   */\n      dup5\n        /* \"#utility.yul\":16463:16492   */\n      tag_199\n      jump\t// in\n    tag_388:\n        /* \"#utility.yul\":16453:16461   */\n      dup2\n        /* \"#utility.yul\":16449:16493   */\n      add\n        /* \"#utility.yul\":16646:16648   */\n      0x20\n        /* \"#utility.yul\":16634:16644   */\n      dup6\n        /* \"#utility.yul\":16631:16649   */\n      lt\n        /* \"#utility.yul\":16628:16677   */\n      iszero\n      tag_389\n      jumpi\n        /* \"#utility.yul\":16667:16675   */\n      dup2\n        /* \"#utility.yul\":16652:16675   */\n      swap1\n      pop\n        /* \"#utility.yul\":16628:16677   */\n    tag_389:\n        /* \"#utility.yul\":16690:16770   */\n      tag_390\n        /* \"#utility.yul\":16746:16768   */\n      tag_391\n        /* \"#utility.yul\":16764:16767   */\n      dup6\n        /* \"#utility.yul\":16746:16768   */\n      tag_199\n      jump\t// in\n    tag_391:\n        /* \"#utility.yul\":16736:16744   */\n      dup4\n        /* \"#utility.yul\":16732:16769   */\n      add\n        /* \"#utility.yul\":16719:16730   */\n      dup3\n        /* \"#utility.yul\":16690:16770   */\n      tag_208\n      jump\t// in\n    tag_390:\n        /* \"#utility.yul\":16349:16780   */\n      pop\n      pop\n        /* \"#utility.yul\":16334:16780   */\n    tag_386:\n        /* \"#utility.yul\":16244:16787   */\n      pop\n      pop\n      pop\n      jump\t// out\n        /* \"#utility.yul\":16793:16910   */\n    tag_210:\n        /* \"#utility.yul\":16847:16855   */\n      0x00\n        /* \"#utility.yul\":16897:16902   */\n      dup3\n        /* \"#utility.yul\":16891:16895   */\n      dup3\n        /* \"#utility.yul\":16887:16903   */\n      shr\n        /* \"#utility.yul\":16866:16903   */\n      swap1\n      pop\n        /* \"#utility.yul\":16793:16910   */\n      swap3\n      swap2\n      pop\n      pop\n      jump\t// out\n        /* \"#utility.yul\":16916:17085   */\n    tag_211:\n        /* \"#utility.yul\":16960:16966   */\n      0x00\n        /* \"#utility.yul\":16993:17044   */\n      tag_394\n        /* \"#utility.yul\":17041:17042   */\n      0x00\n        /* \"#utility.yul\":17037:17043   */\n      not\n        /* \"#utility.yul\":17029:17034   */\n      dup5\n        /* \"#utility.yul\":17026:17027   */\n      0x08\n        /* \"#utility.yul\":17022:17035   */\n      mul\n        /* \"#utility.yul\":16993:17044   */\n      tag_210\n      jump\t// in\n    tag_394:\n        /* \"#utility.yul\":16989:17045   */\n      not\n        /* \"#utility.yul\":17074:17078   */\n      dup1\n        /* \"#utility.yul\":17068:17072   */\n      dup4\n        /* \"#utility.yul\":17064:17079   */\n      and\n        /* \"#utility.yul\":17054:17079   */\n      swap2\n      pop\n        /* \"#utility.yul\":16967:17085   */\n      pop\n        /* \"#utility.yul\":16916:17085   */\n      swap3\n      swap2\n      pop\n      pop\n      jump\t// out\n        /* \"#utility.yul\":17090:17385   */\n    tag_212:\n        /* \"#utility.yul\":17166:17170   */\n      0x00\n        /* \"#utility.yul\":17312:17341   */\n      tag_396\n        /* \"#utility.yul\":17337:17340   */\n      dup4\n        /* \"#utility.yul\":17331:17335   */\n      dup4\n        /* \"#utility.yul\":17312:17341   */\n      tag_211\n      jump\t// in\n    tag_396:\n        /* \"#utility.yul\":17304:17341   */\n      swap2\n      pop\n        /* \"#utility.yul\":17374:17377   */\n      dup3\n        /* \"#utility.yul\":17371:17372   */\n      0x02\n        /* \"#utility.yul\":17367:17378   */\n      mul\n        /* \"#utility.yul\":17361:17365   */\n      dup3\n        /* \"#utility.yul\":17358:17379   */\n      or\n        /* \"#utility.yul\":17350:17379   */\n      swap1\n      pop\n        /* \"#utility.yul\":17090:17385   */\n      swap3\n      swap2\n      pop\n      pop\n      jump\t// out\n        /* \"#utility.yul\":17390:18785   */\n    tag_69:\n        /* \"#utility.yul\":17507:17544   */\n      tag_398\n        /* \"#utility.yul\":17540:17543   */\n      dup3\n        /* \"#utility.yul\":17507:17544   */\n      tag_174\n      jump\t// in\n    tag_398:\n        /* \"#utility.yul\":17609:17627   */\n      0xffffffffffffffff\n        /* \"#utility.yul\":17601:17607   */\n      dup2\n        /* \"#utility.yul\":17598:17628   */\n      gt\n        /* \"#utility.yul\":17595:17651   */\n      iszero\n      tag_399\n      jumpi\n        /* \"#utility.yul\":17631:17649   */\n      tag_400\n      tag_196\n      jump\t// in\n    tag_400:\n        /* \"#utility.yul\":17595:17651   */\n    tag_399:\n        /* \"#utility.yul\":17675:17713   */\n      tag_401\n        /* \"#utility.yul\":17707:17711   */\n      dup3\n        /* \"#utility.yul\":17701:17712   */\n      sload\n        /* \"#utility.yul\":17675:17713   */\n      tag_109\n      jump\t// in\n    tag_401:\n        /* \"#utility.yul\":17760:17827   */\n      tag_402\n        /* \"#utility.yul\":17820:17826   */\n      dup3\n        /* \"#utility.yul\":17812:17818   */\n      dup3\n        /* \"#utility.yul\":17806:17810   */\n      dup6\n        /* \"#utility.yul\":17760:17827   */\n      tag_209\n      jump\t// in\n    tag_402:\n        /* \"#utility.yul\":17854:17855   */\n      0x00\n        /* \"#utility.yul\":17878:17882   */\n      0x20\n        /* \"#utility.yul\":17865:17882   */\n      swap1\n      pop\n        /* \"#utility.yul\":17910:17912   */\n      0x1f\n        /* \"#utility.yul\":17902:17908   */\n      dup4\n        /* \"#utility.yul\":17899:17913   */\n      gt\n        /* \"#utility.yul\":17927:17928   */\n      0x01\n        /* \"#utility.yul\":17922:18540   */\n      dup2\n      eq\n      tag_404\n      jumpi\n        /* \"#utility.yul\":18584:18585   */\n      0x00\n        /* \"#utility.yul\":18601:18607   */\n      dup5\n        /* \"#utility.yul\":18598:18675   */\n      iszero\n      tag_405\n      jumpi\n        /* \"#utility.yul\":18650:18659   */\n      dup3\n        /* \"#utility.yul\":18645:18648   */\n      dup8\n        /* \"#utility.yul\":18641:18660   */\n      add\n        /* \"#utility.yul\":18635:18661   */\n      mload\n        /* \"#utility.yul\":18626:18661   */\n      swap1\n      pop\n        /* \"#utility.yul\":18598:18675   */\n    tag_405:\n        /* \"#utility.yul\":18701:18768   */\n      tag_406\n        /* \"#utility.yul\":18761:18767   */\n      dup6\n        /* \"#utility.yul\":18754:18759   */\n      dup3\n        /* \"#utility.yul\":18701:18768   */\n      tag_212\n      jump\t// in\n    tag_406:\n        /* \"#utility.yul\":18695:18699   */\n      dup7\n        /* \"#utility.yul\":18688:18769   */\n      sstore\n        /* \"#utility.yul\":18557:18779   */\n      pop\n        /* \"#utility.yul\":17892:18779   */\n      jump(tag_403)\n        /* \"#utility.yul\":17922:18540   */\n    tag_404:\n        /* \"#utility.yul\":17974:17978   */\n      0x1f\n        /* \"#utility.yul\":17970:17979   */\n      not\n        /* \"#utility.yul\":17962:17968   */\n      dup5\n        /* \"#utility.yul\":17958:17980   */\n      and\n        /* \"#utility.yul\":18008:18045   */\n      tag_407\n        /* \"#utility.yul\":18040:18044   */\n      dup7\n        /* \"#utility.yul\":18008:18045   */\n      tag_198\n      jump\t// in\n    tag_407:\n        /* \"#utility.yul\":18067:18068   */\n      0x00\n        /* \"#utility.yul\":18081:18289   */\n    tag_408:\n        /* \"#utility.yul\":18095:18102   */\n      dup3\n        /* \"#utility.yul\":18092:18093   */\n      dup2\n        /* \"#utility.yul\":18089:18103   */\n      lt\n        /* \"#utility.yul\":18081:18289   */\n      iszero\n      tag_410\n      jumpi\n        /* \"#utility.yul\":18174:18183   */\n      dup5\n        /* \"#utility.yul\":18169:18172   */\n      dup10\n        /* \"#utility.yul\":18165:18184   */\n      add\n        /* \"#utility.yul\":18159:18185   */\n      mload\n        /* \"#utility.yul\":18151:18157   */\n      dup3\n        /* \"#utility.yul\":18144:18186   */\n      sstore\n        /* \"#utility.yul\":18225:18226   */\n      0x01\n        /* \"#utility.yul\":18217:18223   */\n      dup3\n        /* \"#utility.yul\":18213:18227   */\n      add\n        /* \"#utility.yul\":18203:18227   */\n      swap2\n      pop\n        /* \"#utility.yul\":18272:18274   */\n      0x20\n        /* \"#utility.yul\":18261:18270   */\n      dup6\n        /* \"#utility.yul\":18257:18275   */\n      add\n        /* \"#utility.yul\":18244:18275   */\n      swap5\n      pop\n        /* \"#utility.yul\":18118:18122   */\n      0x20\n        /* \"#utility.yul\":18115:18116   */\n      dup2\n        /* \"#utility.yul\":18111:18123   */\n      add\n        /* \"#utility.yul\":18106:18123   */\n      swap1\n      pop\n        /* \"#utility.yul\":18081:18289   */\n      jump(tag_408)\n    tag_410:\n        /* \"#utility.yul\":18317:18323   */\n      dup7\n        /* \"#utility.yul\":18308:18315   */\n      dup4\n        /* \"#utility.yul\":18305:18324   */\n      lt\n        /* \"#utility.yul\":18302:18481   */\n      iszero\n      tag_411\n      jumpi\n        /* \"#utility.yul\":18375:18384   */\n      dup5\n        /* \"#utility.yul\":18370:18373   */\n      dup10\n        /* \"#utility.yul\":18366:18385   */\n      add\n        /* \"#utility.yul\":18360:18386   */\n      mload\n        /* \"#utility.yul\":18418:18466   */\n      tag_412\n        /* \"#utility.yul\":18460:18464   */\n      0x1f\n        /* \"#utility.yul\":18452:18458   */\n      dup10\n        /* \"#utility.yul\":18448:18465   */\n      and\n        /* \"#utility.yul\":18437:18446   */\n      dup3\n        /* \"#utility.yul\":18418:18466   */\n      tag_211\n      jump\t// in\n    tag_412:\n        /* \"#utility.yul\":18410:18416   */\n      dup4\n        /* \"#utility.yul\":18403:18467   */\n      sstore\n        /* \"#utility.yul\":18325:18481   */\n      pop\n        /* \"#utility.yul\":18302:18481   */\n    tag_411:\n        /* \"#utility.yul\":18527:18528   */\n      0x01\n        /* \"#utility.yul\":18523:18524   */\n      0x02\n        /* \"#utility.yul\":18515:18521   */\n      dup9\n        /* \"#utility.yul\":18511:18525   */\n      mul\n        /* \"#utility.yul\":18507:18529   */\n      add\n        /* \"#utility.yul\":18501:18505   */\n      dup9\n        /* \"#utility.yul\":18494:18530   */\n      sstore\n        /* \"#utility.yul\":17929:18540   */\n      pop\n      pop\n      pop\n        /* \"#utility.yul\":17892:18779   */\n    tag_403:\n      pop\n        /* \"#utility.yul\":17482:18785   */\n      pop\n      pop\n      pop\n        /* \"#utility.yul\":17390:18785   */\n      pop\n      pop\n      jump\t// out\n        /* \"#utility.yul\":18791:18973   */\n    tag_213:\n        /* \"#utility.yul\":18931:18965   */\n      0x4d69736d6174636865642061646472657373657320616e6420616d6f756e7473\n        /* \"#utility.yul\":18927:18928   */\n      0x00\n        /* \"#utility.yul\":18919:18925   */\n      dup3\n        /* \"#utility.yul\":18915:18929   */\n      add\n        /* \"#utility.yul\":18908:18966   */\n      mstore\n        /* \"#utility.yul\":18791:18973   */\n      pop\n      jump\t// out\n        /* \"#utility.yul\":18979:19345   */\n    tag_214:\n        /* \"#utility.yul\":19121:19124   */\n      0x00\n        /* \"#utility.yul\":19142:19209   */\n      tag_415\n        /* \"#utility.yul\":19206:19208   */\n      0x20\n        /* \"#utility.yul\":19201:19204   */\n      dup4\n        /* \"#utility.yul\":19142:19209   */\n      tag_191\n      jump\t// in\n    tag_415:\n        /* \"#utility.yul\":19135:19209   */\n      swap2\n      pop\n        /* \"#utility.yul\":19218:19311   */\n      tag_416\n        /* \"#utility.yul\":19307:19310   */\n      dup3\n        /* \"#utility.yul\":19218:19311   */\n      tag_213\n      jump\t// in\n    tag_416:\n        /* \"#utility.yul\":19336:19338   */\n      0x20\n        /* \"#utility.yul\":19331:19334   */\n      dup3\n        /* \"#utility.yul\":19327:19339   */\n      add\n        /* \"#utility.yul\":19320:19339   */\n      swap1\n      pop\n        /* \"#utility.yul\":18979:19345   */\n      swap2\n      swap1\n      pop\n      jump\t// out\n        /* \"#utility.yul\":19351:19770   */\n    tag_81:\n        /* \"#utility.yul\":19517:19521   */\n      0x00\n        /* \"#utility.yul\":19555:19557   */\n      0x20\n        /* \"#utility.yul\":19544:19553   */\n      dup3\n        /* \"#utility.yul\":19540:19558   */\n      add\n        /* \"#utility.yul\":19532:19558   */\n      swap1\n      pop\n        /* \"#utility.yul\":19604:19613   */\n      dup2\n        /* \"#utility.yul\":19598:19602   */\n      dup2\n        /* \"#utility.yul\":19594:19614   */\n      sub\n        /* \"#utility.yul\":19590:19591   */\n      0x00\n        /* \"#utility.yul\":19579:19588   */\n      dup4\n        /* \"#utility.yul\":19575:19592   */\n      add\n        /* \"#utility.yul\":19568:19615   */\n      mstore\n        /* \"#utility.yul\":19632:19763   */\n      tag_418\n        /* \"#utility.yul\":19758:19762   */\n      dup2\n        /* \"#utility.yul\":19632:19763   */\n      tag_214\n      jump\t// in\n    tag_418:\n        /* \"#utility.yul\":19624:19763   */\n      swap1\n      pop\n        /* \"#utility.yul\":19351:19770   */\n      swap2\n      swap1\n      pop\n      jump\t// out\n        /* \"#utility.yul\":19776:19956   */\n    tag_87:\n        /* \"#utility.yul\":19824:19901   */\n      0x4e487b7100000000000000000000000000000000000000000000000000000000\n        /* \"#utility.yul\":19821:19822   */\n      0x00\n        /* \"#utility.yul\":19814:19902   */\n      mstore\n        /* \"#utility.yul\":19921:19925   */\n      0x32\n        /* \"#utility.yul\":19918:19919   */\n      0x04\n        /* \"#utility.yul\":19911:19926   */\n      mstore\n        /* \"#utility.yul\":19945:19949   */\n      0x24\n        /* \"#utility.yul\":19942:19943   */\n      0x00\n        /* \"#utility.yul\":19935:19950   */\n      revert\n        /* \"#utility.yul\":19962:20153   */\n    tag_89:\n        /* \"#utility.yul\":20002:20005   */\n      0x00\n        /* \"#utility.yul\":20021:20041   */\n      tag_421\n        /* \"#utility.yul\":20039:20040   */\n      dup3\n        /* \"#utility.yul\":20021:20041   */\n      tag_186\n      jump\t// in\n    tag_421:\n        /* \"#utility.yul\":20016:20041   */\n      swap2\n      pop\n        /* \"#utility.yul\":20055:20075   */\n      tag_422\n        /* \"#utility.yul\":20073:20074   */\n      dup4\n        /* \"#utility.yul\":20055:20075   */\n      tag_186\n      jump\t// in\n    tag_422:\n        /* \"#utility.yul\":20050:20075   */\n      swap3\n      pop\n        /* \"#utility.yul\":20098:20099   */\n      dup3\n        /* \"#utility.yul\":20095:20096   */\n      dup3\n        /* \"#utility.yul\":20091:20100   */\n      add\n        /* \"#utility.yul\":20084:20100   */\n      swap1\n      pop\n        /* \"#utility.yul\":20119:20122   */\n      dup1\n        /* \"#utility.yul\":20116:20117   */\n      dup3\n        /* \"#utility.yul\":20113:20123   */\n      gt\n        /* \"#utility.yul\":20110:20146   */\n      iszero\n      tag_423\n      jumpi\n        /* \"#utility.yul\":20126:20144   */\n      tag_424\n      tag_193\n      jump\t// in\n    tag_424:\n        /* \"#utility.yul\":20110:20146   */\n    tag_423:\n        /* \"#utility.yul\":19962:20153   */\n      swap3\n      swap2\n      pop\n      pop\n      jump\t// out\n        /* \"#utility.yul\":20159:20382   */\n    tag_215:\n        /* \"#utility.yul\":20299:20333   */\n      0x496e73756666696369656e742062616c616e636520696e2074686520636f6e74\n        /* \"#utility.yul\":20295:20296   */\n      0x00\n        /* \"#utility.yul\":20287:20293   */\n      dup3\n        /* \"#utility.yul\":20283:20297   */\n      add\n        /* \"#utility.yul\":20276:20334   */\n      mstore\n        /* \"#utility.yul\":20368:20374   */\n      0x7261637400000000000000000000000000000000000000000000000000000000\n        /* \"#utility.yul\":20363:20365   */\n      0x20\n        /* \"#utility.yul\":20355:20361   */\n      dup3\n        /* \"#utility.yul\":20351:20366   */\n      add\n        /* \"#utility.yul\":20344:20375   */\n      mstore\n        /* \"#utility.yul\":20159:20382   */\n      pop\n      jump\t// out\n        /* \"#utility.yul\":20388:20754   */\n    tag_216:\n        /* \"#utility.yul\":20530:20533   */\n      0x00\n        /* \"#utility.yul\":20551:20618   */\n      tag_427\n        /* \"#utility.yul\":20615:20617   */\n      0x24\n        /* \"#utility.yul\":20610:20613   */\n      dup4\n        /* \"#utility.yul\":20551:20618   */\n      tag_191\n      jump\t// in\n    tag_427:\n        /* \"#utility.yul\":20544:20618   */\n      swap2\n      pop\n        /* \"#utility.yul\":20627:20720   */\n      tag_428\n        /* \"#utility.yul\":20716:20719   */\n      dup3\n        /* \"#utility.yul\":20627:20720   */\n      tag_215\n      jump\t// in\n    tag_428:\n        /* \"#utility.yul\":20745:20747   */\n      0x40\n        /* \"#utility.yul\":20740:20743   */\n      dup3\n        /* \"#utility.yul\":20736:20748   */\n      add\n        /* \"#utility.yul\":20729:20748   */\n      swap1\n      pop\n        /* \"#utility.yul\":20388:20754   */\n      swap2\n      swap1\n      pop\n      jump\t// out\n        /* \"#utility.yul\":20760:21179   */\n    tag_92:\n        /* \"#utility.yul\":20926:20930   */\n      0x00\n        /* \"#utility.yul\":20964:20966   */\n      0x20\n        /* \"#utility.yul\":20953:20962   */\n      dup3\n        /* \"#utility.yul\":20949:20967   */\n      add\n        /* \"#utility.yul\":20941:20967   */\n      swap1\n      pop\n        /* \"#utility.yul\":21013:21022   */\n      dup2\n        /* \"#utility.yul\":21007:21011   */\n      dup2\n        /* \"#utility.yul\":21003:21023   */\n      sub\n        /* \"#utility.yul\":20999:21000   */\n      0x00\n        /* \"#utility.yul\":20988:20997   */\n      dup4\n        /* \"#utility.yul\":20984:21001   */\n      add\n        /* \"#utility.yul\":20977:21024   */\n      mstore\n        /* \"#utility.yul\":21041:21172   */\n      tag_430\n        /* \"#utility.yul\":21167:21171   */\n      dup2\n        /* \"#utility.yul\":21041:21172   */\n      tag_216\n      jump\t// in\n    tag_430:\n        /* \"#utility.yul\":21033:21172   */\n      swap1\n      pop\n        /* \"#utility.yul\":20760:21179   */\n      swap2\n      swap1\n      pop\n      jump\t// out\n        /* \"#utility.yul\":21185:21530   */\n    tag_99:\n        /* \"#utility.yul\":21252:21258   */\n      0x00\n        /* \"#utility.yul\":21301:21303   */\n      0x20\n        /* \"#utility.yul\":21289:21298   */\n      dup3\n        /* \"#utility.yul\":21280:21287   */\n      dup5\n        /* \"#utility.yul\":21276:21299   */\n      sub\n        /* \"#utility.yul\":21272:21304   */\n      slt\n        /* \"#utility.yul\":21269:21388   */\n      iszero\n      tag_432\n      jumpi\n        /* \"#utility.yul\":21307:21386   */\n      tag_433\n      tag_158\n      jump\t// in\n    tag_433:\n        /* \"#utility.yul\":21269:21388   */\n    tag_432:\n        /* \"#utility.yul\":21427:21428   */\n      0x00\n        /* \"#utility.yul\":21452:21513   */\n      tag_434\n        /* \"#utility.yul\":21505:21512   */\n      dup5\n        /* \"#utility.yul\":21496:21502   */\n      dup3\n        /* \"#utility.yul\":21485:21494   */\n      dup6\n        /* \"#utility.yul\":21481:21503   */\n      add\n        /* \"#utility.yul\":21452:21513   */\n      tag_163\n      jump\t// in\n    tag_434:\n        /* \"#utility.yul\":21442:21513   */\n      swap2\n      pop\n        /* \"#utility.yul\":21398:21523   */\n      pop\n        /* \"#utility.yul\":21185:21530   */\n      swap3\n      swap2\n      pop\n      pop\n      jump\t// out\n        /* \"#utility.yul\":21536:21685   */\n    tag_217:\n        /* \"#utility.yul\":21585:21591   */\n      0x00\n        /* \"#utility.yul\":21619:21624   */\n      dup2\n        /* \"#utility.yul\":21613:21625   */\n      sload\n        /* \"#utility.yul\":21603:21625   */\n      swap1\n      pop\n        /* \"#utility.yul\":21645:21678   */\n      tag_436\n        /* \"#utility.yul\":21671:21677   */\n      dup2\n        /* \"#utility.yul\":21645:21678   */\n      tag_109\n      jump\t// in\n    tag_436:\n        /* \"#utility.yul\":21635:21678   */\n      swap1\n      pop\n        /* \"#utility.yul\":21536:21685   */\n      swap2\n      swap1\n      pop\n      jump\t// out\n        /* \"#utility.yul\":21691:23142   */\n    tag_133:\n        /* \"#utility.yul\":21802:21805   */\n      dup2\n        /* \"#utility.yul\":21796:21800   */\n      dup2\n        /* \"#utility.yul\":21793:21806   */\n      sub\n        /* \"#utility.yul\":21790:21816   */\n      tag_438\n      jumpi\n        /* \"#utility.yul\":21809:21814   */\n      pop\n      pop\n      jump(tag_437)\n        /* \"#utility.yul\":21790:21816   */\n    tag_438:\n        /* \"#utility.yul\":21840:21874   */\n      tag_439\n        /* \"#utility.yul\":21870:21873   */\n      dup3\n        /* \"#utility.yul\":21840:21874   */\n      tag_217\n      jump\t// in\n    tag_439:\n        /* \"#utility.yul\":21939:21957   */\n      0xffffffffffffffff\n        /* \"#utility.yul\":21931:21937   */\n      dup2\n        /* \"#utility.yul\":21928:21958   */\n      gt\n        /* \"#utility.yul\":21925:21981   */\n      iszero\n      tag_440\n      jumpi\n        /* \"#utility.yul\":21961:21979   */\n      tag_441\n      tag_196\n      jump\t// in\n    tag_441:\n        /* \"#utility.yul\":21925:21981   */\n    tag_440:\n        /* \"#utility.yul\":22005:22043   */\n      tag_442\n        /* \"#utility.yul\":22037:22041   */\n      dup3\n        /* \"#utility.yul\":22031:22042   */\n      sload\n        /* \"#utility.yul\":22005:22043   */\n      tag_109\n      jump\t// in\n    tag_442:\n        /* \"#utility.yul\":22090:22157   */\n      tag_443\n        /* \"#utility.yul\":22150:22156   */\n      dup3\n        /* \"#utility.yul\":22142:22148   */\n      dup3\n        /* \"#utility.yul\":22136:22140   */\n      dup6\n        /* \"#utility.yul\":22090:22157   */\n      tag_209\n      jump\t// in\n    tag_443:\n        /* \"#utility.yul\":22184:22185   */\n      0x00\n        /* \"#utility.yul\":22213:22215   */\n      0x1f\n        /* \"#utility.yul\":22205:22211   */\n      dup4\n        /* \"#utility.yul\":22202:22216   */\n      gt\n        /* \"#utility.yul\":22230:22231   */\n      0x01\n        /* \"#utility.yul\":22225:22897   */\n      dup2\n      eq\n      tag_445\n      jumpi\n        /* \"#utility.yul\":22941:22942   */\n      0x00\n        /* \"#utility.yul\":22958:22964   */\n      dup5\n        /* \"#utility.yul\":22955:23032   */\n      iszero\n      tag_446\n      jumpi\n        /* \"#utility.yul\":23007:23016   */\n      dup3\n        /* \"#utility.yul\":23002:23005   */\n      dup8\n        /* \"#utility.yul\":22998:23017   */\n      add\n        /* \"#utility.yul\":22992:23018   */\n      sload\n        /* \"#utility.yul\":22983:23018   */\n      swap1\n      pop\n        /* \"#utility.yul\":22955:23032   */\n    tag_446:\n        /* \"#utility.yul\":23058:23125   */\n      tag_447\n        /* \"#utility.yul\":23118:23124   */\n      dup6\n        /* \"#utility.yul\":23111:23116   */\n      dup3\n        /* \"#utility.yul\":23058:23125   */\n      tag_212\n      jump\t// in\n    tag_447:\n        /* \"#utility.yul\":23052:23056   */\n      dup7\n        /* \"#utility.yul\":23045:23126   */\n      sstore\n        /* \"#utility.yul\":22914:23136   */\n      pop\n        /* \"#utility.yul\":22195:23136   */\n      jump(tag_444)\n        /* \"#utility.yul\":22225:22897   */\n    tag_445:\n        /* \"#utility.yul\":22277:22281   */\n      0x1f\n        /* \"#utility.yul\":22273:22282   */\n      not\n        /* \"#utility.yul\":22265:22271   */\n      dup5\n        /* \"#utility.yul\":22261:22283   */\n      and\n        /* \"#utility.yul\":22303:22339   */\n      tag_448\n        /* \"#utility.yul\":22335:22338   */\n      dup8\n        /* \"#utility.yul\":22303:22339   */\n      tag_198\n      jump\t// in\n    tag_448:\n        /* \"#utility.yul\":22296:22339   */\n      swap7\n      pop\n        /* \"#utility.yul\":22366:22403   */\n      tag_449\n        /* \"#utility.yul\":22398:22402   */\n      dup7\n        /* \"#utility.yul\":22366:22403   */\n      tag_198\n      jump\t// in\n    tag_449:\n        /* \"#utility.yul\":22425:22426   */\n      0x00\n        /* \"#utility.yul\":22439:22646   */\n    tag_450:\n        /* \"#utility.yul\":22453:22460   */\n      dup3\n        /* \"#utility.yul\":22450:22451   */\n      dup2\n        /* \"#utility.yul\":22447:22461   */\n      lt\n        /* \"#utility.yul\":22439:22646   */\n      iszero\n      tag_452\n      jumpi\n        /* \"#utility.yul\":22532:22541   */\n      dup5\n        /* \"#utility.yul\":22527:22530   */\n      dup10\n        /* \"#utility.yul\":22523:22542   */\n      add\n        /* \"#utility.yul\":22517:22543   */\n      sload\n        /* \"#utility.yul\":22509:22515   */\n      dup3\n        /* \"#utility.yul\":22502:22544   */\n      sstore\n        /* \"#utility.yul\":22583:22584   */\n      0x01\n        /* \"#utility.yul\":22575:22581   */\n      dup3\n        /* \"#utility.yul\":22571:22585   */\n      add\n        /* \"#utility.yul\":22561:22585   */\n      swap2\n      pop\n        /* \"#utility.yul\":22630:22631   */\n      0x01\n        /* \"#utility.yul\":22619:22628   */\n      dup6\n        /* \"#utility.yul\":22615:22632   */\n      add\n        /* \"#utility.yul\":22602:22632   */\n      swap5\n      pop\n        /* \"#utility.yul\":22476:22480   */\n      0x20\n        /* \"#utility.yul\":22473:22474   */\n      dup2\n        /* \"#utility.yul\":22469:22481   */\n      add\n        /* \"#utility.yul\":22464:22481   */\n      swap1\n      pop\n        /* \"#utility.yul\":22439:22646   */\n      jump(tag_450)\n    tag_452:\n        /* \"#utility.yul\":22674:22680   */\n      dup7\n        /* \"#utility.yul\":22665:22672   */\n      dup4\n        /* \"#utility.yul\":22662:22681   */\n      lt\n        /* \"#utility.yul\":22659:22838   */\n      iszero\n      tag_453\n      jumpi\n        /* \"#utility.yul\":22732:22741   */\n      dup5\n        /* \"#utility.yul\":22727:22730   */\n      dup10\n        /* \"#utility.yul\":22723:22742   */\n      add\n        /* \"#utility.yul\":22717:22743   */\n      sload\n        /* \"#utility.yul\":22775:22823   */\n      tag_454\n        /* \"#utility.yul\":22817:22821   */\n      0x1f\n        /* \"#utility.yul\":22809:22815   */\n      dup10\n        /* \"#utility.yul\":22805:22822   */\n      and\n        /* \"#utility.yul\":22794:22803   */\n      dup3\n        /* \"#utility.yul\":22775:22823   */\n      tag_211\n      jump\t// in\n    tag_454:\n        /* \"#utility.yul\":22767:22773   */\n      dup4\n        /* \"#utility.yul\":22760:22824   */\n      sstore\n        /* \"#utility.yul\":22682:22838   */\n      pop\n        /* \"#utility.yul\":22659:22838   */\n    tag_453:\n        /* \"#utility.yul\":22884:22885   */\n      0x01\n        /* \"#utility.yul\":22880:22881   */\n      0x02\n        /* \"#utility.yul\":22872:22878   */\n      dup9\n        /* \"#utility.yul\":22868:22882   */\n      mul\n        /* \"#utility.yul\":22864:22886   */\n      add\n        /* \"#utility.yul\":22858:22862   */\n      dup9\n        /* \"#utility.yul\":22851:22887   */\n      sstore\n        /* \"#utility.yul\":22232:22897   */\n      pop\n      pop\n      pop\n        /* \"#utility.yul\":22195:23136   */\n    tag_444:\n      pop\n        /* \"#utility.yul\":21780:23142   */\n      pop\n      pop\n      pop\n        /* \"#utility.yul\":21691:23142   */\n      pop\n      pop\n    tag_437:\n      jump\t// out\n        /* \"#utility.yul\":23148:23328   */\n    tag_136:\n        /* \"#utility.yul\":23196:23273   */\n      0x4e487b7100000000000000000000000000000000000000000000000000000000\n        /* \"#utility.yul\":23193:23194   */\n      0x00\n        /* \"#utility.yul\":23186:23274   */\n      mstore\n        /* \"#utility.yul\":23293:23297   */\n      0x31\n        /* \"#utility.yul\":23290:23291   */\n      0x04\n        /* \"#utility.yul\":23283:23298   */\n      mstore\n        /* \"#utility.yul\":23317:23321   */\n      0x24\n        /* \"#utility.yul\":23314:23315   */\n      0x00\n        /* \"#utility.yul\":23307:23322   */\n      revert\n\n    auxdata: 0xa26469706673582212204b1db273b100007d1bbac5154b9b0ce8d01a6a0893a67af2576f8530748a51cd64736f6c634300081a0033\n}\n",
				"bytecode": {
					"linkReferences": {},
					"object": "6080604052348015600e575f80fd5b50335f806101000a81548173ffffffffffffffffffffffffffffffffffffffff021916908373ffffffffffffffffffffffffffffffffffffffff16021790555042600281905550611750806100625f395ff3fe608060405260043610610090575f3560e01c8063ca8fb04111610058578063ca8fb0411461012e578063cf701f3114610158578063d5d319c814610180578063dffdac49146101aa578063f2a314fa146101d457610090565b80634136aa351461009457806369c68311146100be57806387740c0d146100e6578063a26759cb146100fc578063c161c75d14610106575b5f80fd5b34801561009f575f80fd5b506100a8610211565b6040516100b59190610b28565b60405180910390f35b3480156100c9575f80fd5b506100e460048036038101906100df9190610c04565b61022b565b005b3480156100f1575f80fd5b506100fa6103af565b005b610104610445565b005b348015610111575f80fd5b5061012c60048036038101906101279190610d0b565b610447565b005b348015610139575f80fd5b50610142610648565b60405161014f9190610efd565b60405180910390f35b348015610163575f80fd5b5061017e60048036038101906101799190610f58565b610788565b005b34801561018b575f80fd5b506101946109d5565b6040516101a19190610f9b565b60405180910390f35b3480156101b5575f80fd5b506101be6109dc565b6040516101cb9190610f9b565b60405180910390f35b3480156101df575f80fd5b506101fa60048036038101906101f59190610fde565b6109e2565b604051610208929190611060565b60405180910390f35b5f6301e133806002544261022591906110bb565b10905090565b5f8054906101000a900473ffffffffffffffffffffffffffffffffffffffff1673ffffffffffffffffffffffffffffffffffffffff163373ffffffffffffffffffffffffffffffffffffffff16146102b8576040517f08c379a00000000000000000000000000000000000000000000000000000000081526004016102af9061115e565b60405180910390fd5b600160405180604001604052808573ffffffffffffffffffffffffffffffffffffffff16815260200184848080601f0160208091040260200160405190810160405280939291908181526020018383808284375f81840152601f19601f82011690508083019250505050505050815250908060018154018082558091505060019003905f5260205f2090600202015f909190919091505f820151815f015f6101000a81548173ffffffffffffffffffffffffffffffffffffffff021916908373ffffffffffffffffffffffffffffffffffffffff16021790555060208201518160010190816103a791906113a3565b505050505050565b5f8054906101000a900473ffffffffffffffffffffffffffffffffffffffff1673ffffffffffffffffffffffffffffffffffffffff163373ffffffffffffffffffffffffffffffffffffffff161461043c576040517f08c379a00000000000000000000000000000000000000000000000000000000081526004016104339061115e565b60405180910390fd5b42600281905550565b565b5f8054906101000a900473ffffffffffffffffffffffffffffffffffffffff1673ffffffffffffffffffffffffffffffffffffffff163373ffffffffffffffffffffffffffffffffffffffff16146104d4576040517f08c379a00000000000000000000000000000000000000000000000000000000081526004016104cb9061115e565b60405180910390fd5b81819050848490501461051c576040517f08c379a0000000000000000000000000000000000000000000000000000000008152600401610513906114bc565b60405180910390fd5b5f805b8383905081101561055e5783838281811061053d5761053c6114da565b5b905060200201358261054f9190611507565b9150808060010191505061051f565b50478111156105a2576040517f08c379a0000000000000000000000000000000000000000000000000000000008152600401610599906115aa565b60405180910390fd5b5f5b85859050811015610640578585828181106105c2576105c16114da565b5b90506020020160208101906105d791906115c8565b73ffffffffffffffffffffffffffffffffffffffff166108fc858584818110610603576106026114da565b5b9050602002013590811502906040515f60405180830381858888f19350505050158015610632573d5f803e3d5ffd5b5080806001019150506105a4565b505050505050565b60606001805480602002602001604051908101604052809291908181526020015f905b8282101561077f578382905f5260205f2090600202016040518060400160405290815f82015f9054906101000a900473ffffffffffffffffffffffffffffffffffffffff1673ffffffffffffffffffffffffffffffffffffffff1673ffffffffffffffffffffffffffffffffffffffff1681526020016001820180546106f0906111d6565b80601f016020809104026020016040519081016040528092919081815260200182805461071c906111d6565b80156107675780601f1061073e57610100808354040283529160200191610767565b820191905f5260205f20905b81548152906001019060200180831161074a57829003601f168201915b5050505050815250508152602001906001019061066b565b50505050905090565b5f8054906101000a900473ffffffffffffffffffffffffffffffffffffffff1673ffffffffffffffffffffffffffffffffffffffff163373ffffffffffffffffffffffffffffffffffffffff1614610815576040517f08c379a000000000000000000000000000000000000000000000000000000000815260040161080c9061115e565b60405180910390fd5b5f5b6001805490508110156109d1578173ffffffffffffffffffffffffffffffffffffffff166001828154811061084f5761084e6114da565b5b905f5260205f2090600202015f015f9054906101000a900473ffffffffffffffffffffffffffffffffffffffff1673ffffffffffffffffffffffffffffffffffffffff16036109c45760018080805490506108aa91906110bb565b815481106108bb576108ba6114da565b5b905f5260205f209060020201600182815481106108db576108da6114da565b5b905f5260205f2090600202015f82015f9054906101000a900473ffffffffffffffffffffffffffffffffffffffff16815f015f6101000a81548173ffffffffffffffffffffffffffffffffffffffff021916908373ffffffffffffffffffffffffffffffffffffffff1602179055506001820181600101908161095e9190611608565b509050506001805480610974576109736116ed565b5b600190038181905f5260205f2090600202015f8082015f6101000a81549073ffffffffffffffffffffffffffffffffffffffff0219169055600182015f6109bb9190610ab6565b505090556109d1565b8080600101915050610817565b5050565b5f47905090565b60025481565b600181815481106109f1575f80fd5b905f5260205f2090600202015f91509050805f015f9054906101000a900473ffffffffffffffffffffffffffffffffffffffff1690806001018054610a35906111d6565b80601f0160208091040260200160405190810160405280929190818152602001828054610a61906111d6565b8015610aac5780601f10610a8357610100808354040283529160200191610aac565b820191905f5260205f20905b815481529060010190602001808311610a8f57829003601f168201915b5050505050905082565b508054610ac2906111d6565b5f825580601f10610ad35750610af0565b601f0160209004905f5260205f2090810190610aef9190610af3565b5b50565b5b80821115610b0a575f815f905550600101610af4565b5090565b5f8115159050919050565b610b2281610b0e565b82525050565b5f602082019050610b3b5f830184610b19565b92915050565b5f80fd5b5f80fd5b5f73ffffffffffffffffffffffffffffffffffffffff82169050919050565b5f610b7282610b49565b9050919050565b610b8281610b68565b8114610b8c575f80fd5b50565b5f81359050610b9d81610b79565b92915050565b5f80fd5b5f80fd5b5f80fd5b5f8083601f840112610bc457610bc3610ba3565b5b8235905067ffffffffffffffff811115610be157610be0610ba7565b5b602083019150836001820283011115610bfd57610bfc610bab565b5b9250929050565b5f805f60408486031215610c1b57610c1a610b41565b5b5f610c2886828701610b8f565b935050602084013567ffffffffffffffff811115610c4957610c48610b45565b5b610c5586828701610baf565b92509250509250925092565b5f8083601f840112610c7657610c75610ba3565b5b8235905067ffffffffffffffff811115610c9357610c92610ba7565b5b602083019150836020820283011115610caf57610cae610bab565b5b9250929050565b5f8083601f840112610ccb57610cca610ba3565b5b8235905067ffffffffffffffff811115610ce857610ce7610ba7565b5b602083019150836020820283011115610d0457610d03610bab565b5b9250929050565b5f805f8060408587031215610d2357610d22610b41565b5b5f85013567ffffffffffffffff811115610d4057610d3f610b45565b5b610d4c87828801610c61565b9450945050602085013567ffffffffffffffff811115610d6f57610d6e610b45565b5b610d7b87828801610cb6565b925092505092959194509250565b5f81519050919050565b5f82825260208201905092915050565b5f819050602082019050919050565b610dbb81610b68565b82525050565b5f81519050919050565b5f82825260208201905092915050565b8281835e5f83830152505050565b5f601f19601f8301169050919050565b5f610e0382610dc1565b610e0d8185610dcb565b9350610e1d818560208601610ddb565b610e2681610de9565b840191505092915050565b5f604083015f830151610e465f860182610db2565b5060208301518482036020860152610e5e8282610df9565b9150508091505092915050565b5f610e768383610e31565b905092915050565b5f602082019050919050565b5f610e9482610d89565b610e9e8185610d93565b935083602082028501610eb085610da3565b805f5b85811015610eeb5784840389528151610ecc8582610e6b565b9450610ed783610e7e565b925060208a01995050600181019050610eb3565b50829750879550505050505092915050565b5f6020820190508181035f830152610f158184610e8a565b905092915050565b5f610f2782610b49565b9050919050565b610f3781610f1d565b8114610f41575f80fd5b50565b5f81359050610f5281610f2e565b92915050565b5f60208284031215610f6d57610f6c610b41565b5b5f610f7a84828501610f44565b91505092915050565b5f819050919050565b610f9581610f83565b82525050565b5f602082019050610fae5f830184610f8c565b92915050565b610fbd81610f83565b8114610fc7575f80fd5b50565b5f81359050610fd881610fb4565b92915050565b5f60208284031215610ff357610ff2610b41565b5b5f61100084828501610fca565b91505092915050565b61101281610b68565b82525050565b5f82825260208201905092915050565b5f61103282610dc1565b61103c8185611018565b935061104c818560208601610ddb565b61105581610de9565b840191505092915050565b5f6040820190506110735f830185611009565b81810360208301526110858184611028565b90509392505050565b7f4e487b71000000000000000000000000000000000000000000000000000000005f52601160045260245ffd5b5f6110c582610f83565b91506110d083610f83565b92508282039050818111156110e8576110e761108e565b5b92915050565b7f4f6e6c7920746865206f776e65722063616e2063616c6c20746869732066756e5f8201527f6374696f6e000000000000000000000000000000000000000000000000000000602082015250565b5f611148602583611018565b9150611153826110ee565b604082019050919050565b5f6020820190508181035f8301526111758161113c565b9050919050565b7f4e487b71000000000000000000000000000000000000000000000000000000005f52604160045260245ffd5b7f4e487b71000000000000000000000000000000000000000000000000000000005f52602260045260245ffd5b5f60028204905060018216806111ed57607f821691505b602082108103611200576111ff6111a9565b5b50919050565b5f819050815f5260205f209050919050565b5f6020601f8301049050919050565b5f82821b905092915050565b5f600883026112627fffffffffffffffffffffffffffffffffffffffffffffffffffffffffffffffff82611227565b61126c8683611227565b95508019841693508086168417925050509392505050565b5f819050919050565b5f6112a76112a261129d84610f83565b611284565b610f83565b9050919050565b5f819050919050565b6112c08361128d565b6112d46112cc826112ae565b848454611233565b825550505050565b5f90565b6112e86112dc565b6112f38184846112b7565b505050565b5b818110156113165761130b5f826112e0565b6001810190506112f9565b5050565b601f82111561135b5761132c81611206565b61133584611218565b81016020851015611344578190505b61135861135085611218565b8301826112f8565b50505b505050565b5f82821c905092915050565b5f61137b5f1984600802611360565b1980831691505092915050565b5f611393838361136c565b9150826002028217905092915050565b6113ac82610dc1565b67ffffffffffffffff8111156113c5576113c461117c565b5b6113cf82546111d6565b6113da82828561131a565b5f60209050601f83116001811461140b575f84156113f9578287015190505b6114038582611388565b86555061146a565b601f19841661141986611206565b5f5b828110156114405784890151825560018201915060208501945060208101905061141b565b8683101561145d5784890151611459601f89168261136c565b8355505b6001600288020188555050505b505050505050565b7f4d69736d6174636865642061646472657373657320616e6420616d6f756e74735f82015250565b5f6114a6602083611018565b91506114b182611472565b602082019050919050565b5f6020820190508181035f8301526114d38161149a565b9050919050565b7f4e487b71000000000000000000000000000000000000000000000000000000005f52603260045260245ffd5b5f61151182610f83565b915061151c83610f83565b92508282019050808211156115345761153361108e565b5b92915050565b7f496e73756666696369656e742062616c616e636520696e2074686520636f6e745f8201527f7261637400000000000000000000000000000000000000000000000000000000602082015250565b5f611594602483611018565b915061159f8261153a565b604082019050919050565b5f6020820190508181035f8301526115c181611588565b9050919050565b5f602082840312156115dd576115dc610b41565b5b5f6115ea84828501610b8f565b91505092915050565b5f81549050611601816111d6565b9050919050565b8181036116165750506116eb565b61161f826115f3565b67ffffffffffffffff8111156116385761163761117c565b5b61164282546111d6565b61164d82828561131a565b5f601f83116001811461167a575f8415611668578287015490505b6116728582611388565b8655506116e4565b601f19841661168887611206565b965061169386611206565b5f5b828110156116ba57848901548255600182019150600185019450602081019050611695565b868310156116d757848901546116d3601f89168261136c565b8355505b6001600288020188555050505b5050505050505b565b7f4e487b71000000000000000000000000000000000000000000000000000000005f52603160045260245ffdfea26469706673582212204b1db273b100007d1bbac5154b9b0ce8d01a6a0893a67af2576f8530748a51cd64736f6c634300081a0033",
					"opcodes": "PUSH1 0x80 PUSH1 0x40 MSTORE CALLVALUE DUP1 ISZERO PUSH1 0xE JUMPI PUSH0 DUP1 REVERT JUMPDEST POP CALLER PUSH0 DUP1 PUSH2 0x100 EXP DUP2 SLOAD DUP2 PUSH20 0xFFFFFFFFFFFFFFFFFFFFFFFFFFFFFFFFFFFFFFFF MUL NOT AND SWAP1 DUP4 PUSH20 0xFFFFFFFFFFFFFFFFFFFFFFFFFFFFFFFFFFFFFFFF AND MUL OR SWAP1 SSTORE POP TIMESTAMP PUSH1 0x2 DUP2 SWAP1 SSTORE POP PUSH2 0x1750 DUP1 PUSH2 0x62 PUSH0 CODECOPY PUSH0 RETURN INVALID PUSH1 0x80 PUSH1 0x40 MSTORE PUSH1 0x4 CALLDATASIZE LT PUSH2 0x90 JUMPI PUSH0 CALLDATALOAD PUSH1 0xE0 SHR DUP1 PUSH4 0xCA8FB041 GT PUSH2 0x58 JUMPI DUP1 PUSH4 0xCA8FB041 EQ PUSH2 0x12E JUMPI DUP1 PUSH4 0xCF701F31 EQ PUSH2 0x158 JUMPI DUP1 PUSH4 0xD5D319C8 EQ PUSH2 0x180 JUMPI DUP1 PUSH4 0xDFFDAC49 EQ PUSH2 0x1AA JUMPI DUP1 PUSH4 0xF2A314FA EQ PUSH2 0x1D4 JUMPI PUSH2 0x90 JUMP JUMPDEST DUP1 PUSH4 0x4136AA35 EQ PUSH2 0x94 JUMPI DUP1 PUSH4 0x69C68311 EQ PUSH2 0xBE JUMPI DUP1 PUSH4 0x87740C0D EQ PUSH2 0xE6 JUMPI DUP1 PUSH4 0xA26759CB EQ PUSH2 0xFC JUMPI DUP1 PUSH4 0xC161C75D EQ PUSH2 0x106 JUMPI JUMPDEST PUSH0 DUP1 REVERT JUMPDEST CALLVALUE DUP1 ISZERO PUSH2 0x9F JUMPI PUSH0 DUP1 REVERT JUMPDEST POP PUSH2 0xA8 PUSH2 0x211 JUMP JUMPDEST PUSH1 0x40 MLOAD PUSH2 0xB5 SWAP2 SWAP1 PUSH2 0xB28 JUMP JUMPDEST PUSH1 0x40 MLOAD DUP1 SWAP2 SUB SWAP1 RETURN JUMPDEST CALLVALUE DUP1 ISZERO PUSH2 0xC9 JUMPI PUSH0 DUP1 REVERT JUMPDEST POP PUSH2 0xE4 PUSH1 0x4 DUP1 CALLDATASIZE SUB DUP2 ADD SWAP1 PUSH2 0xDF SWAP2 SWAP1 PUSH2 0xC04 JUMP JUMPDEST PUSH2 0x22B JUMP JUMPDEST STOP JUMPDEST CALLVALUE DUP1 ISZERO PUSH2 0xF1 JUMPI PUSH0 DUP1 REVERT JUMPDEST POP PUSH2 0xFA PUSH2 0x3AF JUMP JUMPDEST STOP JUMPDEST PUSH2 0x104 PUSH2 0x445 JUMP JUMPDEST STOP JUMPDEST CALLVALUE DUP1 ISZERO PUSH2 0x111 JUMPI PUSH0 DUP1 REVERT JUMPDEST POP PUSH2 0x12C PUSH1 0x4 DUP1 CALLDATASIZE SUB DUP2 ADD SWAP1 PUSH2 0x127 SWAP2 SWAP1 PUSH2 0xD0B JUMP JUMPDEST PUSH2 0x447 JUMP JUMPDEST STOP JUMPDEST CALLVALUE DUP1 ISZERO PUSH2 0x139 JUMPI PUSH0 DUP1 REVERT JUMPDEST POP PUSH2 0x142 PUSH2 0x648 JUMP JUMPDEST PUSH1 0x40 MLOAD PUSH2 0x14F SWAP2 SWAP1 PUSH2 0xEFD JUMP JUMPDEST PUSH1 0x40 MLOAD DUP1 SWAP2 SUB SWAP1 RETURN JUMPDEST CALLVALUE DUP1 ISZERO PUSH2 0x163 JUMPI PUSH0 DUP1 REVERT JUMPDEST POP PUSH2 0x17E PUSH1 0x4 DUP1 CALLDATASIZE SUB DUP2 ADD SWAP1 PUSH2 0x179 SWAP2 SWAP1 PUSH2 0xF58 JUMP JUMPDEST PUSH2 0x788 JUMP JUMPDEST STOP JUMPDEST CALLVALUE DUP1 ISZERO PUSH2 0x18B JUMPI PUSH0 DUP1 REVERT JUMPDEST POP PUSH2 0x194 PUSH2 0x9D5 JUMP JUMPDEST PUSH1 0x40 MLOAD PUSH2 0x1A1 SWAP2 SWAP1 PUSH2 0xF9B JUMP JUMPDEST PUSH1 0x40 MLOAD DUP1 SWAP2 SUB SWAP1 RETURN JUMPDEST CALLVALUE DUP1 ISZERO PUSH2 0x1B5 JUMPI PUSH0 DUP1 REVERT JUMPDEST POP PUSH2 0x1BE PUSH2 0x9DC JUMP JUMPDEST PUSH1 0x40 MLOAD PUSH2 0x1CB SWAP2 SWAP1 PUSH2 0xF9B JUMP JUMPDEST PUSH1 0x40 MLOAD DUP1 SWAP2 SUB SWAP1 RETURN JUMPDEST CALLVALUE DUP1 ISZERO PUSH2 0x1DF JUMPI PUSH0 DUP1 REVERT JUMPDEST POP PUSH2 0x1FA PUSH1 0x4 DUP1 CALLDATASIZE SUB DUP2 ADD SWAP1 PUSH2 0x1F5 SWAP2 SWAP1 PUSH2 0xFDE JUMP JUMPDEST PUSH2 0x9E2 JUMP JUMPDEST PUSH1 0x40 MLOAD PUSH2 0x208 SWAP3 SWAP2 SWAP1 PUSH2 0x1060 JUMP JUMPDEST PUSH1 0x40 MLOAD DUP1 SWAP2 SUB SWAP1 RETURN JUMPDEST PUSH0 PUSH4 0x1E13380 PUSH1 0x2 SLOAD TIMESTAMP PUSH2 0x225 SWAP2 SWAP1 PUSH2 0x10BB JUMP JUMPDEST LT SWAP1 POP SWAP1 JUMP JUMPDEST PUSH0 DUP1 SLOAD SWAP1 PUSH2 0x100 EXP SWAP1 DIV PUSH20 0xFFFFFFFFFFFFFFFFFFFFFFFFFFFFFFFFFFFFFFFF AND PUSH20 0xFFFFFFFFFFFFFFFFFFFFFFFFFFFFFFFFFFFFFFFF AND CALLER PUSH20 0xFFFFFFFFFFFFFFFFFFFFFFFFFFFFFFFFFFFFFFFF AND EQ PUSH2 0x2B8 JUMPI PUSH1 0x40 MLOAD PUSH32 0x8C379A000000000000000000000000000000000000000000000000000000000 DUP2 MSTORE PUSH1 0x4 ADD PUSH2 0x2AF SWAP1 PUSH2 0x115E JUMP JUMPDEST PUSH1 0x40 MLOAD DUP1 SWAP2 SUB SWAP1 REVERT JUMPDEST PUSH1 0x1 PUSH1 0x40 MLOAD DUP1 PUSH1 0x40 ADD PUSH1 0x40 MSTORE DUP1 DUP6 PUSH20 0xFFFFFFFFFFFFFFFFFFFFFFFFFFFFFFFFFFFFFFFF AND DUP2 MSTORE PUSH1 0x20 ADD DUP5 DUP5 DUP1 DUP1 PUSH1 0x1F ADD PUSH1 0x20 DUP1 SWAP2 DIV MUL PUSH1 0x20 ADD PUSH1 0x40 MLOAD SWAP1 DUP2 ADD PUSH1 0x40 MSTORE DUP1 SWAP4 SWAP3 SWAP2 SWAP1 DUP2 DUP2 MSTORE PUSH1 0x20 ADD DUP4 DUP4 DUP1 DUP3 DUP5 CALLDATACOPY PUSH0 DUP2 DUP5 ADD MSTORE PUSH1 0x1F NOT PUSH1 0x1F DUP3 ADD AND SWAP1 POP DUP1 DUP4 ADD SWAP3 POP POP POP POP POP POP POP DUP2 MSTORE POP SWAP1 DUP1 PUSH1 0x1 DUP2 SLOAD ADD DUP1 DUP3 SSTORE DUP1 SWAP2 POP POP PUSH1 0x1 SWAP1 SUB SWAP1 PUSH0 MSTORE PUSH1 0x20 PUSH0 KECCAK256 SWAP1 PUSH1 0x2 MUL ADD PUSH0 SWAP1 SWAP2 SWAP1 SWAP2 SWAP1 SWAP2 POP PUSH0 DUP3 ADD MLOAD DUP2 PUSH0 ADD PUSH0 PUSH2 0x100 EXP DUP2 SLOAD DUP2 PUSH20 0xFFFFFFFFFFFFFFFFFFFFFFFFFFFFFFFFFFFFFFFF MUL NOT AND SWAP1 DUP4 PUSH20 0xFFFFFFFFFFFFFFFFFFFFFFFFFFFFFFFFFFFFFFFF AND MUL OR SWAP1 SSTORE POP PUSH1 0x20 DUP3 ADD MLOAD DUP2 PUSH1 0x1 ADD SWAP1 DUP2 PUSH2 0x3A7 SWAP2 SWAP1 PUSH2 0x13A3 JUMP JUMPDEST POP POP POP POP POP POP JUMP JUMPDEST PUSH0 DUP1 SLOAD SWAP1 PUSH2 0x100 EXP SWAP1 DIV PUSH20 0xFFFFFFFFFFFFFFFFFFFFFFFFFFFFFFFFFFFFFFFF AND PUSH20 0xFFFFFFFFFFFFFFFFFFFFFFFFFFFFFFFFFFFFFFFF AND CALLER PUSH20 0xFFFFFFFFFFFFFFFFFFFFFFFFFFFFFFFFFFFFFFFF AND EQ PUSH2 0x43C JUMPI PUSH1 0x40 MLOAD PUSH32 0x8C379A000000000000000000000000000000000000000000000000000000000 DUP2 MSTORE PUSH1 0x4 ADD PUSH2 0x433 SWAP1 PUSH2 0x115E JUMP JUMPDEST PUSH1 0x40 MLOAD DUP1 SWAP2 SUB SWAP1 REVERT JUMPDEST TIMESTAMP PUSH1 0x2 DUP2 SWAP1 SSTORE POP JUMP JUMPDEST JUMP JUMPDEST PUSH0 DUP1 SLOAD SWAP1 PUSH2 0x100 EXP SWAP1 DIV PUSH20 0xFFFFFFFFFFFFFFFFFFFFFFFFFFFFFFFFFFFFFFFF AND PUSH20 0xFFFFFFFFFFFFFFFFFFFFFFFFFFFFFFFFFFFFFFFF AND CALLER PUSH20 0xFFFFFFFFFFFFFFFFFFFFFFFFFFFFFFFFFFFFFFFF AND EQ PUSH2 0x4D4 JUMPI PUSH1 0x40 MLOAD PUSH32 0x8C379A000000000000000000000000000000000000000000000000000000000 DUP2 MSTORE PUSH1 0x4 ADD PUSH2 0x4CB SWAP1 PUSH2 0x115E JUMP JUMPDEST PUSH1 0x40 MLOAD DUP1 SWAP2 SUB SWAP1 REVERT JUMPDEST DUP2 DUP2 SWAP1 POP DUP5 DUP5 SWAP1 POP EQ PUSH2 0x51C JUMPI PUSH1 0x40 MLOAD PUSH32 0x8C379A000000000000000000000000000000000000000000000000000000000 DUP2 MSTORE PUSH1 0x4 ADD PUSH2 0x513 SWAP1 PUSH2 0x14BC JUMP JUMPDEST PUSH1 0x40 MLOAD DUP1 SWAP2 SUB SWAP1 REVERT JUMPDEST PUSH0 DUP1 JUMPDEST DUP4 DUP4 SWAP1 POP DUP2 LT ISZERO PUSH2 0x55E JUMPI DUP4 DUP4 DUP3 DUP2 DUP2 LT PUSH2 0x53D JUMPI PUSH2 0x53C PUSH2 0x14DA JUMP JUMPDEST JUMPDEST SWAP1 POP PUSH1 0x20 MUL ADD CALLDATALOAD DUP3 PUSH2 0x54F SWAP2 SWAP1 PUSH2 0x1507 JUMP JUMPDEST SWAP2 POP DUP1 DUP1 PUSH1 0x1 ADD SWAP2 POP POP PUSH2 0x51F JUMP JUMPDEST POP SELFBALANCE DUP2 GT ISZERO PUSH2 0x5A2 JUMPI PUSH1 0x40 MLOAD PUSH32 0x8C379A000000000000000000000000000000000000000000000000000000000 DUP2 MSTORE PUSH1 0x4 ADD PUSH2 0x599 SWAP1 PUSH2 0x15AA JUMP JUMPDEST PUSH1 0x40 MLOAD DUP1 SWAP2 SUB SWAP1 REVERT JUMPDEST PUSH0 JUMPDEST DUP6 DUP6 SWAP1 POP DUP2 LT ISZERO PUSH2 0x640 JUMPI DUP6 DUP6 DUP3 DUP2 DUP2 LT PUSH2 0x5C2 JUMPI PUSH2 0x5C1 PUSH2 0x14DA JUMP JUMPDEST JUMPDEST SWAP1 POP PUSH1 0x20 MUL ADD PUSH1 0x20 DUP2 ADD SWAP1 PUSH2 0x5D7 SWAP2 SWAP1 PUSH2 0x15C8 JUMP JUMPDEST PUSH20 0xFFFFFFFFFFFFFFFFFFFFFFFFFFFFFFFFFFFFFFFF AND PUSH2 0x8FC DUP6 DUP6 DUP5 DUP2 DUP2 LT PUSH2 0x603 JUMPI PUSH2 0x602 PUSH2 0x14DA JUMP JUMPDEST JUMPDEST SWAP1 POP PUSH1 0x20 MUL ADD CALLDATALOAD SWAP1 DUP2 ISZERO MUL SWAP1 PUSH1 0x40 MLOAD PUSH0 PUSH1 0x40 MLOAD DUP1 DUP4 SUB DUP2 DUP6 DUP9 DUP9 CALL SWAP4 POP POP POP POP ISZERO DUP1 ISZERO PUSH2 0x632 JUMPI RETURNDATASIZE PUSH0 DUP1 RETURNDATACOPY RETURNDATASIZE PUSH0 REVERT JUMPDEST POP DUP1 DUP1 PUSH1 0x1 ADD SWAP2 POP POP PUSH2 0x5A4 JUMP JUMPDEST POP POP POP POP POP POP JUMP JUMPDEST PUSH1 0x60 PUSH1 0x1 DUP1 SLOAD DUP1 PUSH1 0x20 MUL PUSH1 0x20 ADD PUSH1 0x40 MLOAD SWAP1 DUP2 ADD PUSH1 0x40 MSTORE DUP1 SWAP3 SWAP2 SWAP1 DUP2 DUP2 MSTORE PUSH1 0x20 ADD PUSH0 SWAP1 JUMPDEST DUP3 DUP3 LT ISZERO PUSH2 0x77F JUMPI DUP4 DUP3 SWAP1 PUSH0 MSTORE PUSH1 0x20 PUSH0 KECCAK256 SWAP1 PUSH1 0x2 MUL ADD PUSH1 0x40 MLOAD DUP1 PUSH1 0x40 ADD PUSH1 0x40 MSTORE SWAP1 DUP2 PUSH0 DUP3 ADD PUSH0 SWAP1 SLOAD SWAP1 PUSH2 0x100 EXP SWAP1 DIV PUSH20 0xFFFFFFFFFFFFFFFFFFFFFFFFFFFFFFFFFFFFFFFF AND PUSH20 0xFFFFFFFFFFFFFFFFFFFFFFFFFFFFFFFFFFFFFFFF AND PUSH20 0xFFFFFFFFFFFFFFFFFFFFFFFFFFFFFFFFFFFFFFFF AND DUP2 MSTORE PUSH1 0x20 ADD PUSH1 0x1 DUP3 ADD DUP1 SLOAD PUSH2 0x6F0 SWAP1 PUSH2 0x11D6 JUMP JUMPDEST DUP1 PUSH1 0x1F ADD PUSH1 0x20 DUP1 SWAP2 DIV MUL PUSH1 0x20 ADD PUSH1 0x40 MLOAD SWAP1 DUP2 ADD PUSH1 0x40 MSTORE DUP1 SWAP3 SWAP2 SWAP1 DUP2 DUP2 MSTORE PUSH1 0x20 ADD DUP3 DUP1 SLOAD PUSH2 0x71C SWAP1 PUSH2 0x11D6 JUMP JUMPDEST DUP1 ISZERO PUSH2 0x767 JUMPI DUP1 PUSH1 0x1F LT PUSH2 0x73E JUMPI PUSH2 0x100 DUP1 DUP4 SLOAD DIV MUL DUP4 MSTORE SWAP2 PUSH1 0x20 ADD SWAP2 PUSH2 0x767 JUMP JUMPDEST DUP3 ADD SWAP2 SWAP1 PUSH0 MSTORE PUSH1 0x20 PUSH0 KECCAK256 SWAP1 JUMPDEST DUP2 SLOAD DUP2 MSTORE SWAP1 PUSH1 0x1 ADD SWAP1 PUSH1 0x20 ADD DUP1 DUP4 GT PUSH2 0x74A JUMPI DUP3 SWAP1 SUB PUSH1 0x1F AND DUP3 ADD SWAP2 JUMPDEST POP POP POP POP POP DUP2 MSTORE POP POP DUP2 MSTORE PUSH1 0x20 ADD SWAP1 PUSH1 0x1 ADD SWAP1 PUSH2 0x66B JUMP JUMPDEST POP POP POP POP SWAP1 POP SWAP1 JUMP JUMPDEST PUSH0 DUP1 SLOAD SWAP1 PUSH2 0x100 EXP SWAP1 DIV PUSH20 0xFFFFFFFFFFFFFFFFFFFFFFFFFFFFFFFFFFFFFFFF AND PUSH20 0xFFFFFFFFFFFFFFFFFFFFFFFFFFFFFFFFFFFFFFFF AND CALLER PUSH20 0xFFFFFFFFFFFFFFFFFFFFFFFFFFFFFFFFFFFFFFFF AND EQ PUSH2 0x815 JUMPI PUSH1 0x40 MLOAD PUSH32 0x8C379A000000000000000000000000000000000000000000000000000000000 DUP2 MSTORE PUSH1 0x4 ADD PUSH2 0x80C SWAP1 PUSH2 0x115E JUMP JUMPDEST PUSH1 0x40 MLOAD DUP1 SWAP2 SUB SWAP1 REVERT JUMPDEST PUSH0 JUMPDEST PUSH1 0x1 DUP1 SLOAD SWAP1 POP DUP2 LT ISZERO PUSH2 0x9D1 JUMPI DUP2 PUSH20 0xFFFFFFFFFFFFFFFFFFFFFFFFFFFFFFFFFFFFFFFF AND PUSH1 0x1 DUP3 DUP2 SLOAD DUP2 LT PUSH2 0x84F JUMPI PUSH2 0x84E PUSH2 0x14DA JUMP JUMPDEST JUMPDEST SWAP1 PUSH0 MSTORE PUSH1 0x20 PUSH0 KECCAK256 SWAP1 PUSH1 0x2 MUL ADD PUSH0 ADD PUSH0 SWAP1 SLOAD SWAP1 PUSH2 0x100 EXP SWAP1 DIV PUSH20 0xFFFFFFFFFFFFFFFFFFFFFFFFFFFFFFFFFFFFFFFF AND PUSH20 0xFFFFFFFFFFFFFFFFFFFFFFFFFFFFFFFFFFFFFFFF AND SUB PUSH2 0x9C4 JUMPI PUSH1 0x1 DUP1 DUP1 DUP1 SLOAD SWAP1 POP PUSH2 0x8AA SWAP2 SWAP1 PUSH2 0x10BB JUMP JUMPDEST DUP2 SLOAD DUP2 LT PUSH2 0x8BB JUMPI PUSH2 0x8BA PUSH2 0x14DA JUMP JUMPDEST JUMPDEST SWAP1 PUSH0 MSTORE PUSH1 0x20 PUSH0 KECCAK256 SWAP1 PUSH1 0x2 MUL ADD PUSH1 0x1 DUP3 DUP2 SLOAD DUP2 LT PUSH2 0x8DB JUMPI PUSH2 0x8DA PUSH2 0x14DA JUMP JUMPDEST JUMPDEST SWAP1 PUSH0 MSTORE PUSH1 0x20 PUSH0 KECCAK256 SWAP1 PUSH1 0x2 MUL ADD PUSH0 DUP3 ADD PUSH0 SWAP1 SLOAD SWAP1 PUSH2 0x100 EXP SWAP1 DIV PUSH20 0xFFFFFFFFFFFFFFFFFFFFFFFFFFFFFFFFFFFFFFFF AND DUP2 PUSH0 ADD PUSH0 PUSH2 0x100 EXP DUP2 SLOAD DUP2 PUSH20 0xFFFFFFFFFFFFFFFFFFFFFFFFFFFFFFFFFFFFFFFF MUL NOT AND SWAP1 DUP4 PUSH20 0xFFFFFFFFFFFFFFFFFFFFFFFFFFFFFFFFFFFFFFFF AND MUL OR SWAP1 SSTORE POP PUSH1 0x1 DUP3 ADD DUP2 PUSH1 0x1 ADD SWAP1 DUP2 PUSH2 0x95E SWAP2 SWAP1 PUSH2 0x1608 JUMP JUMPDEST POP SWAP1 POP POP PUSH1 0x1 DUP1 SLOAD DUP1 PUSH2 0x974 JUMPI PUSH2 0x973 PUSH2 0x16ED JUMP JUMPDEST JUMPDEST PUSH1 0x1 SWAP1 SUB DUP2 DUP2 SWAP1 PUSH0 MSTORE PUSH1 0x20 PUSH0 KECCAK256 SWAP1 PUSH1 0x2 MUL ADD PUSH0 DUP1 DUP3 ADD PUSH0 PUSH2 0x100 EXP DUP2 SLOAD SWAP1 PUSH20 0xFFFFFFFFFFFFFFFFFFFFFFFFFFFFFFFFFFFFFFFF MUL NOT AND SWAP1 SSTORE PUSH1 0x1 DUP3 ADD PUSH0 PUSH2 0x9BB SWAP2 SWAP1 PUSH2 0xAB6 JUMP JUMPDEST POP POP SWAP1 SSTORE PUSH2 0x9D1 JUMP JUMPDEST DUP1 DUP1 PUSH1 0x1 ADD SWAP2 POP POP PUSH2 0x817 JUMP JUMPDEST POP POP JUMP JUMPDEST PUSH0 SELFBALANCE SWAP1 POP SWAP1 JUMP JUMPDEST PUSH1 0x2 SLOAD DUP2 JUMP JUMPDEST PUSH1 0x1 DUP2 DUP2 SLOAD DUP2 LT PUSH2 0x9F1 JUMPI PUSH0 DUP1 REVERT JUMPDEST SWAP1 PUSH0 MSTORE PUSH1 0x20 PUSH0 KECCAK256 SWAP1 PUSH1 0x2 MUL ADD PUSH0 SWAP2 POP SWAP1 POP DUP1 PUSH0 ADD PUSH0 SWAP1 SLOAD SWAP1 PUSH2 0x100 EXP SWAP1 DIV PUSH20 0xFFFFFFFFFFFFFFFFFFFFFFFFFFFFFFFFFFFFFFFF AND SWAP1 DUP1 PUSH1 0x1 ADD DUP1 SLOAD PUSH2 0xA35 SWAP1 PUSH2 0x11D6 JUMP JUMPDEST DUP1 PUSH1 0x1F ADD PUSH1 0x20 DUP1 SWAP2 DIV MUL PUSH1 0x20 ADD PUSH1 0x40 MLOAD SWAP1 DUP2 ADD PUSH1 0x40 MSTORE DUP1 SWAP3 SWAP2 SWAP1 DUP2 DUP2 MSTORE PUSH1 0x20 ADD DUP3 DUP1 SLOAD PUSH2 0xA61 SWAP1 PUSH2 0x11D6 JUMP JUMPDEST DUP1 ISZERO PUSH2 0xAAC JUMPI DUP1 PUSH1 0x1F LT PUSH2 0xA83 JUMPI PUSH2 0x100 DUP1 DUP4 SLOAD DIV MUL DUP4 MSTORE SWAP2 PUSH1 0x20 ADD SWAP2 PUSH2 0xAAC JUMP JUMPDEST DUP3 ADD SWAP2 SWAP1 PUSH0 MSTORE PUSH1 0x20 PUSH0 KECCAK256 SWAP1 JUMPDEST DUP2 SLOAD DUP2 MSTORE SWAP1 PUSH1 0x1 ADD SWAP1 PUSH1 0x20 ADD DUP1 DUP4 GT PUSH2 0xA8F JUMPI DUP3 SWAP1 SUB PUSH1 0x1F AND DUP3 ADD SWAP2 JUMPDEST POP POP POP POP POP SWAP1 POP DUP3 JUMP JUMPDEST POP DUP1 SLOAD PUSH2 0xAC2 SWAP1 PUSH2 0x11D6 JUMP JUMPDEST PUSH0 DUP3 SSTORE DUP1 PUSH1 0x1F LT PUSH2 0xAD3 JUMPI POP PUSH2 0xAF0 JUMP JUMPDEST PUSH1 0x1F ADD PUSH1 0x20 SWAP1 DIV SWAP1 PUSH0 MSTORE PUSH1 0x20 PUSH0 KECCAK256 SWAP1 DUP2 ADD SWAP1 PUSH2 0xAEF SWAP2 SWAP1 PUSH2 0xAF3 JUMP JUMPDEST JUMPDEST POP JUMP JUMPDEST JUMPDEST DUP1 DUP3 GT ISZERO PUSH2 0xB0A JUMPI PUSH0 DUP2 PUSH0 SWAP1 SSTORE POP PUSH1 0x1 ADD PUSH2 0xAF4 JUMP JUMPDEST POP SWAP1 JUMP JUMPDEST PUSH0 DUP2 ISZERO ISZERO SWAP1 POP SWAP2 SWAP1 POP JUMP JUMPDEST PUSH2 0xB22 DUP2 PUSH2 0xB0E JUMP JUMPDEST DUP3 MSTORE POP POP JUMP JUMPDEST PUSH0 PUSH1 0x20 DUP3 ADD SWAP1 POP PUSH2 0xB3B PUSH0 DUP4 ADD DUP5 PUSH2 0xB19 JUMP JUMPDEST SWAP3 SWAP2 POP POP JUMP JUMPDEST PUSH0 DUP1 REVERT JUMPDEST PUSH0 DUP1 REVERT JUMPDEST PUSH0 PUSH20 0xFFFFFFFFFFFFFFFFFFFFFFFFFFFFFFFFFFFFFFFF DUP3 AND SWAP1 POP SWAP2 SWAP1 POP JUMP JUMPDEST PUSH0 PUSH2 0xB72 DUP3 PUSH2 0xB49 JUMP JUMPDEST SWAP1 POP SWAP2 SWAP1 POP JUMP JUMPDEST PUSH2 0xB82 DUP2 PUSH2 0xB68 JUMP JUMPDEST DUP2 EQ PUSH2 0xB8C JUMPI PUSH0 DUP1 REVERT JUMPDEST POP JUMP JUMPDEST PUSH0 DUP2 CALLDATALOAD SWAP1 POP PUSH2 0xB9D DUP2 PUSH2 0xB79 JUMP JUMPDEST SWAP3 SWAP2 POP POP JUMP JUMPDEST PUSH0 DUP1 REVERT JUMPDEST PUSH0 DUP1 REVERT JUMPDEST PUSH0 DUP1 REVERT JUMPDEST PUSH0 DUP1 DUP4 PUSH1 0x1F DUP5 ADD SLT PUSH2 0xBC4 JUMPI PUSH2 0xBC3 PUSH2 0xBA3 JUMP JUMPDEST JUMPDEST DUP3 CALLDATALOAD SWAP1 POP PUSH8 0xFFFFFFFFFFFFFFFF DUP2 GT ISZERO PUSH2 0xBE1 JUMPI PUSH2 0xBE0 PUSH2 0xBA7 JUMP JUMPDEST JUMPDEST PUSH1 0x20 DUP4 ADD SWAP2 POP DUP4 PUSH1 0x1 DUP3 MUL DUP4 ADD GT ISZERO PUSH2 0xBFD JUMPI PUSH2 0xBFC PUSH2 0xBAB JUMP JUMPDEST JUMPDEST SWAP3 POP SWAP3 SWAP1 POP JUMP JUMPDEST PUSH0 DUP1 PUSH0 PUSH1 0x40 DUP5 DUP7 SUB SLT ISZERO PUSH2 0xC1B JUMPI PUSH2 0xC1A PUSH2 0xB41 JUMP JUMPDEST JUMPDEST PUSH0 PUSH2 0xC28 DUP7 DUP3 DUP8 ADD PUSH2 0xB8F JUMP JUMPDEST SWAP4 POP POP PUSH1 0x20 DUP5 ADD CALLDATALOAD PUSH8 0xFFFFFFFFFFFFFFFF DUP2 GT ISZERO PUSH2 0xC49 JUMPI PUSH2 0xC48 PUSH2 0xB45 JUMP JUMPDEST JUMPDEST PUSH2 0xC55 DUP7 DUP3 DUP8 ADD PUSH2 0xBAF JUMP JUMPDEST SWAP3 POP SWAP3 POP POP SWAP3 POP SWAP3 POP SWAP3 JUMP JUMPDEST PUSH0 DUP1 DUP4 PUSH1 0x1F DUP5 ADD SLT PUSH2 0xC76 JUMPI PUSH2 0xC75 PUSH2 0xBA3 JUMP JUMPDEST JUMPDEST DUP3 CALLDATALOAD SWAP1 POP PUSH8 0xFFFFFFFFFFFFFFFF DUP2 GT ISZERO PUSH2 0xC93 JUMPI PUSH2 0xC92 PUSH2 0xBA7 JUMP JUMPDEST JUMPDEST PUSH1 0x20 DUP4 ADD SWAP2 POP DUP4 PUSH1 0x20 DUP3 MUL DUP4 ADD GT ISZERO PUSH2 0xCAF JUMPI PUSH2 0xCAE PUSH2 0xBAB JUMP JUMPDEST JUMPDEST SWAP3 POP SWAP3 SWAP1 POP JUMP JUMPDEST PUSH0 DUP1 DUP4 PUSH1 0x1F DUP5 ADD SLT PUSH2 0xCCB JUMPI PUSH2 0xCCA PUSH2 0xBA3 JUMP JUMPDEST JUMPDEST DUP3 CALLDATALOAD SWAP1 POP PUSH8 0xFFFFFFFFFFFFFFFF DUP2 GT ISZERO PUSH2 0xCE8 JUMPI PUSH2 0xCE7 PUSH2 0xBA7 JUMP JUMPDEST JUMPDEST PUSH1 0x20 DUP4 ADD SWAP2 POP DUP4 PUSH1 0x20 DUP3 MUL DUP4 ADD GT ISZERO PUSH2 0xD04 JUMPI PUSH2 0xD03 PUSH2 0xBAB JUMP JUMPDEST JUMPDEST SWAP3 POP SWAP3 SWAP1 POP JUMP JUMPDEST PUSH0 DUP1 PUSH0 DUP1 PUSH1 0x40 DUP6 DUP8 SUB SLT ISZERO PUSH2 0xD23 JUMPI PUSH2 0xD22 PUSH2 0xB41 JUMP JUMPDEST JUMPDEST PUSH0 DUP6 ADD CALLDATALOAD PUSH8 0xFFFFFFFFFFFFFFFF DUP2 GT ISZERO PUSH2 0xD40 JUMPI PUSH2 0xD3F PUSH2 0xB45 JUMP JUMPDEST JUMPDEST PUSH2 0xD4C DUP8 DUP3 DUP9 ADD PUSH2 0xC61 JUMP JUMPDEST SWAP5 POP SWAP5 POP POP PUSH1 0x20 DUP6 ADD CALLDATALOAD PUSH8 0xFFFFFFFFFFFFFFFF DUP2 GT ISZERO PUSH2 0xD6F JUMPI PUSH2 0xD6E PUSH2 0xB45 JUMP JUMPDEST JUMPDEST PUSH2 0xD7B DUP8 DUP3 DUP9 ADD PUSH2 0xCB6 JUMP JUMPDEST SWAP3 POP SWAP3 POP POP SWAP3 SWAP6 SWAP2 SWAP5 POP SWAP3 POP JUMP JUMPDEST PUSH0 DUP2 MLOAD SWAP1 POP SWAP2 SWAP1 POP JUMP JUMPDEST PUSH0 DUP3 DUP3 MSTORE PUSH1 0x20 DUP3 ADD SWAP1 POP SWAP3 SWAP2 POP POP JUMP JUMPDEST PUSH0 DUP2 SWAP1 POP PUSH1 0x20 DUP3 ADD SWAP1 POP SWAP2 SWAP1 POP JUMP JUMPDEST PUSH2 0xDBB DUP2 PUSH2 0xB68 JUMP JUMPDEST DUP3 MSTORE POP POP JUMP JUMPDEST PUSH0 DUP2 MLOAD SWAP1 POP SWAP2 SWAP1 POP JUMP JUMPDEST PUSH0 DUP3 DUP3 MSTORE PUSH1 0x20 DUP3 ADD SWAP1 POP SWAP3 SWAP2 POP POP JUMP JUMPDEST DUP3 DUP2 DUP4 MCOPY PUSH0 DUP4 DUP4 ADD MSTORE POP POP POP JUMP JUMPDEST PUSH0 PUSH1 0x1F NOT PUSH1 0x1F DUP4 ADD AND SWAP1 POP SWAP2 SWAP1 POP JUMP JUMPDEST PUSH0 PUSH2 0xE03 DUP3 PUSH2 0xDC1 JUMP JUMPDEST PUSH2 0xE0D DUP2 DUP6 PUSH2 0xDCB JUMP JUMPDEST SWAP4 POP PUSH2 0xE1D DUP2 DUP6 PUSH1 0x20 DUP7 ADD PUSH2 0xDDB JUMP JUMPDEST PUSH2 0xE26 DUP2 PUSH2 0xDE9 JUMP JUMPDEST DUP5 ADD SWAP2 POP POP SWAP3 SWAP2 POP POP JUMP JUMPDEST PUSH0 PUSH1 0x40 DUP4 ADD PUSH0 DUP4 ADD MLOAD PUSH2 0xE46 PUSH0 DUP7 ADD DUP3 PUSH2 0xDB2 JUMP JUMPDEST POP PUSH1 0x20 DUP4 ADD MLOAD DUP5 DUP3 SUB PUSH1 0x20 DUP7 ADD MSTORE PUSH2 0xE5E DUP3 DUP3 PUSH2 0xDF9 JUMP JUMPDEST SWAP2 POP POP DUP1 SWAP2 POP POP SWAP3 SWAP2 POP POP JUMP JUMPDEST PUSH0 PUSH2 0xE76 DUP4 DUP4 PUSH2 0xE31 JUMP JUMPDEST SWAP1 POP SWAP3 SWAP2 POP POP JUMP JUMPDEST PUSH0 PUSH1 0x20 DUP3 ADD SWAP1 POP SWAP2 SWAP1 POP JUMP JUMPDEST PUSH0 PUSH2 0xE94 DUP3 PUSH2 0xD89 JUMP JUMPDEST PUSH2 0xE9E DUP2 DUP6 PUSH2 0xD93 JUMP JUMPDEST SWAP4 POP DUP4 PUSH1 0x20 DUP3 MUL DUP6 ADD PUSH2 0xEB0 DUP6 PUSH2 0xDA3 JUMP JUMPDEST DUP1 PUSH0 JUMPDEST DUP6 DUP2 LT ISZERO PUSH2 0xEEB JUMPI DUP5 DUP5 SUB DUP10 MSTORE DUP2 MLOAD PUSH2 0xECC DUP6 DUP3 PUSH2 0xE6B JUMP JUMPDEST SWAP5 POP PUSH2 0xED7 DUP4 PUSH2 0xE7E JUMP JUMPDEST SWAP3 POP PUSH1 0x20 DUP11 ADD SWAP10 POP POP PUSH1 0x1 DUP2 ADD SWAP1 POP PUSH2 0xEB3 JUMP JUMPDEST POP DUP3 SWAP8 POP DUP8 SWAP6 POP POP POP POP POP POP SWAP3 SWAP2 POP POP JUMP JUMPDEST PUSH0 PUSH1 0x20 DUP3 ADD SWAP1 POP DUP2 DUP2 SUB PUSH0 DUP4 ADD MSTORE PUSH2 0xF15 DUP2 DUP5 PUSH2 0xE8A JUMP JUMPDEST SWAP1 POP SWAP3 SWAP2 POP POP JUMP JUMPDEST PUSH0 PUSH2 0xF27 DUP3 PUSH2 0xB49 JUMP JUMPDEST SWAP1 POP SWAP2 SWAP1 POP JUMP JUMPDEST PUSH2 0xF37 DUP2 PUSH2 0xF1D JUMP JUMPDEST DUP2 EQ PUSH2 0xF41 JUMPI PUSH0 DUP1 REVERT JUMPDEST POP JUMP JUMPDEST PUSH0 DUP2 CALLDATALOAD SWAP1 POP PUSH2 0xF52 DUP2 PUSH2 0xF2E JUMP JUMPDEST SWAP3 SWAP2 POP POP JUMP JUMPDEST PUSH0 PUSH1 0x20 DUP3 DUP5 SUB SLT ISZERO PUSH2 0xF6D JUMPI PUSH2 0xF6C PUSH2 0xB41 JUMP JUMPDEST JUMPDEST PUSH0 PUSH2 0xF7A DUP5 DUP3 DUP6 ADD PUSH2 0xF44 JUMP JUMPDEST SWAP2 POP POP SWAP3 SWAP2 POP POP JUMP JUMPDEST PUSH0 DUP2 SWAP1 POP SWAP2 SWAP1 POP JUMP JUMPDEST PUSH2 0xF95 DUP2 PUSH2 0xF83 JUMP JUMPDEST DUP3 MSTORE POP POP JUMP JUMPDEST PUSH0 PUSH1 0x20 DUP3 ADD SWAP1 POP PUSH2 0xFAE PUSH0 DUP4 ADD DUP5 PUSH2 0xF8C JUMP JUMPDEST SWAP3 SWAP2 POP POP JUMP JUMPDEST PUSH2 0xFBD DUP2 PUSH2 0xF83 JUMP JUMPDEST DUP2 EQ PUSH2 0xFC7 JUMPI PUSH0 DUP1 REVERT JUMPDEST POP JUMP JUMPDEST PUSH0 DUP2 CALLDATALOAD SWAP1 POP PUSH2 0xFD8 DUP2 PUSH2 0xFB4 JUMP JUMPDEST SWAP3 SWAP2 POP POP JUMP JUMPDEST PUSH0 PUSH1 0x20 DUP3 DUP5 SUB SLT ISZERO PUSH2 0xFF3 JUMPI PUSH2 0xFF2 PUSH2 0xB41 JUMP JUMPDEST JUMPDEST PUSH0 PUSH2 0x1000 DUP5 DUP3 DUP6 ADD PUSH2 0xFCA JUMP JUMPDEST SWAP2 POP POP SWAP3 SWAP2 POP POP JUMP JUMPDEST PUSH2 0x1012 DUP2 PUSH2 0xB68 JUMP JUMPDEST DUP3 MSTORE POP POP JUMP JUMPDEST PUSH0 DUP3 DUP3 MSTORE PUSH1 0x20 DUP3 ADD SWAP1 POP SWAP3 SWAP2 POP POP JUMP JUMPDEST PUSH0 PUSH2 0x1032 DUP3 PUSH2 0xDC1 JUMP JUMPDEST PUSH2 0x103C DUP2 DUP6 PUSH2 0x1018 JUMP JUMPDEST SWAP4 POP PUSH2 0x104C DUP2 DUP6 PUSH1 0x20 DUP7 ADD PUSH2 0xDDB JUMP JUMPDEST PUSH2 0x1055 DUP2 PUSH2 0xDE9 JUMP JUMPDEST DUP5 ADD SWAP2 POP POP SWAP3 SWAP2 POP POP JUMP JUMPDEST PUSH0 PUSH1 0x40 DUP3 ADD SWAP1 POP PUSH2 0x1073 PUSH0 DUP4 ADD DUP6 PUSH2 0x1009 JUMP JUMPDEST DUP2 DUP2 SUB PUSH1 0x20 DUP4 ADD MSTORE PUSH2 0x1085 DUP2 DUP5 PUSH2 0x1028 JUMP JUMPDEST SWAP1 POP SWAP4 SWAP3 POP POP POP JUMP JUMPDEST PUSH32 0x4E487B7100000000000000000000000000000000000000000000000000000000 PUSH0 MSTORE PUSH1 0x11 PUSH1 0x4 MSTORE PUSH1 0x24 PUSH0 REVERT JUMPDEST PUSH0 PUSH2 0x10C5 DUP3 PUSH2 0xF83 JUMP JUMPDEST SWAP2 POP PUSH2 0x10D0 DUP4 PUSH2 0xF83 JUMP JUMPDEST SWAP3 POP DUP3 DUP3 SUB SWAP1 POP DUP2 DUP2 GT ISZERO PUSH2 0x10E8 JUMPI PUSH2 0x10E7 PUSH2 0x108E JUMP JUMPDEST JUMPDEST SWAP3 SWAP2 POP POP JUMP JUMPDEST PUSH32 0x4F6E6C7920746865206F776E65722063616E2063616C6C20746869732066756E PUSH0 DUP3 ADD MSTORE PUSH32 0x6374696F6E000000000000000000000000000000000000000000000000000000 PUSH1 0x20 DUP3 ADD MSTORE POP JUMP JUMPDEST PUSH0 PUSH2 0x1148 PUSH1 0x25 DUP4 PUSH2 0x1018 JUMP JUMPDEST SWAP2 POP PUSH2 0x1153 DUP3 PUSH2 0x10EE JUMP JUMPDEST PUSH1 0x40 DUP3 ADD SWAP1 POP SWAP2 SWAP1 POP JUMP JUMPDEST PUSH0 PUSH1 0x20 DUP3 ADD SWAP1 POP DUP2 DUP2 SUB PUSH0 DUP4 ADD MSTORE PUSH2 0x1175 DUP2 PUSH2 0x113C JUMP JUMPDEST SWAP1 POP SWAP2 SWAP1 POP JUMP JUMPDEST PUSH32 0x4E487B7100000000000000000000000000000000000000000000000000000000 PUSH0 MSTORE PUSH1 0x41 PUSH1 0x4 MSTORE PUSH1 0x24 PUSH0 REVERT JUMPDEST PUSH32 0x4E487B7100000000000000000000000000000000000000000000000000000000 PUSH0 MSTORE PUSH1 0x22 PUSH1 0x4 MSTORE PUSH1 0x24 PUSH0 REVERT JUMPDEST PUSH0 PUSH1 0x2 DUP3 DIV SWAP1 POP PUSH1 0x1 DUP3 AND DUP1 PUSH2 0x11ED JUMPI PUSH1 0x7F DUP3 AND SWAP2 POP JUMPDEST PUSH1 0x20 DUP3 LT DUP2 SUB PUSH2 0x1200 JUMPI PUSH2 0x11FF PUSH2 0x11A9 JUMP JUMPDEST JUMPDEST POP SWAP2 SWAP1 POP JUMP JUMPDEST PUSH0 DUP2 SWAP1 POP DUP2 PUSH0 MSTORE PUSH1 0x20 PUSH0 KECCAK256 SWAP1 POP SWAP2 SWAP1 POP JUMP JUMPDEST PUSH0 PUSH1 0x20 PUSH1 0x1F DUP4 ADD DIV SWAP1 POP SWAP2 SWAP1 POP JUMP JUMPDEST PUSH0 DUP3 DUP3 SHL SWAP1 POP SWAP3 SWAP2 POP POP JUMP JUMPDEST PUSH0 PUSH1 0x8 DUP4 MUL PUSH2 0x1262 PUSH32 0xFFFFFFFFFFFFFFFFFFFFFFFFFFFFFFFFFFFFFFFFFFFFFFFFFFFFFFFFFFFFFFFF DUP3 PUSH2 0x1227 JUMP JUMPDEST PUSH2 0x126C DUP7 DUP4 PUSH2 0x1227 JUMP JUMPDEST SWAP6 POP DUP1 NOT DUP5 AND SWAP4 POP DUP1 DUP7 AND DUP5 OR SWAP3 POP POP POP SWAP4 SWAP3 POP POP POP JUMP JUMPDEST PUSH0 DUP2 SWAP1 POP SWAP2 SWAP1 POP JUMP JUMPDEST PUSH0 PUSH2 0x12A7 PUSH2 0x12A2 PUSH2 0x129D DUP5 PUSH2 0xF83 JUMP JUMPDEST PUSH2 0x1284 JUMP JUMPDEST PUSH2 0xF83 JUMP JUMPDEST SWAP1 POP SWAP2 SWAP1 POP JUMP JUMPDEST PUSH0 DUP2 SWAP1 POP SWAP2 SWAP1 POP JUMP JUMPDEST PUSH2 0x12C0 DUP4 PUSH2 0x128D JUMP JUMPDEST PUSH2 0x12D4 PUSH2 0x12CC DUP3 PUSH2 0x12AE JUMP JUMPDEST DUP5 DUP5 SLOAD PUSH2 0x1233 JUMP JUMPDEST DUP3 SSTORE POP POP POP POP JUMP JUMPDEST PUSH0 SWAP1 JUMP JUMPDEST PUSH2 0x12E8 PUSH2 0x12DC JUMP JUMPDEST PUSH2 0x12F3 DUP2 DUP5 DUP5 PUSH2 0x12B7 JUMP JUMPDEST POP POP POP JUMP JUMPDEST JUMPDEST DUP2 DUP2 LT ISZERO PUSH2 0x1316 JUMPI PUSH2 0x130B PUSH0 DUP3 PUSH2 0x12E0 JUMP JUMPDEST PUSH1 0x1 DUP2 ADD SWAP1 POP PUSH2 0x12F9 JUMP JUMPDEST POP POP JUMP JUMPDEST PUSH1 0x1F DUP3 GT ISZERO PUSH2 0x135B JUMPI PUSH2 0x132C DUP2 PUSH2 0x1206 JUMP JUMPDEST PUSH2 0x1335 DUP5 PUSH2 0x1218 JUMP JUMPDEST DUP2 ADD PUSH1 0x20 DUP6 LT ISZERO PUSH2 0x1344 JUMPI DUP2 SWAP1 POP JUMPDEST PUSH2 0x1358 PUSH2 0x1350 DUP6 PUSH2 0x1218 JUMP JUMPDEST DUP4 ADD DUP3 PUSH2 0x12F8 JUMP JUMPDEST POP POP JUMPDEST POP POP POP JUMP JUMPDEST PUSH0 DUP3 DUP3 SHR SWAP1 POP SWAP3 SWAP2 POP POP JUMP JUMPDEST PUSH0 PUSH2 0x137B PUSH0 NOT DUP5 PUSH1 0x8 MUL PUSH2 0x1360 JUMP JUMPDEST NOT DUP1 DUP4 AND SWAP2 POP POP SWAP3 SWAP2 POP POP JUMP JUMPDEST PUSH0 PUSH2 0x1393 DUP4 DUP4 PUSH2 0x136C JUMP JUMPDEST SWAP2 POP DUP3 PUSH1 0x2 MUL DUP3 OR SWAP1 POP SWAP3 SWAP2 POP POP JUMP JUMPDEST PUSH2 0x13AC DUP3 PUSH2 0xDC1 JUMP JUMPDEST PUSH8 0xFFFFFFFFFFFFFFFF DUP2 GT ISZERO PUSH2 0x13C5 JUMPI PUSH2 0x13C4 PUSH2 0x117C JUMP JUMPDEST JUMPDEST PUSH2 0x13CF DUP3 SLOAD PUSH2 0x11D6 JUMP JUMPDEST PUSH2 0x13DA DUP3 DUP3 DUP6 PUSH2 0x131A JUMP JUMPDEST PUSH0 PUSH1 0x20 SWAP1 POP PUSH1 0x1F DUP4 GT PUSH1 0x1 DUP2 EQ PUSH2 0x140B JUMPI PUSH0 DUP5 ISZERO PUSH2 0x13F9 JUMPI DUP3 DUP8 ADD MLOAD SWAP1 POP JUMPDEST PUSH2 0x1403 DUP6 DUP3 PUSH2 0x1388 JUMP JUMPDEST DUP7 SSTORE POP PUSH2 0x146A JUMP JUMPDEST PUSH1 0x1F NOT DUP5 AND PUSH2 0x1419 DUP7 PUSH2 0x1206 JUMP JUMPDEST PUSH0 JUMPDEST DUP3 DUP2 LT ISZERO PUSH2 0x1440 JUMPI DUP5 DUP10 ADD MLOAD DUP3 SSTORE PUSH1 0x1 DUP3 ADD SWAP2 POP PUSH1 0x20 DUP6 ADD SWAP5 POP PUSH1 0x20 DUP2 ADD SWAP1 POP PUSH2 0x141B JUMP JUMPDEST DUP7 DUP4 LT ISZERO PUSH2 0x145D JUMPI DUP5 DUP10 ADD MLOAD PUSH2 0x1459 PUSH1 0x1F DUP10 AND DUP3 PUSH2 0x136C JUMP JUMPDEST DUP4 SSTORE POP JUMPDEST PUSH1 0x1 PUSH1 0x2 DUP9 MUL ADD DUP9 SSTORE POP POP POP JUMPDEST POP POP POP POP POP POP JUMP JUMPDEST PUSH32 0x4D69736D6174636865642061646472657373657320616E6420616D6F756E7473 PUSH0 DUP3 ADD MSTORE POP JUMP JUMPDEST PUSH0 PUSH2 0x14A6 PUSH1 0x20 DUP4 PUSH2 0x1018 JUMP JUMPDEST SWAP2 POP PUSH2 0x14B1 DUP3 PUSH2 0x1472 JUMP JUMPDEST PUSH1 0x20 DUP3 ADD SWAP1 POP SWAP2 SWAP1 POP JUMP JUMPDEST PUSH0 PUSH1 0x20 DUP3 ADD SWAP1 POP DUP2 DUP2 SUB PUSH0 DUP4 ADD MSTORE PUSH2 0x14D3 DUP2 PUSH2 0x149A JUMP JUMPDEST SWAP1 POP SWAP2 SWAP1 POP JUMP JUMPDEST PUSH32 0x4E487B7100000000000000000000000000000000000000000000000000000000 PUSH0 MSTORE PUSH1 0x32 PUSH1 0x4 MSTORE PUSH1 0x24 PUSH0 REVERT JUMPDEST PUSH0 PUSH2 0x1511 DUP3 PUSH2 0xF83 JUMP JUMPDEST SWAP2 POP PUSH2 0x151C DUP4 PUSH2 0xF83 JUMP JUMPDEST SWAP3 POP DUP3 DUP3 ADD SWAP1 POP DUP1 DUP3 GT ISZERO PUSH2 0x1534 JUMPI PUSH2 0x1533 PUSH2 0x108E JUMP JUMPDEST JUMPDEST SWAP3 SWAP2 POP POP JUMP JUMPDEST PUSH32 0x496E73756666696369656E742062616C616E636520696E2074686520636F6E74 PUSH0 DUP3 ADD MSTORE PUSH32 0x7261637400000000000000000000000000000000000000000000000000000000 PUSH1 0x20 DUP3 ADD MSTORE POP JUMP JUMPDEST PUSH0 PUSH2 0x1594 PUSH1 0x24 DUP4 PUSH2 0x1018 JUMP JUMPDEST SWAP2 POP PUSH2 0x159F DUP3 PUSH2 0x153A JUMP JUMPDEST PUSH1 0x40 DUP3 ADD SWAP1 POP SWAP2 SWAP1 POP JUMP JUMPDEST PUSH0 PUSH1 0x20 DUP3 ADD SWAP1 POP DUP2 DUP2 SUB PUSH0 DUP4 ADD MSTORE PUSH2 0x15C1 DUP2 PUSH2 0x1588 JUMP JUMPDEST SWAP1 POP SWAP2 SWAP1 POP JUMP JUMPDEST PUSH0 PUSH1 0x20 DUP3 DUP5 SUB SLT ISZERO PUSH2 0x15DD JUMPI PUSH2 0x15DC PUSH2 0xB41 JUMP JUMPDEST JUMPDEST PUSH0 PUSH2 0x15EA DUP5 DUP3 DUP6 ADD PUSH2 0xB8F JUMP JUMPDEST SWAP2 POP POP SWAP3 SWAP2 POP POP JUMP JUMPDEST PUSH0 DUP2 SLOAD SWAP1 POP PUSH2 0x1601 DUP2 PUSH2 0x11D6 JUMP JUMPDEST SWAP1 POP SWAP2 SWAP1 POP JUMP JUMPDEST DUP2 DUP2 SUB PUSH2 0x1616 JUMPI POP POP PUSH2 0x16EB JUMP JUMPDEST PUSH2 0x161F DUP3 PUSH2 0x15F3 JUMP JUMPDEST PUSH8 0xFFFFFFFFFFFFFFFF DUP2 GT ISZERO PUSH2 0x1638 JUMPI PUSH2 0x1637 PUSH2 0x117C JUMP JUMPDEST JUMPDEST PUSH2 0x1642 DUP3 SLOAD PUSH2 0x11D6 JUMP JUMPDEST PUSH2 0x164D DUP3 DUP3 DUP6 PUSH2 0x131A JUMP JUMPDEST PUSH0 PUSH1 0x1F DUP4 GT PUSH1 0x1 DUP2 EQ PUSH2 0x167A JUMPI PUSH0 DUP5 ISZERO PUSH2 0x1668 JUMPI DUP3 DUP8 ADD SLOAD SWAP1 POP JUMPDEST PUSH2 0x1672 DUP6 DUP3 PUSH2 0x1388 JUMP JUMPDEST DUP7 SSTORE POP PUSH2 0x16E4 JUMP JUMPDEST PUSH1 0x1F NOT DUP5 AND PUSH2 0x1688 DUP8 PUSH2 0x1206 JUMP JUMPDEST SWAP7 POP PUSH2 0x1693 DUP7 PUSH2 0x1206 JUMP JUMPDEST PUSH0 JUMPDEST DUP3 DUP2 LT ISZERO PUSH2 0x16BA JUMPI DUP5 DUP10 ADD SLOAD DUP3 SSTORE PUSH1 0x1 DUP3 ADD SWAP2 POP PUSH1 0x1 DUP6 ADD SWAP5 POP PUSH1 0x20 DUP2 ADD SWAP1 POP PUSH2 0x1695 JUMP JUMPDEST DUP7 DUP4 LT ISZERO PUSH2 0x16D7 JUMPI DUP5 DUP10 ADD SLOAD PUSH2 0x16D3 PUSH1 0x1F DUP10 AND DUP3 PUSH2 0x136C JUMP JUMPDEST DUP4 SSTORE POP JUMPDEST PUSH1 0x1 PUSH1 0x2 DUP9 MUL ADD DUP9 SSTORE POP POP POP JUMPDEST POP POP POP POP POP POP JUMPDEST JUMP JUMPDEST PUSH32 0x4E487B7100000000000000000000000000000000000000000000000000000000 PUSH0 MSTORE PUSH1 0x31 PUSH1 0x4 MSTORE PUSH1 0x24 PUSH0 REVERT INVALID LOG2 PUSH5 0x6970667358 0x22 SLT KECCAK256 0x4B SAR 0xB2 PUSH20 0xB100007D1BBAC5154B9B0CE8D01A6A0893A67AF2 JUMPI PUSH16 0x8530748A51CD64736F6C634300081A00 CALLER "
				},
				"gasEstimates": {
					"creation": {
						"codeDepositCost": "1193600",
						"executionCost": "47617",
						"totalCost": "1241217"
					},
					"external": {
						"addFunds()": "186",
						"addInheritor(address,string)": "infinite",
						"distributeInheritance(address[],uint256[])": "infinite",
						"inheritors(uint256)": "infinite",
						"isAlive()": "infinite",
						"keepAlive()": "24467",
						"lastAlive()": "2491",
						"removeInheritor(address)": "infinite",
						"viewInheritors()": "infinite",
						"viewPoolBalance()": "378"
					}
				},
				"methodIdentifiers": {
					"addFunds()": "a26759cb",
					"addInheritor(address,string)": "69c68311",
					"distributeInheritance(address[],uint256[])": "c161c75d",
					"inheritors(uint256)": "f2a314fa",
					"isAlive()": "4136aa35",
					"keepAlive()": "87740c0d",
					"lastAlive()": "dffdac49",
					"removeInheritor(address)": "cf701f31",
					"viewInheritors()": "ca8fb041",
					"viewPoolBalance()": "d5d319c8"
				}
			},
			"storageLayout": {
				"storage": [
					{
						"astId": 3,
						"contract": "inheritance.sol:Inheritance",
						"label": "owner",
						"offset": 0,
						"slot": "0",
						"type": "t_address"
					},
					{
						"astId": 7,
						"contract": "inheritance.sol:Inheritance",
						"label": "inheritors",
						"offset": 0,
						"slot": "1",
						"type": "t_array(t_struct(Inheritor)14_storage)dyn_storage"
					},
					{
						"astId": 9,
						"contract": "inheritance.sol:Inheritance",
						"label": "lastAlive",
						"offset": 0,
						"slot": "2",
						"type": "t_uint256"
					}
				],
				"types": {
					"t_address": {
						"encoding": "inplace",
						"label": "address",
						"numberOfBytes": "20"
					},
					"t_address_payable": {
						"encoding": "inplace",
						"label": "address payable",
						"numberOfBytes": "20"
					},
					"t_array(t_struct(Inheritor)14_storage)dyn_storage": {
						"base": "t_struct(Inheritor)14_storage",
						"encoding": "dynamic_array",
						"label": "struct Inheritance.Inheritor[]",
						"numberOfBytes": "32"
					},
					"t_string_storage": {
						"encoding": "bytes",
						"label": "string",
						"numberOfBytes": "32"
					},
					"t_struct(Inheritor)14_storage": {
						"encoding": "inplace",
						"label": "struct Inheritance.Inheritor",
						"members": [
							{
								"astId": 11,
								"contract": "inheritance.sol:Inheritance",
								"label": "inheritorAddress",
								"offset": 0,
								"slot": "0",
								"type": "t_address_payable"
							},
							{
								"astId": 13,
								"contract": "inheritance.sol:Inheritance",
								"label": "name",
								"offset": 0,
								"slot": "1",
								"type": "t_string_storage"
							}
						],
						"numberOfBytes": "64"
					},
					"t_uint256": {
						"encoding": "inplace",
						"label": "uint256",
						"numberOfBytes": "32"
					}
				}
			},
			"userdoc": {
				"kind": "user",
				"methods": {},
				"version": 1
			}
		}
	}
}